:100000000C9434000C9451000C9451000C94510049
:100010000C9451000C9451000C9451000C9451001C
:100020000C9451000C9451000C9451000C948E06C9
:100030000C9451000C9451000C9451000C945100FC
:100040000C9451000C9451000C947B000C945100C2
:100050000C9451000C9451000C9451000C945100DC
:100060000C9451000C94510011241FBECFEFD8E026
:10007000DEBFCDBF11E0A0E0B1E0EAE4FFE002C0E6
:1000800005900D92A03CB107D9F722E0A0ECB1E0B9
:1000900001C01D92AD36B207E1F70E940B070C9428
:1000A000A3070C9400009091C00095FFFCCF8093B3
:1000B000C60008958091C00087FFFCCF8091C600E4
:1000C00008951092C50087E68093C40086E080936F
:1000D000C200E1ECF0E0808188698083E2E5F2E033
:1000E00083E590E0918380838AE590E09383828327
:1000F0001582148208951F920F920FB60F92112449
:100100002F933F934F935F936F937F938F939F931F
:10011000AF93BF93EF93FF93E0915602F091570294
:10012000309719F08091C6000995FF91EF91BF912A
:10013000AF919F918F917F916F915F914F913F917F
:100140002F910F900FBE0F901F9018950F931F9334
:10015000CF93DF9300915B0210915C02C5E0D1E088
:100160008991882329F0D801ED91FC910995F8CF68
:10017000DF91CF911F910F910895AF92BF92CF92CF
:10018000DF92EF92FF920F931F93CF93DF938C0137
:10019000C62FD0E06C015C01E12CF12CEC16FD06C1
:1001A00094F442E050E06DE071E0D5018D919D91B5
:1001B0005D010E944907892B21F0BFEFEB1AFB0A72
:1001C000EDCFE7FE04C05801E12CF12C26C0A09031
:1001D0005B02B0905C0280E1E82E81E0F82EF7012E
:1001E00081917F01882379F3D501ED91FC910995E7
:1001F000F6CFC7010296C817D907DCF042E050E0FD
:1002000068E271E0D5018D919D915D010E944907E1
:10021000892B39F0BFEFEB1AFB0AEC16FD064CF305
:1002200008C0E7FC06C0F801828193810E941B0789
:1002300085B95801E12CF12CEC16FD06ECF4C70150
:100240000296C817D907C4F042E050E06BE271E0B3
:10025000D5018D919D915D010E944907892B21F067
:10026000BFEFEB1AFB0AE8CFE7FC06C0F80182817A
:1002700093810E941B0788B9E12CF12CEC16FD0636
:10028000ECF4C7010296C817D907C4F042E050E069
:100290006EE271E0D6018D919D916D010E9449073A
:1002A000892B21F0BFEFEB1AFB0AE8CFE7FC06C071
:1002B000F801828193810E941B078BB980E0DF9156
:1002C000CF911F910F91FF90EF90DF90CF90BF9053
:1002D000AF9008956F927F929F92AF92BF92CF920C
:1002E000DF92EF92FF920F931F93CF93DF93CDB7DF
:1002F000DEB72A970FB6F894DEBF0FBECDBF8C01D4
:10030000962EC62ED12C5C013C01E12CF12CEC1474
:10031000FD0414F542E050E06DE071E0D3018D91F1
:100320009D913D010E944907892B21F0BFEFEB1AF7
:10033000FB0AEDCFE7FC10C0E0905B02F0905C029E
:1003400001E311E0F80181918F01882339F1D70190
:10035000ED91FC910995F6CF3801E12CF12CEC14CC
:10036000FD04F4F442E050E066E471E0D3018D91C5
:100370009D913D010E944907892B21F0BFEFEB1AA7
:10038000FB0AEDCFE7FC0CC080917C008064809379
:100390007C0080917A00876880937A0080E00CC1AD
:1003A000E12CF12CEC14FD040CF099C0C70102966D
:1003B000C816D9060CF493C042E050E069E471E03D
:1003C000F501819191915F010E944907892B21F0EC
:1003D000FFEFEF1AFF0AE6CFE7FC81C0A0905B02B7
:1003E000B0905C023CE4C32E31E0D32EF601819143
:1003F0006F01882329F0D501ED91FC910995F6CF85
:10040000FE2D82E0F802000D111D11240E5F1F4F1A
:10041000C0905B02D0905C02D801ED90FC90F70197
:1004200081917F01882329F0D601ED91FC910995F6
:10043000F6CFC0905B02D0905C0222E5E22E21E074
:10044000F22EF70181917F01882329F0D601ED91E9
:10045000FC910995F6CFD8018D919C910E941B07C4
:100460008830A0F490917C00907F892B80937C0051
:1004700080917A00806480937A0080917A0086FD72
:10048000FCCF809178009091790002C08FEF9FEFB0
:100490004AE0BE016F5F7F4F0E946607E0905B02FB
:1004A000F0905C028C01F80181918F01882329F082
:1004B000D701ED91FC910995F6CFE0905B02F090A9
:1004C0005C0205E211E0F80181918F01882329F097
:1004D000D701ED91FC910995F6CF81E06DC09110A7
:1004E0005DCF00E010E04AE0BE016F5F7F4FC801C2
:1004F0000E946607C0905B02D0905C027C01F7010D
:1005000081917F01882329F0D601ED91FC91099515
:10051000F6CFC0905B02D0905C0292E5E92E91E0AC
:10052000F92EF70181917F01882329F0D601ED9101
:10053000FC910995F6CF80917C00807F802B809381
:100540007C0080917A00806480937A0080917A00A8
:1005500086FDFCCF80917800909179004AE0BE0141
:100560006F5F7F4F0E946607C0905B02D0905C0275
:100570007C01F70181917F01882329F0D601ED915B
:10058000FC910995F6CFC0905B02D0905C0285E2A9
:10059000E82E81E0F82EF70181917F01882329F070
:1005A000D601ED91FC910995F6CF0F5F1F4F0830F2
:1005B000110509F098CFF2CE2A960FB6F894DEBF57
:1005C0000FBECDBFDF91CF911F910F91FF90EF90A4
:1005D000DF90CF90BF90AF909F907F906F900895E5
:1005E0008F929F92AF92BF92CF92DF92FF920F9322
:1005F0001F93CF93DF93EC01F62EC62ED12C5C0116
:100600004C0100E010E00C151D05FCF442E050E048
:100610006DE071E0D4018D919D914D010E944907DB
:10062000892B19F00F5F1F4FEECF07FD0EC0009111
:100630005B0210915C02C5E5D1E08991882379F1D4
:10064000D801ED91FC910995F8CF00E010E00C1570
:100650001D05B4F442E050E066E471E0F5018191DB
:1006600091915F010E944907892B19F00F5F1F4F7D
:10067000EECF07FD05C00E9478060E9463060FC0FA
:10068000F1E0FF1560F48A819B810E941B078C01B9
:10069000888199810E941B07B8010E94390680E079
:1006A000DF91CF911F910F91FF90DF90CF90BF907E
:1006B000AF909F908F900895CF93DF93DA011C92B3
:1006C000EC012881222351F1203259F02D3049F0DC
:1006D0002A3039F0FB0181939193BF012C912F5F58
:1006E0002C93FC0181918823C9F08032D9F7CF0186
:1006F0000197EC01188280818D30A1F38A3091F34B
:100700008F7D81F38C918F5F8C93883010F01C92D9
:1007100005C0EB01E993F993BE01E4CFDF91CF91DE
:100720000895AF92BF92CF92DF92EF92FF920F9314
:100730001F93CF93DF936C015B017A0186E090E019
:100740000E94EF06EC0109EF11E0D8018D919C9118
:10075000009711F08C01F9CF84E090E00E94EF0641
:10076000F80191838083009739F400915B02109126
:100770005C02C3E7D1E013C0DC011396DC93CE9397
:100780001297209791F3B982A882DB82CA82FD82F8
:10079000EC828091FD018F5F8093FD0108C08991FB
:1007A000882329F0D801ED91FC910995F8CFDF91CC
:1007B000CF911F910F91FF90EF90DF90CF90BF905E
:1007C000AF9008950F931F93CF93DF931092FD0185
:1007D00040E050E06BE771E086EA90E00E94910310
:1007E00040E050E061E871E08DEB90E00E94910301
:1007F00040E050E066E871E080EF92E00E949103F3
:1008000040E050E06CE871E08AE691E00E949103DC
:1008100000915B0210915C02C0E9D1E089918823CC
:1008200029F0D801ED91FC910995F8CFDF91CF9196
:100830001F910F91089590935C0280935B0223EACD
:1008400035E0FC01358324830C94E203CF92DF92E0
:10085000FF920F931F93CF93DF938C01F62E6111BC
:1008600007C000915B0210915C02C0E9D1E030C08A
:10087000C091F901D091FA01D8018C9111969C9107
:10088000209771F1CA80DB80D6016D917C910E9426
:100890003907892BC9F4F6018481958190935A0216
:1008A00080935902FA940E5F1F4FEA81FB81028008
:1008B000F381E02D6F2DC8010995882391F2809175
:1008C0005802813091F7CDCF0990D881C02DD4CF77
:1008D0008991882309F1D801ED91FC910995F8CF10
:1008E00000915B0210915C02EC018991882329F050
:1008F000D801ED91FC910995F8CF00915B02109120
:100900005C02C6E9D1E08991882309F4AACFD80115
:10091000ED91FC910995F7CFDF91CF911F910F9148
:10092000FF90DF90CF9008958091FF018823B1F070
:10093000109258024EEF51E060E072E080E192E0E8
:100940000E945C0310925A02109259026091FE01BB
:1009500080E092E00E9426041092FF0108956F92B9
:100960007F928F929F92AF92BF92CF92DF92EF923F
:10097000FF920F931F93CF93DF93EC01B62E7A0172
:100980000091F9011091FA014801A12C8114910400
:1009900089F1FE0101900020E9F73197AF014C1B6E
:1009A0005D0BD4011296ED91FC91139760817181DA
:1009B000CE010E944907892B11F4A3946401F4012C
:1009C00080809180E3CFFE0101900020E9F731970C
:1009D000AF014C1B5D0BD8011296ED91FC91139762
:1009E00060817181CE010E944907892B39F0D801BD
:1009F0000D911C910115110531F73CC0B1E0BA15FC
:100A0000B0F780905B0290905C029CEA692E91E0C6
:100A1000792EF30181913F01882329F0D401ED91D2
:100A2000FC910995F6CF80905B0290905C02D80112
:100A30001296ED91FC91139760807180F301819182
:100A40003F01882329F0D401ED91FC910995F6CF5F
:100A500080905B0290905C028FEA682E81E0782E95
:100A6000F30181913F01882311F2D401ED91FC91B2
:100A70000995F6CFAA2009F457C0B1E0AB1228C0FF
:100A80006B2D70E0AB0142505109D6011296ED91E9
:100A9000FC91139760817181CE010E945707C0902D
:100AA0005B02D0905C02F70100811181F801819115
:100AB0008F01882329F0D601ED91FC910995F6CF9D
:100AC00009900020E9F72197D701CD93DC932CC042
:100AD000E0905B02F0905C0205E211E0F801819188
:100AE0008F01882329F0D701ED91FC910995F6CF6C
:100AF000E0905B02F0905C0200E911E0F801819166
:100B00008F01882329F0D701ED91FC910995F6CF4B
:100B100000915B0210915C028991882329F0D80131
:100B2000ED91FC910995F8CFDF91CF911F910F9135
:100B3000FF90EF90DF90CF90BF90AF909F908F90FD
:100B40007F906F9008950F931F93CF93DF93C82FDB
:100B50008091F801833271F4C33661F481E08093AF
:100B6000580280E192E0909301018093000161EBD3
:100B700071E022C08091FF01813051F4E09159026F
:100B8000F0915A02309709F44CC08C2F099549C056
:100B9000E0910001F0910101CD3011F0CA3089F4EB
:100BA000108280E192E0909301018093000181E046
:100BB0008093FF0165E271E082EF91E00E944207BD
:100BC00043C0C83011F0CF37D9F482E0E031F807E4
:100BD000A1F098F03197F0930101E09300010091AA
:100BE0005B0210915C02C6EBD1E089918823E1F1B0
:100BF000D801ED91FC910995F8CF69EB71E0DCCF5C
:100C0000B2E0EA34FB0718F06AEB71E0D5CFC930E7
:100C100059F4108240E051E06CE380E192E00E94E0
:100C2000AF041092F20110C0C032D8F3C08380919B
:100C300000019091010101969093010180930001C0
:100C4000C093F2011092F301C093F80100915B028E
:100C500010915C02C2EFD1E08991882329F0D8017C
:100C6000ED91FC910995F8CFDF91CF911F910F91F4
:100C70000895E82FF0E0CB016D34744010F08CE45F
:100C800094E088519C4FEE0FFF1FE35AFD4F918374
:100C9000808380E090E020E030E0FC01EE0FFF1F59
:100CA000E35AFD4F40815181240F351F0196883052
:100CB000910599F780E29EE4821B930B90930301C8
:100CC000809302010895EDE5F2E088EE93E09183D0
:100CD000808393838283958384839783868391879C
:100CE00080879387828795878487978786870895EB
:100CF0008FEF84B98FEF9FEF9093890080938800E6
:100D0000E1E8F0E0808188608083AFE6B0E08C911C
:100D100082608C9380818260808308951F920F92FD
:100D20000FB60F9211242F933F938F939F93EF93BE
:100D3000FF933091040125B181E090E002C0880F5B
:100D4000991F3A95E2F780959095822385B9809115
:100D500004018F5F8093040180910401893010F0B9
:100D60001092040180910401883048F080910201C2
:100D700090910301909389008093880018C0E091BE
:100D80000401F0E0EE0FFF1FE35AFD4F80819181D7
:100D900090938900809388003091040125B181E00F
:100DA00090E001C0880F3A95EAF7822B85B9FF9150
:100DB000EF919F918F913F912F910F900FBE0F90C8
:100DC0001F901895909351028093500270934F0298
:100DD00060934E0290934D0280934C0208952091AF
:100DE0004C0230914D02820F931F6091500270911E
:100DF000510240914E0250914F02460F571F8417E7
:100E0000950730F490934D0280934C02C9010895E8
:100E100080E090E0089562E370E080EC91E00E9451
:100E2000E2060E946100789482E592E00E941B0431
:100E30000E949404FDCFFC0188279927E894219112
:100E40002032E9F3293010F02E30C8F32B3241F074
:100E50002D3239F4689404C00E947107820F911DED
:100E6000219120532A30C0F31EF4909581959F4F15
:100E70000895FB01DC018D91019080190110D9F3D7
:100E8000990B0895FB01DC0101900D920020E1F720
:100E90000895FB01DC014150504030F08D910190EC
:100EA000801919F40020B9F7881B990B0895FB01EC
:100EB000DC014150504048F001900D920020C9F7EC
:100EC00001C01D9241505040E0F70895BB274A30C1
:100ED00031F4992322F4BDE2909581959F4F0C94B3
:100EE0007A077AE0979F902D879F802D910D11248E
:100EF0000895BB27FB015527AA27880F991FAA1F12
:100F0000A41710F0A41B83955051B9F7A05DAA3324
:100F100008F0A95DA193009779F7B111B1931192EF
:100F2000CB010C949307DC01FC01672F71917723AF
:100F3000E1F7329704C07C916D9370836291AE1794
:0A0F4000BF07C8F30895F894FFCF2F
:100F4A001002A00F091B5B324A1B5B48002D680088
:100F5A00706F7274202D27622F632F6427202276E8
:100F6A00616C7565220A0D002D62002D63002D64E7
:100F7A0000616463204E72207C202D69207C202D24
:100F8A006D20780A0D002D69002D6D0070696E3A8A
:100F9A002000202000736572766F204E7220302D5B
:100FAA0031303030207C7C20736572766F202D6959
:100FBA000A0D00735F6D5F650A0D00636C656172EF
:100FCA0000706F727400736572766F0061646300FB
:100FDA004156522320003A20636F6D6D616E642082
:100FEA006E6F7420666F756E640A0D000D0A000933
:100FFA00005E630A0D0008200800626F660A0D0091
:00000001FF
