:100000000C9434000C9451000C9451000C94510049
:100010000C9451000C9451000C9451000C9451001C
:100020000C9451000C9451000C9451000C942F0628
:100030000C9451000C9451000C9451000C945100FC
:100040000C9451000C9451000C947B000C945100C2
:100050000C9451000C9451000C9451000C945100DC
:100060000C9451000C94510011241FBECFEFD8E026
:10007000DEBFCDBF11E0A0E0B1E0ECE8FEE002C0E1
:1000800005900D92A03BB107D9F722E0A0EBB1E0BB
:1000900001C01D92AD35B207E1F70E94AC060C9489
:1000A00044070C9400009091C00095FFFCCF809312
:1000B000C60008958091C00087FFFCCF8091C600E4
:1000C00008951092C50087E68093C40086E080936F
:1000D000C200E1ECF0E0808188698083E2E4F2E034
:1000E00083E590E0918380838AE590E09383828327
:1000F0001582148208951F920F920FB60F92112449
:100100002F933F934F935F936F937F938F939F931F
:10011000AF93BF93EF93FF93E0914602F0914702B4
:10012000309719F08091C6000995FF91EF91BF912A
:10013000AF919F918F917F916F915F914F913F917F
:100140002F910F900FBE0F901F9018950F931F9334
:10015000CF93DF9300914B0210914C02C5E0D1E0A8
:100160008991882329F0D801ED91FC910995F8CF68
:10017000DF91CF911F910F910895AF92BF92CF92CF
:10018000DF92EF92FF920F931F93CF93DF938C0137
:10019000C62FD0E06C015C01E12CF12CEC16FD06C1
:1001A00094F442E050E06DE071E0D5018D919D91B5
:1001B0005D010E94EA06892B21F0BFEFEB1AFB0AD2
:1001C000EDCFE7FE04C05801E12CF12C26C0A09031
:1001D0004B02B0904C0280E1E82E81E0F82EF7014E
:1001E00081917F01882379F3D501ED91FC910995E7
:1001F000F6CFC7010296C817D907DCF042E050E0FD
:1002000068E271E0D5018D919D915D010E94EA0641
:10021000892B39F0BFEFEB1AFB0AEC16FD064CF305
:1002200008C0E7FC06C0F801828193810E94BC06E9
:1002300085B95801E12CF12CEC16FD06ECF4C70150
:100240000296C817D907C4F042E050E06BE271E0B3
:10025000D5018D919D915D010E94EA06892B21F0C7
:10026000BFEFEB1AFB0AE8CFE7FC06C0F80182817A
:1002700093810E94BC0688B9E12CF12CEC16FD0696
:10028000ECF4C7010296C817D907C4F042E050E069
:100290006EE271E0D6018D919D916D010E94EA069A
:1002A000892B21F0BFEFEB1AFB0AE8CFE7FC06C071
:1002B000F801828193810E94BC068BB980E0DF91B6
:1002C000CF911F910F91FF90EF90DF90CF90BF9053
:1002D000AF9008956F927F928F929F92AF92BF924C
:1002E000DF92EF92FF920F931F93CF93DF93CDB7DF
:1002F000DEB72A970FB6F894DEBF0FBECDBF7C01E4
:10030000D62EA62EB12C4C013C0100E010E00A15BF
:100310001B0514F542E050E06DE071E0D3018D91D2
:100320009D913D010E94EA06892B19F00F5F1F4F36
:10033000EECF07FD11C0E0904B02F0904C0201E3BC
:1003400011E0F80181918F01882309F4D5C0D7010C
:10035000ED91FC910995F5CF00E010E00A151B0521
:10036000E4F442E050E06FE371E0D4018D919D919F
:100370004D010E94EA06892B19F00F5F1F4FEECF47
:1003800007FD0BC080917C00806480937C0080918D
:100390007A00876880937A00AFC0D1106BC000E00C
:1003A00010E04AE0BE016F5F7F4FC8010E9407075F
:1003B000A0904B02B0904C027C01F70181917F012B
:1003C000882329F0D501ED91FC910995F6CFA090F5
:1003D0004B02B0904C0292E4E92E91E0F92EF70125
:1003E00081917F01882329F0D501ED91FC91099538
:1003F000F6CF80917C00807F802B80937C00809161
:100400007A00806480937A0080917A0086FDFCCF28
:1004100080917800909179004AE0BE016F5F7F4F34
:100420000E940707A0904B02B0904C027C01F7019C
:1004300081917F01882329F0D501ED91FC910995E7
:10044000F6CFA0904B02B0904C0285E2E82E81E0FE
:10045000F82EF70181917F01882329F0D501ED91D4
:10046000FC910995F6CF0F5F1F4F0830110509F079
:1004700098CF42C0D7018D919C910E94BC068830D4
:10048000A0F490917C00907F892B80937C008091D8
:100490007A00806480937A0080917A0086FDFCCF98
:1004A000809178009091790002C08FEF9FEF4AE031
:1004B000BE016F5F7F4F0E940707E0904B02F090F4
:1004C0004C028C01F80181918F01882329F0D7011A
:1004D000ED91FC910995F6CFE0904B02F0904C0223
:1004E00005E211E0F80181918F01882329F0D701FD
:1004F000ED91FC910995F6CF80E02A960FB6F8941D
:10050000DEBF0FBECDBFDF91CF911F910F91FF9046
:10051000EF90DF90BF90AF909F908F907F906F9003
:1005200008958F929F92AF92BF92CF92DF92FF92E7
:100530000F931F93CF93DF93EC01F62EC62ED12C91
:100540005C014C0100E010E00C151D05FCF442E0DC
:1005500050E06DE071E0D4018D919D914D010E94BC
:10056000EA06892B19F00F5F1F4FEECF07FD0EC073
:1005700000914B0210914C02C5E4D1E0899188238F
:1005800079F1D801ED91FC910995F8CF00E010E0E8
:100590000C151D05B4F442E050E06FE371E0F50185
:1005A000819191915F010E94EA06892B19F00F5FFA
:1005B0001F4FEECF07FD05C00E9419060E940406DA
:1005C0000FC0F1E0FF1560F48A819B810E94BC0698
:1005D0008C01888199810E94BC06B8010E94DA05CD
:1005E00080E0DF91CF911F910F91FF90DF90CF902E
:1005F000BF90AF909F908F900895CF93DF93DA01D3
:100600001C92EC012881222351F1203259F02D3027
:1006100049F02A3039F0FB0181939193BF012C916D
:100620002F5F2C93FC0181918823C9F08032D9F788
:10063000CF010197EC01188280818D30A1F38A30BF
:1006400091F38F7D81F38C918F5F8C93883010F0C4
:100650001C9205C0EB01E993F993BE01E4CFDF9151
:10066000CF910895AF92BF92CF92DF92EF92FF9217
:100670000F931F93CF93DF936C015B017A0186E0A8
:1006800090E00E949006EC0109EE11E0D8018D91F6
:100690009C91009711F08C01F9CF84E090E00E94CA
:1006A0009006F80191838083009739F400914B0202
:1006B00010914C02C3E6D1E013C0DC011396DC9329
:1006C000CE931297209791F3B982A882DB82CA82D7
:1006D000FD82EC828091ED018F5F8093ED0108C077
:1006E0008991882329F0D801ED91FC910995F8CFE3
:1006F000DF91CF911F910F91FF90EF90DF90CF90FE
:10070000BF90AF9008950F931F93CF93DF931092F4
:10071000ED0140E050E06BE671E086EA90E00E9477
:10072000320340E050E061E771E08DEB90E00E9421
:10073000320340E050E066E771E081E992E00E9418
:10074000320340E050E06CE771E08AE691E00E94FD
:10075000320300914B0210914C02C0E8D1E0899124
:10076000882329F0D801ED91FC910995F8CFDF910C
:10077000CF911F910F91089590934C0280934B025B
:1007800024E435E0FC01358324830C948303CF9269
:10079000DF92FF920F931F93CF93DF938C01F62E7E
:1007A000611107C000914B0210914C02C0E8D1E0EA
:1007B00030C0C091E901D091EA01D8018C91119625
:1007C0009C91209771F1CA80DB80D6016D917C915C
:1007D0000E94DA06892BC9F4F601848195819093F1
:1007E0004A0280934902FA940E5F1F4FEA81FB810F
:1007F0000280F381E02D6F2DC8010995882391F2C5
:1008000080914802813091F7CDCF0990D881C02DD9
:10081000D4CF8991882309F1D801ED91FC910995F4
:10082000F8CF00914B0210914C02EC018991882382
:1008300029F0D801ED91FC910995F8CF00914B0278
:1008400010914C02C6E8D1E08991882309F4AACF1F
:10085000D801ED91FC910995F7CFDF91CF911F91D0
:100860000F91FF90DF90CF9008958091EF01882342
:10087000B1F0109248024EEE51E060EF71E080E07E
:1008800092E00E94FD0210924A0210924902609189
:10089000EE0180EF91E00E94C7031092EF010895EE
:1008A0006F927F928F929F92AF92BF92CF92DF9280
:1008B000EF92FF920F931F93CF93DF93EC01B62E2D
:1008C0007A010091E9011091EA014801A12C8114FB
:1008D000910489F1FE0101900020E9F73197AF0101
:1008E0004C1B5D0BD4011296ED91FC911397608126
:1008F0007181CE010E94EA06892B11F4A394640150
:10090000F40180809180E3CFFE0101900020E9F79F
:100910003197AF014C1B5D0BD8011296ED91FC9104
:10092000139760817181CE010E94EA06892B39F00C
:10093000D8010D911C910115110531F73CC0B1E0B2
:10094000BA15B0F780904B0290904C029CE9692E4A
:1009500091E0792EF30181913F01882329F0D401A0
:10096000ED91FC910995F6CF80904B0290904C024E
:10097000D8011296ED91FC91139760807180F3017C
:1009800081913F01882329F0D401ED91FC910995D3
:10099000F6CF80904B0290904C028FE9682E81E058
:1009A000782EF30181913F01882311F2D401ED915A
:1009B000FC910995F6CFAA2009F457C0B1E0AB121B
:1009C00028C06B2D70E0AB0142505109D601129640
:1009D000ED91FC91139760817181CE010E94F80620
:1009E000C0904B02D0904C02F70100811181F801B8
:1009F00081918F01882329F0D601ED91FC91099511
:100A0000F6CF09900020E9F72197D701CD93DC9329
:100A10002CC0E0904B02F0904C0205E211E0F8018E
:100A200081918F01882329F0D701ED91FC910995DF
:100A3000F6CFE0904B02F0904C0200E811E0F80194
:100A400081918F01882329F0D701ED91FC910995BF
:100A5000F6CF00914B0210914C028991882329F026
:100A6000D801ED91FC910995F8CFDF91CF911F91BD
:100A70000F91FF90EF90DF90CF90BF90AF909F903D
:100A80008F907F906F9008950F931F93CF93DF9374
:100A9000C82F8091E801833271F4C33661F481E09C
:100AA0008093480280E092E09093010180930001DE
:100AB00061EA71E022C08091EF01813051F4E09150
:100AC0004902F0914A02309709F44CC08C2F0995E5
:100AD00049C0E0910001F0910101CD3011F0CA3020
:100AE00089F4108280E092E09093010180930001EC
:100AF00081E08093EF0165E271E082EE91E00E9477
:100B0000E30643C0C83011F0CF37D9F482E0E030BB
:100B1000F807A1F098F03197F0930101E0930001FC
:100B200000914B0210914C02C6EAD1E089918823D2
:100B3000E1F1D801ED91FC910995F8CF69EA71E0F6
:100B4000DCCFB2E0EA33FB0718F06AEA71E0D5CFF8
:100B5000C93059F4108240E051E06CE380E092E04B
:100B60000E9450041092E20110C0C032D8F3C0833A
:100B70008091000190910101019690930101809371
:100B80000001C093E2011092E301C093E8010091DB
:100B90004B0210914C02C2EED1E08991882329F0DA
:100BA000D801ED91FC910995F8CFDF91CF911F917C
:100BB0000F910895E82FF0E0CB016D34744010F0F0
:100BC0008CE494E088519C4FEE0FFF1FE35BFD4FD8
:100BD0009183808380E090E020E030E0FC01EE0F24
:100BE000FF1FE35BFD4F40815181240F351F0196AC
:100BF0008830910599F780E29EE4821B930B9093D5
:100C00000301809302010895EDE4F2E088EE93E0A1
:100C10009183808393838283958384839783868360
:100C20009187808793878287958784879787868730
:100C300008958FEF84B98FEF9FEF90938900809391
:100C40008800E1E8F0E0808188608083AFE6B0E072
:100C50008C9182608C9380818260808308951F9242
:100C60000F920FB60F9211242F933F938F939F9360
:100C7000EF93FF933091040125B181E090E002C031
:100C8000880F991F3A95E2F780959095822385B950
:100C9000809104018F5F8093040180910401893069
:100CA00010F01092040180910401883048F0809186
:100CB000020190910301909389008093880018C0ED
:100CC000E0910401F0E0EE0FFF1FE35BFD4F808138
:100CD000918190938900809388003091040125B11F
:100CE00081E090E001C0880F3A95EAF7822B85B940
:100CF000FF91EF919F918F913F912F910F900FBE98
:100D00000F901F901895909341028093400270932A
:100D10003F0260933E0290933D0280933C0208950F
:100D200020913C0230913D02820F931F609140025E
:100D30007091410240913E0250913F02460F571F71
:100D40008417950730F490933D0280933C02C901CB
:100D5000089580E090E0089562E370E080EB91E018
:100D60000E9483060E946100789482E492E00E94CF
:100D7000BC030E943504FDCFFC0188279927E89425
:100D800021912032E9F3293010F02E30C8F32B32B4
:100D900041F02D3239F4689404C00E941207820F8A
:100DA000911D219120532A30C0F31EF49095819516
:100DB0009F4F0895FB01DC018D9101908019011076
:100DC000D9F3990B0895FB01DC0101900D920020ED
:100DD000E1F70895FB01DC014150504030F08D9166
:100DE0000190801919F40020B9F7881B990B089518
:100DF000FB01DC014150504048F001900D92002071
:100E0000C9F701C01D9241505040E0F70895BB273B
:100E10004A3031F4992322F4BDE2909581959F4F99
:100E20000C941B077AE0979F902D879F802D910D42
:100E300011240895BB27FB015527AA27880F991F66
:100E4000AA1FA41710F0A41B83955051B9F7A05DF9
:100E5000AA3308F0A95DA193009779F7B111B19376
:100E60001192CB010C943407DC01FC01672F7191C6
:100E70007723E1F7329704C07C916D937083629180
:0C0E8000AE17BF07C8F30895F894FFCF29
:100E8C000002A00F091B5B324A1B5B48002D680057
:100E9C00706F7274202D27622F632F6427202276A7
:100EAC00616C7565220A0D002D62002D63002D64A6
:100EBC0000616463204E72207C202D690A0D002D88
:100ECC006900202000736572766F204E7220302DE1
:100EDC0031303030207C7C20736572766F202D6928
:100EEC000A0D00735F6D5F650A0D00636C656172BE
:100EFC0000706F727400736572766F0061646300CA
:100F0C004156522320003A20636F6D6D616E642050
:100F1C006E6F7420666F756E640A0D000D0A000901
:100F2C00005E630A0D0008200800626F660A0D005F
:00000001FF
