:100000000C9434000C9451000C9451000C94510049
:100010000C9451000C9451000C9451000C9451001C
:100020000C9451000C9451000C9451000C9451000C
:100030000C9451000C9451000C9451000C945100FC
:100040000C9451000C9451000C9451000C945100EC
:100050000C9451000C9451000C9451000C945100DC
:100060000C9451000C94510011241FBECFEFD8E026
:10007000DEBFCDBF11E0A0E0B1E0E4E5F1E002C0F9
:1000800005900D92AC31B107D9F721E0ACE1B1E0B8
:1000900001C01D92A232B207E1F70E94A1000C94A8
:1000A000A8000C9400001092C50087E68093C4005D
:1000B00086E08093C200E1ECF0E080818869808373
:1000C00008959091C00095FFFCCF8093C6000895DD
:1000D000CF93C82F8A3019F48DE00E9468008C2FCE
:1000E0000E94610080E090E0CF9108958091C0006F
:1000F00087FFFCCF8091C60008951F93CF93DF93B5
:10010000EC0110E0812F90E0FE0101900020E9F762
:100110003197EC1BFD0B8E179F0740F4FE01E80F93
:10012000F91F80810E9461001F5FECCFDF91CF91AA
:100130001F91089580E091E090931F0180931E012C
:1001400008950E9453008EE091E00E947D00FBCF55
:04015000F894FFCF51
:100154000000000200000000680000000000686168
:0C0164006C6C6F2077656C74200A0D0035
:00000001FF
