:100000000C9434000C9451000C9451000C94510049
:100010000C9451000C9451000C9451000C94E60681
:100020000C9451000C9451000C9451000C9451000C
:100030000C9451000C9451000C94B7070C9451008F
:100040000C9451000C9451000C94EA010C94510052
:100050000C9451000C9451000C9451000C945100DC
:100060000C9451000C94510011241FBECFEFD8E026
:10007000DEBFCDBF12E0A0E0B1E0E6EFFCE102C0E0
:1000800005900D92A835B107D9F723E0A8E5B2E0B5
:1000900001C01D92A53DB207E1F70E94500B0C94E0
:1000A000790E0C94000040E050E062E071E088E8D6
:1000B00098E00E94E70340E050E06AE071E08AE5E2
:1000C00099E00E94E70340E050E068E071E083E6D9
:1000D00099E00E94E70340E050E066E171E08BE6C2
:1000E00099E00E94E70340E050E063E271E082E3C0
:1000F00098E00E94E70340E050E06DE271E08CE19F
:1001000098E00E94E70340E050E067E371E08EE092
:1001100098E00E94E70340E050E068E471E08AE57F
:1001200098E00E94E70340E050E066E571E08EE76A
:1001300099E00E94E70340E050E06EE571E08FE94E
:1001400099E00E94E70340E050E068E671E081ED4D
:1001500099E00E94E7036CE873E080E090E00E9481
:100160004808ECE7F0E0808180648083EAE7F0E013
:1001700080818768808341E064E270E085E290E0FE
:100180000E94FB068AE090E00C94CB062F923F92EF
:100190004F925F926F927F928F929F92AF92BF9297
:1001A000CF92DF92EF92FF920F931F93CF93DF9343
:1001B00000D000D0CDB7DEB79CE8292E93E0392ED1
:1001C000F10190819830A0F480917C00807F892B90
:1001D00080937C0080917A00806480937A00809183
:1001E0007A0086FDFCCF809178009091790002C062
:1001F0008FEF9FEF94838383238521110EC0278186
:1002000030858217930710F4908787832581368184
:100210002817390710F4968385833E9683E0E43CE3
:10022000F80779F6E12CF12CF1016381748180E00B
:1002300090E00E94920C4B015C01F1010581168156
:10024000B80180E090E00E94920C3B016C019B01A0
:10025000AC01B401C5010E94440D181614F4430109
:100260005601F101C780D084B60180E090E00E9481
:10027000920C2B013C019B01AC01B401C5010E9411
:10028000E50B87FF02C0420153019201A301B401B3
:10029000C5010E94780B4B015C01B8016C197D0906
:1002A00080E090E00E94920C9B01AC01C501B4017A
:1002B0000E94EA0B9B01AC01C70184579C4F6C0163
:1002C000FC018185F10101811281B8018823B9F017
:1002D00080E090E029833A834B835C830E94920CF8
:1002E0004B015C0129813A814B815C810E94490D5F
:1002F0009B01AC01C501B4010E94780B0EC080E0E7
:1003000090E029833A834B835C830E94920C29817D
:100310003A814B815C810E94490D0E945C0CF10185
:1003200075876487F6018285882349F016950795BD
:10033000F10184859585801B910B95878487FEE06C
:10034000EF0EF11C8EE0280E311C98E3E916F10443
:1003500009F06ACF0F900F900F900F90DF91CF911F
:100360001F910F91FF90EF90DF90CF90BF90AF90D3
:100370009F908F907F906F905F904F903F902F90C5
:100380000C94DD069091C00095FFFCCF8093C600D1
:1003900008958091C00087FFFCCF8091C60008952A
:1003A0001092C50080E18093C40086E08093C20073
:1003B000E1ECF0E0808188698083E4ECF3E082EC9A
:1003C00091E09183808389EC91E09383828315820D
:1003D000148208951F920F920FB60F9211242F933B
:1003E0003F934F935F936F937F938F939F93AF93BD
:1003F000BF93EF93FF93E091C803F091C903309747
:1004000019F08091C6000995FF91EF91BF91AF91CE
:100410009F918F917F916F915F914F913F912F911C
:100420000F900FBE0F901F9018950F931F93CF93AF
:10043000DF930091CD031091CE03CAE6D1E08991FC
:10044000882329F0D801ED91FC910995F8CFDF912F
:10045000CF911F910F9108956F927F929F92AF92CB
:10046000BF92CF92DF92EF92FF920F931F93CF93A1
:10047000DF93CDB7DEB72A970FB6F894DEBF0FBE75
:10048000CDBF8C01962EC62ED12C5C013C01E12CF7
:10049000F12CEC14FD0414F542E050E062E771E049
:1004A000D3018D919D913D010E94E40D892B21F096
:1004B000BFEFEB1AFB0AEDCFE7FC10C0E090CD03D5
:1004C000F090CE0305E711E0F80181918F018823B8
:1004D00039F1D701ED91FC910995F6CF3801E12C66
:1004E000F12CEC14FD04F4F442E050E06AE871E011
:1004F000D3018D919D913D010E94E40D892B21F046
:10050000BFEFEB1AFB0AEDCFE7FC0CC080917C003B
:10051000806480937C0080917A00876880937A0061
:1005200080E00CC1E12CF12CEC14FD040CF099C01E
:10053000C7010296C816D9060CF493C042E050E0F9
:100540006DE871E0F501819191915F010E94E40DE8
:10055000892B21F0FFEFEF1AFF0AE6CFE7FC81C0FD
:10056000A090CD03B090CE0335E2C32E32E0D32E5F
:10057000F60181916F01882329F0D501ED91FC915D
:100580000995F6CFFE2D82E0F802000D111D112411
:100590000E5F1F4FC090CD03D090CE03D801ED90D9
:1005A000FC90F70181917F01882329F0D601ED911C
:1005B000FC910995F6CFC090CD03D090CE0320E9F1
:1005C000E22E21E0F22EF70181917F01882329F0AC
:1005D000D601ED91FC910995F6CFD8018D919C91B2
:1005E0000E94B60D8830A0F490917C00907F892BFA
:1005F00080937C0080917A00806480937A0080915F
:100600007A0086FDFCCF809178009091790002C03D
:100610008FEF9FEF4AE0BE016F5F7F4F0E940C0E8D
:10062000E090CD03F090CE038C01F80181918F0111
:10063000882329F0D701ED91FC910995F6CFE09040
:10064000CD03F090CE0308EC11E0F80181918F0109
:10065000882329F0D701ED91FC910995F6CF81E02F
:100660006DC091105DCF00E010E04AE0BE016F5F09
:100670007F4FC8010E940C0EC090CD03D090CE03D6
:100680007C01F70181917F01882329F0D601ED914A
:10069000FC910995F6CFC090CD03D090CE0390E9A0
:1006A000E92E91E0F92EF70181917F01882329F04D
:1006B000D601ED91FC910995F6CF80917C00807F69
:1006C000802B80937C0080917A00806480937A00F4
:1006D00080917A0086FDFCCF80917800909179001E
:1006E0004AE0BE016F5F7F4F0E940C0EC090CD03A9
:1006F000D090CE037C01F70181917F01882329F0FE
:10070000D601ED91FC910995F6CFC090CD03D09024
:10071000CE0388ECE82E81E0F82EF70181917F016D
:10072000882329F0D601ED91FC910995F6CF0F5F52
:100730001F4F0830110509F098CFF2CE2A960FB658
:10074000F894DEBF0FBECDBFDF91CF911F910F9107
:10075000FF90EF90DF90CF90BF90AF909F907F90F1
:100760006F900895CF93DF93DA011C92EC012881FA
:10077000222351F1203259F02D3049F02A3039F03E
:10078000FB0181939193BF012C912F5F2C93FC016E
:1007900081918823C9F08032D9F7CF010197EC010C
:1007A000188280818D30A1F38A3091F38F7D81F39F
:1007B0008C918F5F8C93883010F01C9205C0EB01F8
:1007C000E993F993BE01E4CFDF91CF910895AF9201
:1007D000BF92CF92DF92EF92FF920F931F93CF932E
:1007E000DF936C015B017A0186E090E00E948C0649
:1007F000EC0107E213E0D8018D919C91009711F074
:100800008C01F9CF84E090E00E948C06F80191837E
:100810008083009739F40091CD031091CE03C3E992
:10082000D1E013C0DC011396DC93CE93129720978E
:1008300091F3B982A882DB82CA82FD82EC82809128
:100840002B038F5F80932B0308C08991882329F0A5
:10085000D801ED91FC910995F8CFDF91CF911F91CF
:100860000F91FF90EF90DF90CF90BF90AF900895E1
:100870000F931F93CF93DF9310922B0340E050E030
:100880006BE971E085E192E00E94E70340E050E00F
:1008900061EA71E08CE292E00E94E7030091CD03EF
:1008A0001091CE03C5EAD1E08991882329F0D801BF
:1008B000ED91FC910995F8CFDF91CF911F910F91A8
:1008C00008959093CE038093CD0329EE35E0FC018B
:1008D000358324830C943804CF92DF92FF920F93D8
:1008E0001F93CF93DF938C01F62E611107C0009107
:1008F000CD031091CE03C5EAD1E030C0C0912703EB
:10090000D0912803D8018C9111969C91209771F178
:10091000CA80DB80D6016D917C910E94D40D892B19
:10092000C9F4F601848195819093CC038093CB0325
:10093000FA940E5F1F4FEA81FB810280F381E02D64
:100940006F2DC8010995882391F28091CA038130E7
:1009500091F7CDCF0990D881C02DD4CF899188232C
:1009600009F1D801ED91FC910995F8CF0091CD03E3
:100970001091CE03EC018991882329F0D801ED91E3
:10098000FC910995F8CF0091CD031091CE03CBEAED
:10099000D1E08991882309F4AACFD801ED91FC9187
:1009A0000995F7CFDF91CF911F910F91FF90DF90C5
:1009B000CF90089580912D038823B1F01092CA033F
:1009C0004CE253E06EE273E08EE393E00E94B203E8
:1009D0001092CC031092CB0360912C038EE293E033
:1009E0000E946C0410922D0308956F927F928F9253
:1009F0009F92AF92BF92CF92DF92EF92FF920F93AE
:100A00001F93CF93DF93EC01B62E7A010091270359
:100A1000109128034801A12C8114910489F1FE0151
:100A200001900020E9F73197AF014C1B5D0BD40119
:100A30001296ED91FC91139760817181CE010E9415
:100A4000E40D892B11F4A3946401F401808091805A
:100A5000E3CFFE0101900020E9F73197AF014C1B75
:100A60005D0BD8011296ED91FC9113976081718115
:100A7000CE010E94E40D892B39F0D8010D911C9113
:100A80000115110531F73CC0B1E0BA15B0F78090FF
:100A9000CD039090CE0391EC692E91E0792EF30175
:100AA00081913F01882329F0D401ED91FC910995B2
:100AB000F6CF8090CD039090CE03D8011296ED91A1
:100AC000FC91139760807180F30181913F0188232D
:100AD00029F0D401ED91FC910995F6CF8090CD03DA
:100AE0009090CE0384EC682E81E0782EF301819102
:100AF0003F01882311F2D401ED91FC910995F6CFC5
:100B0000AA2009F457C0B1E0AB1228C06B2D70E0E9
:100B1000AB0142505109D6011296ED91FC91139709
:100B200060817181CE010E94F20DC090CD03D09002
:100B3000CE03F70100811181F80181918F01882393
:100B400029F0D601ED91FC910995F6CF099000208E
:100B5000E9F72197D701CD93DC932CC0E090CD032A
:100B6000F090CE0308EC11E0F80181918F01882309
:100B700029F0D701ED91FC910995F6CFE090CD03D6
:100B8000F090CE0305EA11E0F80181918F018823EE
:100B900029F0D701ED91FC910995F6CF0091CD0395
:100BA0001091CE038991882329F0D801ED91FC9111
:100BB0000995F8CFDF91CF911F910F91FF90EF90A2
:100BC000DF90CF90BF90AF909F908F907F906F906D
:100BD00008950F931F93CF93DF93C82F809126031F
:100BE000833271F4C33661F481E08093CA038EE3EB
:100BF00093E0909301018093000166EC71E022C0C4
:100C000080912D03813051F4E091CB03F091CC031E
:100C1000309709F44CC08C2F099549C0E091000130
:100C2000F0910101CD3011F0CA3089F410828EE3C9
:100C300093E0909301018093000181E080932D0364
:100C400068EC71E080E293E00E94DD0D43C0C830A3
:100C500011F0CF37D9F483E0EE33F807A1F098F024
:100C60003197F0930101E09300010091CD031091C1
:100C7000CE03CBECD1E089918823E1F1D801ED914D
:100C8000FC910995F8CF6EEC71E0DCCFB3E0E8376A
:100C9000FB0718F06FEC71E0D5CFC93059F4108222
:100CA00040E051E06CE38EE393E00E94F504109283
:100CB000200310C0C032D8F3C0838091000190910E
:100CC000010101969093010180930001C0932003DC
:100CD00010922103C09326030091CD031091CE03FF
:100CE000C0E2D3E08991882329F0D801ED91FC91ED
:100CF0000995F8CFDF91CF911F910F9108959093AF
:100D00007F0380937E0370937D0360937C039093B5
:100D10007B0380937A03089520917A0330917B03BB
:100D2000820F931F60917E0370917F0340917C033B
:100D300050917D03460F571F8417950730F4909309
:100D40007B0380937A03C901089580E090E00895C1
:100D5000BC0189E09DE30E94640B9B01CB016FEF16
:100D600070E00E94640B6115710519F060938003B7
:100D700003C081E0809380032F3F310510F08FEF97
:100D800004C02115310521F481E08093B30008955A
:100D90002093B30008950E94A806E0EBF0E0808164
:100DA00082608083E0E7F0E0808182608083E1EB15
:100DB000F0E08081876080830895809181038111B4
:100DC000FCCF809180038093810308951F920F923E
:100DD0000FB60F9211248F9380918103882329F0FD
:100DE000809181038150809381038F910F900FBE7A
:100DF0000F901F901895EF92FF920F931F93CF9330
:100E0000DF93CDB7DEB72A970FB6F894DEBF0FBEDB
:100E1000CDBF40938B0370938A03609389039093B3
:100E20008803809387032FE737E03093D003209324
:100E3000CF031092D2031092D1031092D4031092D8
:100E4000D30340918B03DC01EC9121E030E0D90128
:100E500002C0AA0FBB1F4A95E2F7AD014E2BFC0161
:100E6000408390918B03DB018C9101C0220F9A95F6
:100E7000EAF7282B2C9385B5826085BD80916E00A2
:100E8000826080936E0080ED87BDE090CD03F0908E
:100E9000CE0305ED11E0F80181918F01882329F03F
:100EA000D701ED91FC910995F6CF4AE050E0BE01E3
:100EB0006F5F7F4F80ED90E00E94010EE090CD03C8
:100EC000F090CE038C01F80181918F01882329F0E5
:100ED000D701ED91FC910995F6CF2A960FB6F894BB
:100EE000DEBF0FBECDBFDF91CF911F910F91FF905D
:100EF000EF900895809182038130E1F30895CF93BC
:100F0000DF931F92CDB7DEB789830E947A0791E005
:100F100090938203898190E0909386038093850368
:100F200080918503909186039360909386038093CC
:100F3000850381E090E0909384038093830316BC43
:100F400025B5226025BD30918B03E0918703F09198
:100F50008803208102C0880F991F3A95E2F7809597
:100F60009095822380830F90DF91CF9108951F92F7
:100F70000F920FB60F9211242F933F938F939F934D
:100F8000EF93FF93809185039091860320918303D3
:100F90003091840382239323E0918703F0918803A7
:100FA00030918B032081892B41F081E090E001C0DA
:100FB000880F3A95EAF7822B0AC081E090E002C0E0
:100FC000880F991F3A95E2F7809590958223808348
:100FD0008091830390918403880F991F90938403D9
:100FE00080938303809183039091840391FF05C0D4
:100FF00085B58D7F85BD10928203FF91EF919F9102
:101000008F913F912F910F900FBE0F901F901895C9
:10101000F999FECF8AE090E00C94590EF999FECF31
:10102000FC01808191810E94B60D682F8AE090E0DA
:101030000E946B0E80E00895F999FECFFC0180813B
:1010400091810E94B60D019624E6289FB001299F48
:10105000700D112448E350E08CE893E00E94610E8B
:1010600080E00895F999FECFFC01808191810E9472
:10107000B60D019624E6289FB001299F700D11241A
:1010800048E350E08CE893E00E94490E80E0089528
:10109000F999FECF0E94080890E0019624E6289F67
:1010A000B001299F700D112448E350E08CE893E0D3
:1010B0000C94490EECE8F3E021E02083218784EFD3
:1010C00091E09683858390878783228792838183AB
:1010D00032E03687278B948B838B968B858B208F82
:1010E000908B878733E0348F15A292A381A394A3BA
:1010F00083A326A3968F858F34E032A723AB90ABD2
:1011000087A792AB81AB14AA94A783A780E0089528
:10111000EF92FF920F931F93CF93DF93CDB7DEB77C
:101120002A970FB6F894DEBF0FBECDBFE090CD0377
:10113000F090CE0301EE11E0F80181918F01882338
:1011400029F0D701ED91FC910995F6CF4AE0BE0157
:101150006F5F7F4F80919803909199030E940C0ECE
:10116000E090CD03F090CE038C01F80181918F01C6
:10117000882329F0D701ED91FC910995F6CFE090F5
:10118000CD03F090CE0306EE11E0F80181918F01BE
:10119000882329F0D701ED91FC910995F6CF4AE01B
:1011A000BE016F5F7F4F8091A6039091A7030E94BD
:1011B0000C0EE090CD03F090CE038C01F8018191EC
:1011C0008F01882329F0D701ED91FC910995F6CF85
:1011D000E090CD03F090CE030FEE11E0F801819185
:1011E0008F01882329F0D701ED91FC910995F6CF65
:1011F0004AE0BE016F5F7F4F8091B4039091B503C9
:101200000E940C0EE090CD03F090CE038C01F8010B
:1012100081918F01882329F0D701ED91FC910995E7
:10122000F6CFE090CD03F090CE0308EF11E0F80187
:1012300081918F01882329F0D701ED91FC910995C7
:10124000F6CF4AE0BE016F5F7F4F8091C20390915D
:10125000C3030E940C0EE090CD03F090CE038C01EE
:10126000F80181918F01882329F0D701ED91FC913C
:101270000995F6CFE090CD03F090CE0308EC11E095
:10128000F80181918F01882329F0D701ED91FC911C
:101290000995F6CF0E94C60081E02A960FB6F89411
:1012A000DEBF0FBECDBFDF91CF911F910F91FF9099
:1012B000EF900895ECE8F3E081E08387818F87A3C6
:1012C00085AB80E00895ECE8F3E01386118E17A259
:1012D00015AA80E00895FC01808191810E94B60DDD
:1012E000843050F49EE0899FF0011124E457FC4FB4
:1012F000918581E08927818780E008950F931F936E
:10130000CF938C01FC01808191810E94B60DC82F82
:10131000F801828193810E94B60DC43058F49FEF8A
:10132000980F943038F49EE0C99FF0011124E457DF
:10133000FC4F808380E0CF911F910F9108950F9310
:101340001F93CF93DF938C01623071F00091CD0336
:101350001091CE03C1E0D2E089918823E1F0D80159
:10136000ED91FC910995F8CFFC01808191810E945B
:10137000B60DC82F843078F4D80112968D919C91C7
:1013800013970E94B60DBEE0CB9FF0011124E457E5
:10139000FC4F9283818380E0DF91CF911F910F9169
:1013A00008958F929F92AF92BF92CF92DF92EF9269
:1013B000FF920F931F93CF93DF93CDB7DEB72A979A
:1013C0000FB6F894DEBF0FBECDBF07E913E07CE88F
:1013D000C72E73E0D72EE12CF12C8090CD03909096
:1013E000CE036DE1A62E62E0B62EF50181915F017C
:1013F000882329F0D401ED91FC910995F6CF4AE0BC
:10140000BE016F5F7F4FC7010E940C0E8090CD031D
:101410009090CE035C01F50181915F01882329F052
:10142000D401ED91FC910995F6CF8090CD03909079
:10143000CE0353E2A52E52E0B52EF50181915F0156
:10144000882329F0D401ED91FC910995F6CFD601BE
:101450008C914AE0BE016F5F7F4F90E00E940C0EBE
:101460008090CD039090CE035C01F50181915F01E6
:10147000882329F0D401ED91FC910995F6CF809055
:10148000CD039090CE034BE2A42E42E0B42EF501A2
:1014900081915F01882329F0D401ED91FC91099598
:1014A000F6CF4AE0BE016F5F7F4FD60111968D9156
:1014B0009C9112970E940C0E8090CD039090CE03C9
:1014C0005C01F50181915F01882329F0D401ED9140
:1014D000FC910995F6CF8090CD039090CE0335E333
:1014E000A32E32E0B32EF50181915F01882329F00C
:1014F000D401ED91FC910995F6CFF80132978081E6
:101500004AE0BE016F5F7F4F90E00E940C0E80901A
:10151000CD039090CE035C01F50181915F0188239A
:1015200029F0D401ED91FC910995F6CF8090CD037F
:101530009090CE0320E4A22E22E0B22EF5018191FC
:101540005F01882329F0D401ED91FC910995F6CF34
:10155000F801319780814AE0BE016F5F7F4F90E0D4
:101560000E940C0E8090CD039090CE035C01F5019B
:1015700081915F01882329F0D401ED91FC910995B7
:10158000F6CF8090CD039090CE039DE4A92E92E0FB
:10159000B92EF50181915F01882329F0D401ED91E5
:1015A000FC910995F6CFD8018C914AE0BE016F5F9E
:1015B0007F4F90E00E940C0E8090CD039090CE0360
:1015C0005C01F50181915F01882329F0D401ED913F
:1015D000FC910995F6CF8090CD039090CE0381ECDD
:1015E000A82E81E0B82EF50181915F01882329F0B2
:1015F000D401ED91FC910995F6CFFFEFEF1AFF0AA8
:10160000025F1F4F8EE0C80ED11CA4E0EA16F10461
:1016100009F0E3CE80E02A960FB6F894DEBF0FBE45
:10162000CDBFDF91CF911F910F91FF90EF90DF9091
:10163000CF90BF90AF909F908F900895AF92BF9240
:10164000CF92DF92EF92FF921F93CF93DF9300D060
:101650001F92CDB7DEB76C0114E05E0184E0A80EE6
:10166000B11C19821A821B82DE0111967D01D601FE
:10167000ED91FC91D7018D917D010995EA14FB0450
:10168000B0F3115071F70F900F900F90DF91CF9141
:101690001F91FF90EF90DF90CF90BF90AF90089593
:1016A00068EC70E088E592E00E947F060E94D0011D
:1016B000789484EC93E00E9461040E9453000E949D
:1016C000DA040E94C600FBCFAA1BBB1B51E107C076
:1016D000AA1FBB1FA617B70710F0A61BB70B881FC2
:1016E000991F5A95A9F780959095BC01CD01089551
:1016F0005058BB27AA270E94900B0C940A0D0E94F9
:10170000FC0C38F00E94030D20F039F49F3F19F4CF
:1017100026F40C94F90C0EF4E095E7FB0C94F30C12
:10172000E92F0E941B0D58F3BA176207730784074D
:10173000950720F079F4A6F50C943D0D0EF4E09594
:101740000B2EBA2FA02D0B01B90190010C01CA017B
:10175000A0011124FF27591B99F0593F50F4503E26
:1017600068F11A16F040A22F232F342F4427585F18
:10177000F3CF469537952795A795F0405395C9F730
:101780007EF41F16BA0B620B730B840BBAF09150E8
:10179000A1F0FF0FBB1F661F771F881FC2F70EC087
:1017A000BA0F621F731F841F48F48795779567955A
:1017B000B795F7959E3F08F0B0CF9395880F08F046
:1017C0009927EE0F9795879508950E94CF0C08F4FE
:1017D00081E008950E94FE0B0C940A0D0E94030DF7
:1017E00058F00E94FC0C40F029F45F3F29F00C9463
:1017F000F30C51110C943E0D0C94F90C0E941B0D2E
:1018000068F39923B1F3552391F3951B550BBB272F
:10181000AA2762177307840738F09F5F5F4F220F74
:10182000331F441FAA1FA9F335D00E2E3AF0E0E86B
:1018300032D091505040E695001CCAF72BD0FE2FB5
:1018400029D0660F771F881FBB1F26173707480749
:10185000AB07B0E809F0BB0B802DBF01FF27935801
:101860005F4F3AF09E3F510578F00C94F30C0C94C6
:101870003E0D5F3FE4F3983ED4F3869577956795E8
:10188000B795F7959F5FC9F7880F911D9695879536
:1018900097F90895E1E0660F771F881FBB1F621755
:1018A00073078407BA0720F0621B730B840BBA0B13
:1018B000EE1F88F7E09508950E94630C6894B111BB
:1018C0000C943E0D08950E94230D88F09F5798F0C8
:1018D000B92F9927B751B0F0E1F0660F771F881F35
:1018E000991F1AF0BA95C9F714C0B13091F00E944F
:1018F0003D0DB1E008950C943D0D672F782F88279A
:10190000B85F39F0B93FCCF3869577956795B39575
:10191000D9F73EF490958095709561957F4F8F4FE4
:101920009F4F0895E89409C097FB3EF490958095E9
:10193000709561957F4F8F4F9F4F9923A9F0F92F95
:1019400096E9BB279395F695879577956795B79513
:10195000F111F8CFFAF4BB0F11F460FF1BC06F5FF9
:101960007F4F8F4F9F4F16C0882311F096E911C00B
:10197000772321F09EE8872F762F05C0662371F02C
:1019800096E8862F70E060E02AF09A95660F771F40
:10199000881FDAF7880F9695879597F90895990F1C
:1019A0000008550FAA0BE0E8FEEF16161706E80729
:1019B000F907C0F012161306E407F50798F0621B4A
:1019C000730B840B950B39F40A2661F0232B242B1F
:1019D000252B21F408950A2609F4A140A6958FEF3E
:1019E000811D811D089597F99F6780E870E060E090
:1019F00008959FEF80EC089500240A9416161706A8
:101A000018060906089500240A94121613061406EF
:101A100005060895092E0394000C11F4882352F052
:101A2000BB0F40F4BF2B11F460FF04C06F5F7F4F0A
:101A30008F4F9F4F089557FD9058440F551F59F0F1
:101A40005F3F71F04795880F97FB991F61F09F3FAB
:101A500079F087950895121613061406551FF2CFD4
:101A60004695F1DF08C0161617061806991FF1CF24
:101A700086957105610508940895E894BB2766274B
:101A80007727CB0197F908950E94CF0C08F48FEFC8
:101A900008950E945C0D0C940A0D0E94FC0C38F015
:101AA0000E94030D20F0952311F00C94F30C0C947C
:101AB000F90C11240C943E0D0E941B0D70F3959FA0
:101AC000C1F3950F50E0551F629FF001729FBB2735
:101AD000F00DB11D639FAA27F00DB11DAA1F649FD1
:101AE0006627B00DA11D661F829F2227B00DA11D84
:101AF000621F739FB00DA11D621F839FA00D611D0A
:101B0000221F749F3327A00D611D231F849F600D2A
:101B1000211D822F762F6A2F11249F5750409AF053
:101B2000F1F088234AF0EE0FFF1FBB1F661F771FDF
:101B3000881F91505040A9F79E3F510580F00C94AA
:101B4000F30C0C943E0D5F3FE4F3983ED4F386957E
:101B500077956795B795F795E7959F5FC1F7FE2B4A
:101B6000880F911D9695879597F90895FC01882710
:101B70009927E89421912032E9F3293010F02E3092
:101B8000C8F32B3241F02D3239F4689404C00E941E
:101B9000170E820F911D219120532A30C0F31EF49D
:101BA000909581959F4F0895FB01DC018D910190E7
:101BB00080190110D9F3990B0895FB01DC01019004
:101BC0000D920020E1F70895FB01DC0141505040E7
:101BD00030F08D910190801919F40020B9F7881B1D
:101BE000990B0895FB01DC014150504048F00190F1
:101BF0000D920020C9F701C01D9241505040E0F7FE
:101C000008954532510520F4423010F00C940C0E2A
:101C1000FB011082CB010895BB274A3031F4992390
:101C200022F4BDE2909581959F4F0C94200E7AE0AE
:101C3000979F902D879F802D910D11240895BB278C
:101C4000FB015527AA27880F991FAA1FA41710F078
:101C5000A41B83955051B9F7A05DAA3308F0A95D84
:101C6000A193009779F7B111B1931192CB010C9424
:101C7000390EDC01FC01672F71917723E1F7329770
:101C800004C07C916D9370836291AE17BF07C8F357
:101C90000895DC01CB01FC01F999FECF06C0F2BD2D
:101CA000E1BDF89A319600B40D9241505040B8F71A
:101CB0000895F999FECF92BD81BDF89A992780B514
:101CC0000895DC01CB0103C02D910E946C0E4150A0
:101CD0005040D0F70895262FF999FECF1FBA92BD34
:101CE00081BD20BD0FB6F894FA9AF99A0FBE0196FD
:061CF0000895F894FFCFF7
:101CF6003E037072696E7400756E6C6F636B5F7312
:101D06007469636B7300696E766572745F73746968
:101D1600636B006C6F61645F70726F6600736176EF
:101D2600655F70726F66007365745F646566617582
:101D36006C745F70726F66006C6F61645F64656679
:101D460061756C7473007365745F70696E0073659A
:101D5600745F7363616C650070001B5B324A1B5BCA
:101D660048002D6800616463204E72207C202D6936
:101D7600207C202D6D20780A0D002D69002D6D0028
:101D8600202000735F6D5F650A0D00636C656172EC
:101D960000616463004156522320003A20636F6D50
:101DA6006D616E64206E6F7420666F756E640A0DC9
:101DB600000D0A0009005E630A0D00082008006293
:101DC6006F660A0D002323232323232323232323A0
:101DD6000063303A20002020200963313A20002099
:101DE60020200963323A20002020200963333A205C
:101DF600004552524F522075736520737469636BA8
:101E06002069207363616C65206A0A0D000A0D6300
:101E16003A20000A0D70696E3A20000A0D7363615C
:101E26006C653A20000A0D696E766572743A200078
:101E36000A0D6D6964206E756C6C3A20000A0D6C93
:081E46006F636B65643A200034
:00000001FF
