:100000000C9434000C9451000C9451000C94510049
:100010000C9451000C9451000C9451000C9451001C
:100020000C9451000C9451000C9451000C9451000C
:100030000C9451000C9451000C9451000C945100FC
:100040000C9451000C9451000C9448020C945100F3
:100050000C9451000C9451000C9451000C945100DC
:100060000C9451000C94510011241FBECFEFD8E026
:10007000DEBFCDBF11E0A0E0B1E0E4ECF3E102C0EF
:1000800005900D92AA39B107D9F722E0AAE9B1E0AB
:1000900001C01D92A736B207E1F70E9406070C9433
:1000A000E0090C94000040E050E062E071E08EE472
:1000B00091E00E944504ECE2F2E021E020832783F6
:1000C00084EF91E0948383839683858341E050E0BD
:1000D0005187408732E03487238B908B8787928BC0
:1000E000818B558B448B33E0308F178E948F838FA9
:1000F000968F858F51A340A334E034A323A790A704
:1001000087A392A781A715A614A6ECE7F0E080814B
:1001100080648083EAE7F0E08081876880830895C7
:100120006F927F928F929F92AF92BF92CF92DF9207
:10013000EF92FF920F931F93CF93DF93CCE2D2E025
:10014000FE0190819830A0F480917C00807F892B03
:1001500080937C0080917A00806480937A00809103
:100160007A0086FDFCCF809178009091790002C0E2
:100170008FEF9FEF258136818217930710F49683C6
:100180008583238134812817390710F4948383836E
:10019000928381833C9682E0EC35F80791F6698181
:1001A0007A8180E090E00E9434086B017C010B8131
:1001B0001C81B80180E090E00E9434084B015C0192
:1001C0009B01AC01B601C7010E94E608181614F4A1
:1001D00064017501AD80BE80B50180E090E00E94B1
:1001E00034083B014C019B01AC01B601C7010E94E0
:1001F000870787FF02C0630174019301A401B60160
:10020000C7010E941A076B017C01C8018A199B096A
:10021000BC0180E090E00E9434089B01AC01C70162
:10022000B6010E948C072F81222379F020E030E074
:100230004AEF53E40E94EB089B01AC0160E070E0E0
:100240008AEF93E40E941A0706C020E030E04AEFEC
:1002500053E40E94EB080E94FE077B876A8788852B
:100260009985892B31F08A859B858A5F91099B87C7
:100270008A872C9682E0CC35D80709F090CFDF91A1
:10028000CF911F910F91FF90EF90DF90CF90BF9093
:10029000AF909F908F907F906F900895EF92FF9214
:1002A0000F931F93CF93DF93CDB7DEB72A970FB687
:1002B000F894DEBF0FBECDBFE0906502F0906602FD
:1002C00008E011E0F80181918F01882329F0D7011E
:1002D000ED91FC910995F6CF4AE0BE016F5F7F4F2B
:1002E00080913602909137020E94A309E090650246
:1002F000F09066028C01F80181918F01882329F02A
:10030000D701ED91FC910995F6CFE0906502F09050
:1003100066020DE011E0F80181918F01882329F038
:10032000D701ED91FC910995F6CF4AE0BE016F5FD0
:100330007F4F80914202909143020E94A309E09076
:100340006502F09066028C01F80181918F0188238B
:1003500029F0D701ED91FC910995F6CFE090650267
:10036000F090660206E111E0F80181918F01882387
:1003700029F0D701ED91FC910995F6CF4AE0BE0135
:100380006F5F7F4F80914E0290914F020E94A309B0
:10039000E0906502F09066028C01F80181918F0176
:1003A000882329F0D701ED91FC910995F6CFE090D3
:1003B0006502F09066020FE111E0F80181918F0172
:1003C000882329F0D701ED91FC910995F6CF4AE0F9
:1003D000BE016F5F7F4F80915A0290915B020E9435
:1003E000A309E0906502F09066028C01F80181910A
:1003F0008F01882329F0D701ED91FC910995F6CF63
:10040000E0906502F09066020CE811E0F80181913D
:100410008F01882329F0D701ED91FC910995F6CF42
:100420000E94900081E02A960FB6F894DEBF0FBEBE
:10043000CDBFDF91CF911F910F91FF90EF90089565
:100440009091C00095FFFCCF8093C60008958091E5
:10045000C00087FFFCCF8091C60008951092C500B0
:1004600087E68093C40086E08093C200E1ECF0E070
:10047000808188698083ECE5F2E080E292E09183FC
:10048000808387E292E093838283158214820895A9
:100490001F920F920FB60F9211242F933F934F93F9
:1004A0005F936F937F938F939F93AF93BF93EF93DC
:1004B000FF93E0916002F0916102309719F0809112
:1004C000C6000995FF91EF91BF91AF919F918F91D8
:1004D0007F916F915F914F913F912F910F900FBE40
:1004E0000F901F9018950F931F93CF93DF93009158
:1004F000650210916602C8E2D1E08991882329F053
:10050000D801ED91FC910995F8CFDF91CF911F9122
:100510000F9108956F927F929F92AF92BF92CF9268
:10052000DF92EF92FF920F931F93CF93DF93CDB79C
:10053000DEB72A970FB6F894DEBF0FBECDBF8C0191
:10054000962EC62ED12C5C013C01E12CF12CEC1432
:10055000FD0414F542E050E060E371E0D3018D91B9
:100560009D913D010E948609892B21F0BFEFEB1A76
:10057000FB0AEDCFE7FC10C0E0906502F090660248
:1005800003E311E0F80181918F01882339F1D7014C
:10059000ED91FC910995F6CF3801E12CF12CEC148A
:1005A000FD04F4F442E050E068E471E0D3018D9181
:1005B0009D913D010E948609892B21F0BFEFEB1A26
:1005C000FB0AEDCFE7FC0CC080917C008064809337
:1005D0007C0080917A00876880937A0080E00CC16B
:1005E000E12CF12CEC14FD040CF099C0C70102962B
:1005F000C816D9060CF493C042E050E06BE471E0F9
:10060000F501819191915F010E948609892B21F06A
:10061000FFEFEF1AFF0AE6CFE7FC81C0A09065026A
:10062000B09066023EE4C32E31E0D32EF6018191F4
:100630006F01882329F0D501ED91FC910995F6CF42
:10064000FE2D82E0F802000D111D11240E5F1F4FD8
:10065000C0906502D0906602D801ED90FC90F70141
:1006600081917F01882329F0D601ED91FC910995B4
:10067000F6CFC0906502D090660224E5E22E21E01C
:10068000F22EF70181917F01882329F0D601ED91A7
:10069000FC910995F6CFD8018D919C910E94580943
:1006A0008830A0F490917C00907F892B80937C000F
:1006B00080917A00806480937A0080917A0086FD30
:1006C000FCCF809178009091790002C08FEF9FEF6E
:1006D0004AE0BE016F5F7F4F0E94A309E090650270
:1006E000F09066028C01F80181918F01882329F036
:1006F000D701ED91FC910995F6CFE0906502F0905D
:1007000066020CE811E0F80181918F01882329F03D
:10071000D701ED91FC910995F6CF81E06DC0911064
:100720005DCF00E010E04AE0BE016F5F7F4FC8017F
:100730000E94A309C0906502D09066027C01F70177
:1007400081917F01882329F0D601ED91FC910995D3
:10075000F6CFC0906502D090660294E5E92E91E054
:10076000F92EF70181917F01882329F0D601ED91BF
:10077000FC910995F6CF80917C00807F802B80933F
:100780007C0080917A00806480937A0080917A0066
:1007900086FDFCCF80917800909179004AE0BE01FF
:1007A0006F5F7F4F0E94A309C0906502D0906602E0
:1007B0007C01F70181917F01882329F0D601ED9119
:1007C000FC910995F6CFC0906502D09066028CE846
:1007D000E82E81E0F82EF70181917F01882329F02E
:1007E000D601ED91FC910995F6CF0F5F1F4F0830B0
:1007F000110509F098CFF2CE2A960FB6F894DEBF15
:100800000FBECDBFDF91CF911F910F91FF90EF9061
:10081000DF90CF90BF90AF909F907F906F900895A2
:10082000CF93DF93DA011C92EC012881222351F14E
:10083000203259F02D3049F02A3039F0FB018193F4
:100840009193BF012C912F5F2C93FC018191882300
:10085000C9F08032D9F7CF010197EC01188280816D
:100860008D30A1F38A3091F38F7D81F38C918F5F6E
:100870008C93883010F01C9205C0EB01E993F9933A
:10088000BE01E4CFDF91CF910895AF92BF92CF9296
:10089000DF92EF92FF920F931F93CF93DF936C0140
:1008A0005B017A0186E090E00E94EA06EC0103ED2C
:1008B00011E0D8018D919C91009711F08C01F9CF36
:1008C00084E090E00E94EA06F8019183808300971B
:1008D00039F40091650210916602C7E5D1E013C0BA
:1008E000DC011396DC93CE931297209791F3B98293
:1008F000A882DB82CA82FD82EC828091D7018F5F61
:100900008093D70108C08991882329F0D801ED91FF
:10091000FC910995F8CFDF91CF911F910F91FF9036
:10092000EF90DF90CF90BF90AF9008950F931F93FB
:10093000CF93DF931092D70140E050E06FE571E074
:1009400083E792E00E94450440E050E065E671E0F4
:100950008AE892E00E9445040091650210916602C7
:10096000C9E6D1E08991882329F0D801ED91FC9165
:100970000995F8CFDF91CF911F910F910895909332
:1009800066028093650227E436E0FC013583248308
:100990000C949604CF92DF92FF920F931F93CF9304
:1009A000DF938C01F62E611107C000916502109152
:1009B0006602C9E6D1E030C0C091D301D091D40124
:1009C000D8018C9111969C91209771F1CA80DB809F
:1009D000D6016D917C910E947609892BC9F4F601AC
:1009E000848195819093640280936302FA940E5FF0
:1009F0001F4FEA81FB810280F381E02D6F2DC8013A
:100A00000995882391F280916202813091F7CDCFD0
:100A10000990D881C02DD4CF8991882309F1D801BC
:100A2000ED91FC910995F8CF009165021091660255
:100A3000EC018991882329F0D801ED91FC91099569
:100A4000F8CF0091650210916602CFE6D1E089915E
:100A5000882309F4AACFD801ED91FC910995F7CF2D
:100A6000DF91CF911F910F91FF90DF90CF9008956C
:100A70008091D9018823B1F01092620248ED51E0D3
:100A80006AED71E08AEE91E00E9410041092640217
:100A9000109263026091D8018AED91E00E94CA042D
:100AA0001092D90108956F927F928F929F92AF9288
:100AB000BF92CF92DF92EF92FF920F931F93CF934B
:100AC000DF93EC01B62E7A010091D3011091D4018D
:100AD0004801A12C8114910489F1FE0101900020AC
:100AE000E9F73197AF014C1B5D0BD4011296ED91E4
:100AF000FC91139760817181CE010E948609892B38
:100B000011F4A3946401F40180809180E3CFFE018D
:100B100001900020E9F73197AF014C1B5D0BD80124
:100B20001296ED91FC91139760817181CE010E9424
:100B30008609892B39F0D8010D911C9101151105F9
:100B400031F73CC0B1E0BA15B0F7809065029090E3
:100B5000660295E8692E91E0792EF30181913F01BB
:100B6000882329F0D401ED91FC910995F6CF80906E
:100B7000650290906602D8011296ED91FC91139750
:100B800060807180F30181913F01882329F0D401B5
:100B9000ED91FC910995F6CF8090650290906602E8
:100BA00088E8682E81E0782EF30181913F01882347
:100BB00011F2D401ED91FC910995F6CFAA2009F428
:100BC00057C0B1E0AB1228C06B2D70E0AB014250B2
:100BD0005109D6011296ED91FC91139760817181B4
:100BE000CE010E949409C0906502D0906602F70180
:100BF00000811181F80181918F01882329F0D601AC
:100C0000ED91FC910995F6CF09900020E9F7219725
:100C1000D701CD93DC932CC0E0906502F090660282
:100C20000CE811E0F80181918F01882329F0D701A8
:100C3000ED91FC910995F6CFE0906502F090660287
:100C400009E611E0F80181918F01882329F0D7018D
:100C5000ED91FC910995F6CF009165021091660225
:100C60008991882329F0D801ED91FC910995F8CF5D
:100C7000DF91CF911F910F91FF90EF90DF90CF9078
:100C8000BF90AF909F908F907F906F9008950F933B
:100C90001F93CF93DF93C82F8091D201833271F4D9
:100CA000C33661F481E0809362028AEE91E0909312
:100CB0000101809300016AE871E022C08091D901AE
:100CC000813051F4E0916302F0916402309709F4AD
:100CD0004CC08C2F099549C0E0910001F0910101B1
:100CE000CD3011F0CA3089F410828AEE91E09093F1
:100CF00001018093000181E08093D9016CE871E0EB
:100D00008CEC91E00E947F0943C0C83011F0CF37CE
:100D1000D9F481E0EA3EF807A1F098F03197F0931A
:100D20000101E09300010091650210916602CFE895
:100D3000D1E089918823E1F1D801ED91FC910995E9
:100D4000F8CF62E971E0DCCFB2E0E432FB0718F0E3
:100D500063E971E0D5CFC93059F4108240E051E029
:100D60006CE38AEE91E00E9453051092CC0110C012
:100D7000C032D8F3C08380910001909101010196A7
:100D80009093010180930001C093CC011092CD019A
:100D9000C093D2010091650210916602CCECD1E0C3
:100DA0008991882329F0D801ED91FC910995F8CF1C
:100DB000DF91CF911F910F91089590932B02809313
:100DC0002A0270932902609328029093270280934D
:100DD000260208952091260230912702820F931F48
:100DE00060912A0270912B024091280250912902B1
:100DF000460F571F8417950730F49093270280936E
:100E00002602C901089580E090E0089562E370E051
:100E10008AE991E00E94DD060E942E0278948CE51A
:100E200092E00E94BF040E9453000E9438050E9475
:100E30009000FBCF5058BB27AA270E9432070C9482
:100E4000AC080E949E0838F00E94A50820F039F4F2
:100E50009F3F19F426F40C949B080EF4E095E7FBF1
:100E60000C949508E92F0E94BD0858F3BA17620741
:100E700073078407950720F079F4A6F50C94DF0832
:100E80000EF4E0950B2EBA2FA02D0B01B9019001A5
:100E90000C01CA01A0011124FF27591B99F0593FE9
:100EA00050F4503E68F11A16F040A22F232F342F31
:100EB0004427585FF3CF469537952795A795F0407F
:100EC0005395C9F77EF41F16BA0B620B730B840B94
:100ED000BAF09150A1F0FF0FBB1F661F771F881F4C
:100EE000C2F70EC0BA0F621F731F841F48F48795A4
:100EF00077956795B795F7959E3F08F0B0CF939596
:100F0000880F08F09927EE0F9795879508950E940E
:100F1000710808F481E008950E94A0070C94AC08C1
:100F20000E94A50858F00E949E0840F029F45F3FF7
:100F300029F00C94950851110C94E0080C949B082E
:100F40000E94BD0868F39923B1F3552391F3951BD3
:100F5000550BBB27AA2762177307840738F09F5FDA
:100F60005F4F220F331F441FAA1FA9F335D00E2E47
:100F70003AF0E0E832D091505040E695001CCAF7B4
:100F80002BD0FE2F29D0660F771F881FBB1F261777
:100F900037074807AB07B0E809F0BB0B802DBF014E
:100FA000FF2793585F4F3AF09E3F510578F00C941D
:100FB00095080C94E0085F3FE4F3983ED4F38695DF
:100FC00077956795B795F7959F5FC9F7880F911D3E
:100FD0009695879597F90895E1E0660F771F881F2A
:100FE000BB1F621773078407BA0720F0621B730BDD
:100FF000840BBA0BEE1F88F7E09508950E94050850
:101000006894B1110C94E00808950E94C50888F016
:101010009F5798F0B92F9927B751B0F0E1F0660FBC
:10102000771F881F991F1AF0BA95C9F714C0B130FD
:1010300091F00E94DF08B1E008950C94DF08672F5B
:10104000782F8827B85F39F0B93FCCF3869577952C
:101050006795B395D9F73EF4909580957095619515
:101060007F4F8F4F9F4F0895E89409C097FB3EF440
:1010700090958095709561957F4F8F4F9F4F9923E5
:10108000A9F0F92F96E9BB279395F6958795779563
:101090006795B795F111F8CFFAF4BB0F11F460FF23
:1010A0001BC06F5F7F4F8F4F9F4F16C0882311F07B
:1010B00096E911C0772321F09EE8872F762F05C08F
:1010C000662371F096E8862F70E060E02AF09A952A
:1010D000660F771F881FDAF7880F9695879597F91F
:1010E0000895990F0008550FAA0BE0E8FEEF1616B9
:1010F0001706E807F907C0F012161306E407F5070C
:1011000098F0621B730B840B950B39F40A2661F07F
:10111000232B242B252B21F408950A2609F4A14022
:10112000A6958FEF811D811D089597F99F6780E82F
:1011300070E060E008959FEF80EC089500240A9429
:101140001616170618060906089500240A941216A2
:101150001306140605060895092E0394000C11F4D5
:10116000882352F0BB0F40F4BF2B11F460FF04C082
:101170006F5F7F4F8F4F9F4F089557FD9058440FDB
:10118000551F59F05F3F71F04795880F97FB991FE6
:1011900061F09F3F79F087950895121613061406A3
:1011A000551FF2CF4695F1DF08C016161706180630
:1011B000991FF1CF86957105610508940895E8940B
:1011C000BB2766277727CB0197F908950E947108FE
:1011D00008F48FEF08950E94FE080C94AC080E945A
:1011E0009E0838F00E94A50820F0952311F00C9479
:1011F00095080C949B0811240C94E0080E94BD08EB
:1012000070F3959FC1F3950F50E0551F629FF00159
:10121000729FBB27F00DB11D639FAA27F00DB11D72
:10122000AA1F649F6627B00DA11D661F829F2227FB
:10123000B00DA11D621F739FB00DA11D621F839F82
:10124000A00D611D221F749F3327A00D611D231F58
:10125000849F600D211D822F762F6A2F11249F57A6
:1012600050409AF0F1F088234AF0EE0FFF1FBB1FA9
:10127000661F771F881F91505040A9F79E3F510568
:1012800080F00C9495080C94E0085F3FE4F3983EDE
:10129000D4F3869577956795B795F795E7959F5F12
:1012A000C1F7FE2B880F911D9695879597F90895A4
:1012B000FC0188279927E89421912032E9F329300D
:1012C00010F02E30C8F32B3241F02D3239F46894EF
:1012D00004C00E94AE09820F911D219120532A3033
:1012E000C0F31EF4909581959F4F0895FB01DC019A
:1012F0008D91019080190110D9F3990B0895FB018C
:10130000DC0101900D920020E1F70895FB01DC0162
:101310004150504030F08D910190801919F4002017
:10132000B9F7881B990B0895FB01DC01415050402F
:1013300048F001900D920020C9F701C01D92415064
:101340005040E0F70895BB274A3031F4992322F446
:10135000BDE2909581959F4F0C94B7097AE0979FD5
:10136000902D879F802D910D11240895BB27FB019F
:101370005527AA27880F991FAA1FA41710F0A41B8E
:1013800083955051B9F7A05DAA3308F0A95DA193E8
:10139000009779F7B111B1931192CB010C94D00958
:1013A000DC01FC01672F71917723E1F7329704C0CC
:1013B0007C916D9370836291AE17BF07C8F3089557
:0413C000F894FFCFCF
:1013C400EA017072696E740063303A2000202020B4
:1013D4000963313A20002020200963323A2000209A
:1013E40020200963333A20001B5B324A1B5B480010
:1013F4002D6800616463204E72207C202D69207C5E
:10140400202D6D20780A0D002D69002D6D00706966
:101414006E3A2000202000735F6D5F650A0D006343
:101424006C65617200616463004156522320003A86
:1014340020636F6D6D616E64206E6F7420666F75CE
:101444006E640A0D000D0A0009005E630A0D0008AF
:0A145400200800626F660A0D000018
:00000001FF
