:100000000C9434000C9451000C9451000C94510049
:100010000C9451000C9451000C9451000C9451001C
:100020000C9451000C9451000C9451000C9451000C
:100030000C9451000C9451000C9451000C945100FC
:100040000C9451000C9451000C94DF010C9451005D
:100050000C9451000C9451000C9451000C945100DC
:100060000C9451000C94510011241FBECFEFD8E026
:10007000DEBFCDBF12E0A0E0B1E0EEE6F9E102C0E4
:1000800005900D92AC34B107D9F723E0ACE4B2E0AF
:1000900001C01D92A73BB207E1F70E94AB090C9487
:1000A000B50C0C94000040E050E062E071E085E1A6
:1000B00097E00E94DC0340E050E06AE071E087EEE8
:1000C00097E00E94DC0340E050E068E071E080EFE0
:1000D00097E00E94DC0340E050E066E171E088EFC9
:1000E00097E00E94DC0340E050E063E271E087ECBF
:1000F00096E00E94DC0340E050E06DE271E081EBAD
:1001000096E00E94DC0340E050E067E371E083EAA0
:1001100096E00E94DC0340E050E068E471E08FEE7E
:1001200096E00E94DC0340E050E066E571E08BE081
:1001300098E00E94DC0340E050E06EE571E08CE264
:1001400098E00E94DC0340E050E068E671E08EE554
:1001500098E00E94DC0364E773E080E090E00E9496
:10016000DD06ECE7F0E0808180648083EAE7F0E080
:1001700080818768808308952F923F924F925F928B
:100180006F927F928F929F92AF92BF92CF92DF92A7
:10019000EF92FF920F931F93CF93DF9300D000D085
:1001A000CDB7DEB794E7292E93E0392EF101908187
:1001B0009830A0F480917C00807F892B80937C0014
:1001C00080917A00806480937A0080917A0086FD25
:1001D000FCCF809178009091790002C08FEF9FEF63
:1001E00094838383238521110EC027813085821754
:1001F000930710F490878783258136812817390764
:1002000010F4968385833E9683E0EC3AF80779F6FE
:10021000E12CF12CF1016381748180E090E00E9477
:10022000D90A4B015C01F10105811681B80180E01A
:1002300090E00E94D90A3B016C019B01AC01B40122
:10024000C5010E948B0B181614F443015601F101ED
:10025000C780D084B60180E090E00E94D90A2B01CB
:100260003C019B01AC01B401C5010E942C0A87FF2F
:1002700002C0420153019201A301B401C5010E94D1
:10028000BF094B015C01B8016C197D0980E090E069
:100290000E94D90A9B01AC01C501B4010E94310A38
:1002A0009B01AC01C7018C589C4F6C01FC018185FE
:1002B000F10101811281B8018823B9F080E090E05A
:1002C00029833A834B835C830E94D90A4B015C01EA
:1002D00029813A814B815C810E94900B9B01AC018A
:1002E000C501B4010E94BF090EC080E090E02983DF
:1002F0003A834B835C830E94D90A29813A814B81DE
:100300005C810E94900B0E94A30AF10175876487AB
:10031000F6018285882349F016950795F1018485B9
:100320009585801B910B95878487FEE0EF0EF11C6D
:100330008EE0280E311C98E3E916F10409F06ACF2B
:100340000F900F900F900F90DF91CF911F910F9111
:10035000FF90EF90DF90CF90BF90AF909F908F90E5
:100360007F906F905F904F903F902F900895909165
:10037000C00095FFFCCF8093C60008958091C00017
:1003800087FFFCCF8091C60008951092C50080E1E0
:100390008093C40086E08093C200E1ECF0E08081AD
:1003A00088698083ECEAF3E087EB91E091838083B6
:1003B0008EEB91E0938382831582148208951F92BD
:1003C0000F920FB60F9211242F933F934F935F9389
:1003D0006F937F938F939F93AF93BF93EF93FF930D
:1003E000E091B003F091B103309719F08091C6000D
:1003F0000995FF91EF91BF91AF919F918F917F915F
:100400006F915F914F913F912F910F900FBE0F9081
:100410001F9018950F931F93CF93DF930091B5030F
:100420001091B603CAE6D1E08991882329F0D8015A
:10043000ED91FC910995F8CFDF91CF911F910F912C
:1004400008956F927F929F92AF92BF92CF92DF9268
:10045000EF92FF920F931F93CF93DF93CDB7DEB749
:100460002A970FB6F894DEBF0FBECDBF8C01962E33
:10047000C62ED12C5C013C01E12CF12CEC14FD04C6
:1004800014F542E050E062E771E0D3018D919D9157
:100490003D010E942B0C892B21F0BFEFEB1AFB0AC8
:1004A000EDCFE7FC10C0E090B503F090B60305E790
:1004B00011E0F80181918F01882339F1D701ED9185
:1004C000FC910995F6CF3801E12CF12CEC14FD04D8
:1004D000F4F442E050E06AE871E0D3018D919D911F
:1004E0003D010E942B0C892B21F0BFEFEB1AFB0A78
:1004F000EDCFE7FC0CC080917C00806480937C0091
:1005000080917A00876880937A0080E00CC1E12CAA
:10051000F12CEC14FD040CF099C0C7010296C8162A
:10052000D9060CF493C042E050E06DE871E0F501AB
:10053000819191915F010E942B0C892B21F0FFEF9B
:10054000EF1AFF0AE6CFE7FC81C0A090B503B09098
:10055000B60339E1C32E32E0D32EF60181916F014B
:10056000882329F0D501ED91FC910995F6CFFE2D58
:1005700082E0F802000D111D11240E5F1F4FC09084
:10058000B503D090B603D801ED90FC90F7018191AE
:100590007F01882329F0D601ED91FC910995F6CFD2
:1005A000C090B503D090B60320E9E22E21E0F22EF0
:1005B000F70181917F01882329F0D601ED91FC910B
:1005C0000995F6CFD8018D919C910E94FD0B883042
:1005D000A0F490917C00907F892B80937C00809187
:1005E0007A00806480937A0080917A0086FDFCCF47
:1005F000809178009091790002C08FEF9FEF4AE0E0
:10060000BE016F5F7F4F0E94480CE090B503F090F1
:10061000B6038C01F80181918F01882329F0D7015D
:10062000ED91FC910995F6CFE090B503F090B603FB
:1006300008EC11E0F80181918F01882329F0D7019E
:10064000ED91FC910995F6CF81E06DC091105DCFE1
:1006500000E010E04AE0BE016F5F7F4FC8010E94DA
:10066000480CC090B503D090B6037C01F70181918E
:100670007F01882329F0D601ED91FC910995F6CFF1
:10068000C090B503D090B60390E9E92E91E0F92E21
:10069000F70181917F01882329F0D601ED91FC912A
:1006A0000995F6CF80917C00807F802B80937C0021
:1006B00080917A00806480937A0080917A0086FD30
:1006C000FCCF80917800909179004AE0BE016F5F85
:1006D0007F4F0E94480CC090B503D090B6037C01B8
:1006E000F70181917F01882329F0D601ED91FC91DA
:1006F0000995F6CFC090B503D090B60388ECE82EEC
:1007000081E0F82EF70181917F01882329F0D6013D
:10071000ED91FC910995F6CF0F5F1F4F0830110541
:1007200009F098CFF2CE2A960FB6F894DEBF0FBE2E
:10073000CDBFDF91CF911F910F91FF90EF90DF9090
:10074000CF90BF90AF909F907F906F900895CF9380
:10075000DF93DA011C92EC012881222351F120322F
:1007600059F02D3049F02A3039F0FB0181939193F3
:10077000BF012C912F5F2C93FC0181918823C9F03C
:100780008032D9F7CF010197EC01188280818D303A
:10079000A1F38A3091F38F7D81F38C918F5F8C93DD
:1007A000883010F01C9205C0EB01E993F993BE016B
:1007B000E4CFDF91CF910895AF92BF92CF92DF92B5
:1007C000EF92FF920F931F93CF93DF936C015B0126
:1007D0007A0186E090E00E948106EC010BE113E0D3
:1007E000D8018D919C91009711F08C01F9CF84E094
:1007F00090E00E948106F80191838083009739F48C
:100800000091B5031091B603C3E9D1E013C0DC0138
:100810001396DC93CE931297209791F3B982A88216
:10082000DB82CA82FD82EC8280911F038F5F8093FE
:100830001F0308C08991882329F0D801ED91FC910C
:100840000995F8CFDF91CF911F910F91FF90EF9015
:10085000DF90CF90BF90AF9008950F931F93CF93E9
:10086000DF9310921F0340E050E06BE971E08AE0F3
:1008700092E00E94DC0340E050E061EA71E081E236
:1008800092E00E94DC030091B5031091B603C5EA23
:10089000D1E08991882329F0D801ED91FC91099547
:1008A000F8CFDF91CF911F910F9108959093B603E8
:1008B0008093B5032EED35E0FC01358324830C9441
:1008C0002D04CF92DF92FF920F931F93CF93DF936C
:1008D0008C01F62E611107C00091B5031091B6038B
:1008E000C5EAD1E030C0C0911B03D0911C03D801F0
:1008F0008C9111969C91209771F1CA80DB80D60172
:100900006D917C910E941B0C892BC9F4F6018481A6
:1009100095819093B4038093B303FA940E5F1F4FB5
:10092000EA81FB810280F381E02D6F2DC8010995DA
:10093000882391F28091B203813091F7CDCF099055
:10094000D881C02DD4CF8991882309F1D801ED91A8
:10095000FC910995F8CF0091B5031091B603EC0115
:100960008991882329F0D801ED91FC910995F8CF60
:100970000091B5031091B603CBEAD1E089918823A9
:1009800009F4AACFD801ED91FC910995F7CFDF9139
:10099000CF911F910F91FF90DF90CF90089580919C
:1009A00021038823B1F01092B20340E253E062E2E7
:1009B00073E082E393E00E94A7031092B4031092C5
:1009C000B3036091200382E293E00E9461041092DD
:1009D000210308956F927F928F929F92AF92BF9260
:1009E000CF92DF92EF92FF920F931F93CF93DF93FB
:1009F000EC01B62E7A0100911B0310911C034801F3
:100A0000A12C8114910489F1FE0101900020E9F7E5
:100A10003197AF014C1B5D0BD4011296ED91FC9107
:100A2000139760817181CE010E942B0C892B11F4E8
:100A3000A3946401F40180809180E3CFFE010190D2
:100A40000020E9F73197AF014C1B5D0BD8011296DE
:100A5000ED91FC91139760817181CE010E942B0C66
:100A6000892B39F0D8010D911C910115110531F731
:100A70003CC0B1E0BA15B0F78090B5039090B603D2
:100A800091EC692E91E0792EF30181913F01882349
:100A900029F0D401ED91FC910995F6CF8090B50332
:100AA0009090B603D8011296ED91FC911397608057
:100AB0007180F30181913F01882329F0D401ED91E8
:100AC000FC910995F6CF8090B5039090B60384EC25
:100AD000682E81E0782EF30181913F01882311F285
:100AE000D401ED91FC910995F6CFAA2009F457C0E5
:100AF000B1E0AB1228C06B2D70E0AB014250510940
:100B0000D6011296ED91FC91139760817181CE010F
:100B10000E94390CC090B503D090B603F701008154
:100B20001181F80181918F01882329F0D601ED917F
:100B3000FC910995F6CF09900020E9F72197D7019C
:100B4000CD93DC932CC0E090B503F090B60308EC95
:100B500011E0F80181918F01882329F0D701ED91EF
:100B6000FC910995F6CFE090B503F090B60305EA45
:100B700011E0F80181918F01882329F0D701ED91CF
:100B8000FC910995F6CF0091B5031091B6038991B8
:100B9000882329F0D801ED91FC910995F8CFDF91D8
:100BA000CF911F910F91FF90EF90DF90CF90BF906A
:100BB000AF909F908F907F906F9008950F931F93A9
:100BC000CF93DF93C82F80911A03833271F4C33619
:100BD00061F481E08093B20382E393E0909301019A
:100BE0008093000166EC71E022C080912103813086
:100BF00051F4E091B303F091B403309709F44CC081
:100C00008C2F099549C0E0910001F0910101CD3090
:100C100011F0CA3089F4108282E393E090930101CD
:100C20008093000181E08093210368EC71E084E10E
:100C300093E00E94240C43C0C83011F0CF37D9F4A0
:100C400083E0E233F807A1F098F03197F0930101C7
:100C5000E09300010091B5031091B603CBECD1E015
:100C600089918823E1F1D801ED91FC910995F8CFA4
:100C70006EEC71E0DCCFB3E0EC36FB0718F06FEC04
:100C800071E0D5CFC93059F4108240E051E06CE3F7
:100C900082E393E00E94EA041092140310C0C03271
:100CA000D8F3C08380910001909101010196909347
:100CB000010180930001C093140310921503C093A7
:100CC0001A030091B5031091B603C4E1D3E08991F2
:100CD000882329F0D801ED91FC910995F8CFDF9197
:100CE000CF911F910F910895909373038093720396
:100CF000709371036093700390936F0380936E03FE
:100D0000089520916E0330916F03820F931F6091BD
:100D10007203709173034091700350917103460FF9
:100D2000571F8417950730F490936F0380936E03D9
:100D3000C901089580E090E00895F999FECF8AE016
:100D400090E00C94950CF999FECFFC018081918183
:100D50000E94FD0B682F8AE090E00E94A70C80E0C3
:100D60000895F999FECFFC01808191810E94FD0BCD
:100D7000019624E6289FB001299F700D112448E3B5
:100D800050E084E793E00E949D0C80E00895F9997B
:100D9000FECFFC01808191810E94FD0B019624E62B
:100DA000289FB001299F700D112448E350E084E78B
:100DB00093E00E94850C80E00895F999FECF0E948F
:100DC0009D0690E0019624E6289FB001299F700DB2
:100DD000112448E350E084E793E00C94850CE4E7A9
:100DE000F3E021E02083218784EF91E096838583DF
:100DF00090878783228732E03687278B948B838B7B
:100E0000968B858B208F33E0348F15A292A381A31C
:100E100094A383A326A334E032A723AB90AB87A788
:100E200092AB81AB14AA80E00895EF92FF920F93EA
:100E30001F93CF93DF93CDB7DEB72A970FB6F89401
:100E4000DEBF0FBECDBFE090B503F090B60305ED59
:100E500011E0F80181918F01882329F0D701ED91EC
:100E6000FC910995F6CF4AE0BE016F5F7F4F8091FC
:100E70008003909181030E94480CE090B503F090AC
:100E8000B6038C01F80181918F01882329F0D701E5
:100E9000ED91FC910995F6CFE090B503F090B60383
:100EA0000AED11E0F80181918F01882329F0D70123
:100EB000ED91FC910995F6CF4AE0BE016F5F7F4F3F
:100EC00080918E0390918F030E94480CE090B503AF
:100ED000F090B6038C01F80181918F01882329F0ED
:100EE000D701ED91FC910995F6CFE090B503F09014
:100EF000B60303EE11E0F80181918F01882329F0F8
:100F0000D701ED91FC910995F6CF4AE0BE016F5FE4
:100F10007F4F80919C0390919D030E94480CE0902C
:100F2000B503F090B6038C01F80181918F018823FD
:100F300029F0D701ED91FC910995F6CFE090B5032A
:100F4000F090B6030CEE11E0F80181918F01882337
:100F500029F0D701ED91FC910995F6CF4AE0BE0149
:100F60006F5F7F4F8091AA039091AB030E94480C62
:100F7000E090B503F090B6038C01F80181918F01E8
:100F8000882329F0D701ED91FC910995F6CFE090E7
:100F9000B503F090B60308EC11E0F80181918F01E0
:100FA000882329F0D701ED91FC910995F6CF0E9495
:100FB000BC0081E02A960FB6F894DEBF0FBECDBF0D
:100FC000DF91CF911F910F91FF90EF900895E4E78B
:100FD000F3E081E08387818F87A385AB80E008956C
:100FE000E4E7F3E01386118E17A215AA80E00895B6
:100FF000FC01808191810E94FD0B843050F49EE0C1
:10100000899FF0011124EC58FC4F918581E08927DC
:10101000818780E008950F931F93CF938C01FC018B
:10102000808191810E94FD0BC82FF80182819381FC
:101030000E94FD0BC43058F49FEF980F943038F4A1
:101040009EE0C99FF0011124EC58FC4F808380E0A2
:10105000CF911F910F9108950F931F93CF93DF931B
:101060008C01623071F00091B5031091B603C5EFA9
:10107000D1E089918823E1F0D801ED91FC910995A7
:10108000F8CFFC01808191810E94FD0BC82F843034
:1010900078F4D80112968D919C9113970E94FD0BC4
:1010A000BEE0CB9FF0011124EC58FC4F928381836A
:1010B00080E0DF91CF911F910F9108958F929F92C1
:1010C000AF92BF92CF92DF92EF92FF920F931F9356
:1010D000CF93DF93CDB7DEB72A970FB6F894DEBF74
:1010E0000FBECDBF0FE713E074E7C72E73E0D72E16
:1010F000E12CF12C8090B5039090B60361E1A62E0F
:1011000062E0B62EF50181915F01882329F0D401B8
:10111000ED91FC910995F6CF4AE0BE016F5F7F4FDC
:10112000C7010E94480C8090B5039090B6035C0103
:10113000F50181915F01882329F0D401ED91FC91A3
:101140000995F6CF8090B5039090B60357E1A52E90
:1011500052E0B52EF50181915F01882329F0D40179
:10116000ED91FC910995F6CFD6018C914AE0BE0134
:101170006F5F7F4F90E00E94480C8090B503909085
:10118000B6035C01F50181915F01882329F0D40148
:10119000ED91FC910995F6CF8090B5039090B60340
:1011A0004FE1A42E42E0B42EF50181915F01882326
:1011B00029F0D401ED91FC910995F6CF4AE0BE01EA
:1011C0006F5F7F4FD60111968D919C9112970E946F
:1011D000480C8090B5039090B6035C01F5018191B5
:1011E0005F01882329F0D401ED91FC910995F6CF98
:1011F0008090B5039090B60339E2A32E32E0B32E6F
:10120000F50181915F01882329F0D401ED91FC91D2
:101210000995F6CFF801329780814AE0BE016F5FF1
:101220007F4F90E00E94480C8090B5039090B603E9
:101230005C01F50181915F01882329F0D401ED91D2
:10124000FC910995F6CF8090B5039090B60324E306
:10125000A22E22E0B22EF50181915F01882329F0B0
:10126000D401ED91FC910995F6CFF8013197808179
:101270004AE0BE016F5F7F4F90E00E94480C809073
:10128000B5039090B6035C01F50181915F0188235D
:1012900029F0D401ED91FC910995F6CF8090B5032A
:1012A0009090B60391E4A92E92E0B92EF5018191B8
:1012B0005F01882329F0D401ED91FC910995F6CFC7
:1012C000D8018C914AE0BE016F5F7F4F90E00E9491
:1012D000480C8090B5039090B6035C01F5018191B4
:1012E0005F01882329F0D401ED91FC910995F6CF97
:1012F0008090B5039090B60381ECA82E81E0B82EC3
:10130000F50181915F01882329F0D401ED91FC91D1
:101310000995F6CFFFEFEF1AFF0A025F1F4F8EE02D
:10132000C80ED11CA4E0EA16F10409F0E3CE80E077
:101330002A960FB6F894DEBF0FBECDBFDF91CF91D6
:101340001F910F91FF90EF90DF90CF90BF90AF90E3
:101350009F908F90089568EC70E08CE492E00E947A
:1013600074060E94C50178948CEA93E00E945604AA
:101370000E9453000E94CF040E94BC00FBCF505833
:10138000BB27AA270E94D7090C94510B0E94430B3C
:1013900038F00E944A0B20F039F49F3F19F426F4EC
:1013A0000C94400B0EF4E095E7FB0C943A0BE92FFC
:1013B0000E94620B58F3BA176207730784079507F8
:1013C00020F079F4A6F50C94840B0EF4E0950B2E26
:1013D000BA2FA02D0B01B90190010C01CA01A00187
:1013E0001124FF27591B99F0593F50F4503E68F1E2
:1013F0001A16F040A22F232F342F4427585FF3CF23
:10140000469537952795A795F0405395C9F77EF4F3
:101410001F16BA0B620B730B840BBAF09150A1F03C
:10142000FF0FBB1F661F771F881FC2F70EC0BA0FC2
:10143000621F731F841F48F4879577956795B7954A
:10144000F7959E3F08F0B0CF9395880F08F0992745
:10145000EE0F9795879508950E94160B08F481E08A
:1014600008950E94450A0C94510B0E944A0B58F0B3
:101470000E94430B40F029F45F3F29F00C943A0B93
:1014800051110C94850B0C94400B0E94620B68F375
:101490009923B1F3552391F3951B550BBB27AA272D
:1014A00062177307840738F09F5F5F4F220F331F67
:1014B000441FAA1FA9F335D00E2E3AF0E0E832D02F
:1014C00091505040E695001CCAF72BD0FE2F29D032
:1014D000660F771F881FBB1F261737074807AB0704
:1014E000B0E809F0BB0B802DBF01FF2793585F4F79
:1014F0003AF09E3F510578F00C943A0B0C94850B12
:101500005F3FE4F3983ED4F3869577956795B7955A
:10151000F7959F5FC9F7880F911D9695879597F965
:101520000895E1E0660F771F881FBB1F62177307DE
:101530008407BA0720F0621B730B840BBA0BEE1FF3
:1015400088F7E09508950E94AA0A6894B1110C9456
:10155000850B08950E946A0B88F09F5798F0B92F69
:101560009927B751B0F0E1F0660F771F881F991FD8
:101570001AF0BA95C9F714C0B13091F00E94840BEB
:10158000B1E008950C94840B672F782F8827B85FFB
:1015900039F0B93FCCF3869577956795B395D9F730
:1015A0003EF490958095709561957F4F8F4F9F4F3A
:1015B0000895E89409C097FB3EF490958095709546
:1015C00061957F4F8F4F9F4F9923A9F0F92F96E98F
:1015D000BB279395F695879577956795B795F11104
:1015E000F8CFFAF4BB0F11F460FF1BC06F5F7F4FA1
:1015F0008F4F9F4F16C0882311F096E911C07723B3
:1016000021F09EE8872F762F05C0662371F096E8BB
:10161000862F70E060E02AF09A95660F771F881F8A
:10162000DAF7880F9695879597F90895990F00082E
:10163000550FAA0BE0E8FEEF16161706E807F907A4
:10164000C0F012161306E407F50798F0621B730B3F
:10165000840B950B39F40A2661F0232B242B252BC0
:1016600021F408950A2609F4A140A6958FEF811D63
:10167000811D089597F99F6780E870E060E0089504
:101680009FEF80EC089500240A941616170618069A
:101690000906089500240A94121613061406050676
:1016A0000895092E0394000C11F4882352F0BB0F07
:1016B00040F4BF2B11F460FF04C06F5F7F4F8F4F6A
:1016C0009F4F089557FD9058440F551F59F05F3FA5
:1016D00071F04795880F97FB991F61F09F3F79F054
:1016E00087950895121613061406551FF2CF4695D6
:1016F000F1DF08C0161617061806991FF1CF869558
:101700007105610508940895E894BB27662777273B
:10171000CB0197F908950E94160B08F48FEF0895F6
:101720000E94A30B0C94510B0E94430B38F00E94B3
:101730004A0B20F0952311F00C943A0B0C94400BBB
:1017400011240C94850B0E94620B70F3959FC1F3DA
:10175000950F50E0551F629FF001729FBB27F00D5F
:10176000B11D639FAA27F00DB11DAA1F649F6627B4
:10177000B00DA11D661F829F2227B00DA11D621F03
:10178000739FB00DA11D621F839FA00D611D221FBD
:10179000749F3327A00D611D231F849F600D211DA1
:1017A000822F762F6A2F11249F5750409AF0F1F024
:1017B00088234AF0EE0FFF1FBB1F661F771F881F8D
:1017C00091505040A9F79E3F510580F00C943A0B80
:1017D0000C94850B5F3FE4F3983ED4F386957795A0
:1017E0006795B795F795E7959F5FC1F7FE2B880F33
:1017F000911D9695879597F90895FC01882799275B
:10180000E89421912032E9F3293010F02E30C8F30A
:101810002B3241F02D3239F4689404C00E94530CED
:10182000820F911D219120532A30C0F31EF4909510
:1018300081959F4F0895FB01DC018D9101908019E6
:101840000110D9F3990B0895FB01DC0101900D9271
:101850000020E1F70895FB01DC014150504030F0D9
:101860008D910190801919F40020B9F7881B990B0C
:101870000895FB01DC014150504048F001900D9269
:101880000020C9F701C01D9241505040E0F7089573
:10189000BB274A3031F4992322F4BDE2909581951B
:1018A0009F4F0C945C0C7AE0979F902D879F802D22
:1018B000910D11240895BB27FB015527AA27880FF6
:1018C000991FAA1FA41710F0A41B83955051B9F7B4
:1018D000A05DAA3308F0A95DA193009779F7B11133
:1018E000B1931192CB010C94750CDC01FC01672FB4
:1018F00071917723E1F7329704C07C916D937083E7
:101900006291AE17BF07C8F30895DC01CB01FC015B
:10191000F999FECF06C0F2BDE1BDF89A319600B448
:101920000D9241505040B8F70895F999FECF92BDFD
:1019300081BDF89A992780B50895DC01CB0103C0D9
:101940002D910E94A80C41505040D0F70895262FA9
:10195000F999FECF1FBA92BD81BD20BD0FB6F89494
:0E196000FA9AF99A0FBE01960895F894FFCFF7
:10196E0032037072696E7400756E6C6F636B5F73A9
:10197E007469636B7300696E766572745F737469F4
:10198E00636B006C6F61645F70726F66007361767B
:10199E00655F70726F66007365745F64656661750E
:1019AE006C745F70726F66006C6F61645F64656605
:1019BE0061756C7473007365745F70696E00736526
:1019CE00745F7363616C650070001B5B324A1B5B56
:1019DE0048002D6800616463204E72207C202D69C2
:1019EE00207C202D6D20780A0D002D69002D6D00B4
:1019FE00202000735F6D5F650A0D00636C65617278
:101A0E0000616463004156522320003A20636F6DDB
:101A1E006D616E64206E6F7420666F756E640A0D54
:101A2E00000D0A0009005E630A0D0008200800621E
:101A3E006F660A0D0063303A2000202020096331C2
:101A4E003A20002020200963323A2000202020096D
:101A5E0063333A20004552524F52207573652073FE
:101A6E007469636B2069207363616C65206A0A0D6B
:101A7E00000A0D633A20000A0D70696E3A20000AC2
:101A8E000D7363616C653A20000A0D696E7665729E
:101A9E00743A20000A0D6D6964206E756C6C3A20E4
:0C1AAE00000A0D6C6F636B65643A200049
:00000001FF
