:100000000C9434000C9451000C9451000C94510049
:100010000C9451000C9451000C9451000C947107F5
:100020000C9451000C9451000C9451000C9451000C
:100030000C9451000C9451000C9429080C9451001C
:100040000C9451000C9451000C9475020C945100C6
:100050000C9451000C9451000C9451000C945100DC
:100060000C9451000C94510011241FBECFEFD8E026
:10007000DEBFCDBF12E0A0E0B1E0ECE6FEE102C0E1
:1000800005900D92A63DB107D9F724E0A6EDB2E0A8
:1000900001C01D92A83CB207E1F70E94020C0C942B
:1000A000340F0C94000040E050E068E671E08EE10F
:1000B00099E00E94720440E050E060E771E080EF58
:1000C00099E00E94720440E050E06EE671E089EF32
:1000D00099E00E94720440E050E06CE771E081E03A
:1000E0009AE00E94720440E050E069E871E088EC18
:1000F00098E00E94720440E050E063E971E082EB16
:1001000098E00E94720440E050E06DE971E084EAFA
:1001100098E00E94720440E050E06EEA71E080EFE7
:1001200098E00E94720440E050E06CEB71E084E1E2
:100130009AE00E94720440E050E064EC71E085E3D4
:100140009AE00E94720440E050E06EEC71E087E6B5
:100150009AE00E94720440E050E06DED71E082E9A7
:100160009AE00E9472046FE774E080E090E00E94E1
:10017000DE08ECE7F0E0808180648083EAE7F0E06D
:1001800080818768808341E064E270E085E290E0EE
:100190000E94860784E690E00C9456070F931F9305
:1001A000CF93DF93CDB7DEB72A970FB6F894DEBFB3
:1001B0000FBECDBFE0E0F1E001900020E9F73197FC
:1001C000BF016050714080E091E00E94FF0763E64C
:1001D00072E080E091E00E94A30E6FED71E080E09C
:1001E00091E00E948F0E0FE714E04AE0BE016F5FBE
:1001F0007F4FF801848595850E94C70EBC0180E081
:1002000091E00E948F0E64EE71E080E091E00E9428
:100210008F0E4AE0BE016F5F7F4FF801828D938D94
:100220000E94C70EBC0180E091E00E948F0E6DEE2F
:1002300071E080E091E00E948F0E4AE0BE016F5FA6
:100240007F4FF80180A591A50E94C70EBC0180E0F8
:1002500091E00E948F0E66EF71E080E091E00E94D5
:100260008F0E4AE0BE016F5F7F4FF80186A997A904
:100270000E94C70EBC0180E091E00E948F0E6DE5E8
:1002800072E080E091E02A960FB6F894DEBF0FBED0
:10029000CDBFDF91CF911F910F910C948F0E2F92B4
:1002A0003F924F925F926F927F928F929F92AF9206
:1002B000BF92CF92DF92EF92FF920F931F93CF9353
:1002C000DF9300D000D0CDB7DEB79FE7292E94E0B2
:1002D000392EF10190819830A0F480917C00807FCC
:1002E000892B80937C0080917A00806480937A00CF
:1002F00080917A0086FDFCCF809178009091790002
:1003000002C08FEF9FEF94838383238521110EC05A
:10031000278130858217930710F490878783258182
:1003200036812817390710F4968385833E9684E03A
:10033000E73BF80779F6E12CF12CF1016381748138
:1003400080E090E00E94440D4B015C01F1010581C9
:100350001681B80180E090E00E94440D3B016C01E1
:100360009B01AC01B401C5010E94F60D181614F4EE
:1003700043015601F101C780D084B60180E090E0CE
:100380000E94440D2B013C019B01AC01B401C5014D
:100390000E94970C87FF02C0420153019201A30102
:1003A000B401C5010E942A0C4B015C01B8016C1913
:1003B0007D0980E090E00E94440D9B01AC01C501E5
:1003C000B4010E949C0C9B01AC01C70181589B4F5A
:1003D0006C01FC018185F10101811281B801882342
:1003E000B9F080E090E029833A834B835C830E94DC
:1003F000440D4B015C0129813A814B815C810E9453
:10040000FB0D9B01AC01C501B4010E942A0C0EC07A
:1004100080E090E029833A834B835C830E94440D03
:1004200029813A814B815C810E94FB0D0E940E0D57
:10043000F10175876487F6018285882349F0169556
:100440000795F10184859585801B910B958784879D
:10045000FEE0EF0EF11C8EE0280E311C98E3E91649
:10046000F10409F06ACF0E94DF0B0F900F900F90FC
:100470000F90DF91CF911F910F91FF90EF90DF9040
:10048000CF90BF90AF909F908F907F906F905F9034
:100490004F903F902F900C9468079091C00095FF6B
:1004A000FCCF8093C60008958091C00087FFFCCFE9
:1004B0008091C60008951092C50080E18093C40029
:1004C00086E08093C200E1ECF0E08081886980835F
:1004D000E7EBF4E08DE492E09183808384E592E0A1
:1004E000938382831582148208951F920F920FB610
:1004F0000F9211242F933F934F935F936F937F93AA
:100500008F939F93AF93BF93EF93FF93E091BB04BF
:10051000F091BC04309719F08091C6000995FF91C5
:10052000EF91BF91AF919F918F917F916F915F916B
:100530004F913F912F910F900FBE0F901F901895E4
:100540000F931F93CF93DF930091C0041091C104C8
:10055000CFEFD1E08991882329F0D801ED91FC916A
:100560000995F8CFDF91CF911F910F9108956F9268
:100570007F929F92AF92BF92CF92DF92EF92FF92C3
:100580000F931F93CF93DF93CDB7DEB72A970FB6A4
:10059000F894DEBF0FBECDBF8C01962EC62ED12C97
:1005A0005C013C01E12CF12CEC14FD0414F542E05B
:1005B00050E067E072E0D3018D919D913D010E9472
:1005C000AA0E892B21F0BFEFEB1AFB0AEDCFE7FC57
:1005D00010C0E090C004F090C1040AE012E0F801FD
:1005E00081918F01882339F1D701ED91FC91099513
:1005F000F6CF3801E12CF12CEC14FD04F4F442E0C8
:1006000050E06FE172E0D3018D919D913D010E9418
:10061000AA0E892B21F0BFEFEB1AFB0AEDCFE7FC06
:100620000CC080917C00806480937C0080917A0073
:10063000876880937A0080E00CC1E12CF12CEC14E7
:10064000FD040CF099C0C7010296C816D9060CF437
:1006500093C042E050E062E272E0F5018191919135
:100660005F010E94AA0E892B21F0FFEFEF1AFF0A0B
:10067000E6CFE7FC81C0A090C004B090C10432EA8C
:10068000C32E32E0D32EF60181916F01882329F029
:10069000D501ED91FC910995F6CFFE2D82E0F8028F
:1006A000000D111D11240E5F1F4FC090C004D0908B
:1006B000C104D801ED90FC90F70181917F0188235E
:1006C00029F0D601ED91FC910995F6CFC090C004B8
:1006D000D090C10425E2E22E22E0F22EF7018191B2
:1006E0007F01882329F0D601ED91FC910995F6CF81
:1006F000D8018D919C910E94680E8830A0F4909151
:100700007C00907F892B80937C0080917A008064AC
:1007100080937A0080917A0086FDFCCF80917800EA
:100720009091790002C08FEF9FEF4AE0BE016F5FAA
:100730007F4F0E94C70EE090C004F090C1048C016E
:10074000F80181918F01882329F0D701ED91FC9167
:100750000995F6CFE090C004F090C1040DE512E0D9
:10076000F80181918F01882329F0D701ED91FC9147
:100770000995F6CF81E06DC091105DCF00E010E0EB
:100780004AE0BE016F5F7F4FC8010E94C70EC09054
:10079000C004D090C1047C01F70181917F018823BE
:1007A00029F0D601ED91FC910995F6CFC090C004D7
:1007B000D090C10495E2E92E92E0F92EF7018191E3
:1007C0007F01882329F0D601ED91FC910995F6CFA0
:1007D00080917C00807F802B80937C0080917A00C8
:1007E000806480937A0080917A0086FDFCCF8091AE
:1007F0007800909179004AE0BE016F5F7F4F0E94C0
:10080000C70EC090C004D090C1047C01F701819153
:100810007F01882329F0D601ED91FC910995F6CF4F
:10082000C090C004D090C1048DE5E82E82E0F82E7F
:10083000F70181917F01882329F0D601ED91FC9188
:100840000995F6CF0F5F1F4F0830110509F098CFBB
:10085000F2CE2A960FB6F894DEBF0FBECDBFDF9161
:10086000CF911F910F91FF90EF90DF90CF90BF90AD
:10087000AF909F907F906F900895CF93DF93DA01B0
:100880001C92EC012881222351F1203259F02D30A5
:1008900049F02A3039F0FB0181939193BF012C91EB
:1008A0002F5F2C93FC0181918823C9F08032D9F706
:1008B000CF010197EC01188280818D30A1F38A303D
:1008C00091F38F7D81F38C918F5F8C93883010F042
:1008D0001C9205C0EB01E993F993BE01E4CFDF91CF
:1008E000CF910895AF92BF92CF92DF92EF92FF9295
:1008F0000F931F93CF93DF936C015B017A0186E026
:1009000090E00E941707EC0105EA13E0D8018D91F1
:100910009C91009711F08C01F9CF84E090E00E9447
:100920001707F80191838083009739F40091C00480
:100930001091C104C8E2D2E013C0DC011396DC932D
:10094000CE931297209791F3B982A882DB82CA8254
:10095000FD82EC828091A9038F5F8093A90308C078
:100960008991882329F0D801ED91FC910995F8CF60
:10097000DF91CF911F910F91FF90EF90DF90CF907B
:10098000BF90AF9008950F931F93CF93DF93109272
:10099000A90340E050E060E372E080EA92E00E9448
:1009A000720440E050E066E372E087EB92E00E9460
:1009B00072040091C0041091C104CAE3D2E089918D
:1009C000882329F0D801ED91FC910995F8CFDF91AA
:1009D000CF911F910F9108959093C1048093C0040B
:1009E00024E736E0FC01358324830C94C304CF92C2
:1009F000DF92FF920F931F93CF93DF938C01F62E1C
:100A0000611107C00091C0041091C104CAE3D2E093
:100A100030C0C091A503D091A603D8018C91119646
:100A20009C91209771F1CA80DB80D6016D917C91F9
:100A30000E949A0E892BC9F4F601848195819093C6
:100A4000BF048093BE04FA940E5F1F4FEA81FB81BE
:100A50000280F381E02D6F2DC8010995882391F262
:100A60008091BD04813091F7CDCF0990D881C02D00
:100A7000D4CF8991882309F1D801ED91FC91099592
:100A8000F8CF0091C0041091C104EC018991882332
:100A900029F0D801ED91FC910995F8CF0091C0049F
:100AA0001091C104C0E4D2E08991882309F4AACF4F
:100AB000D801ED91FC910995F7CFDF91CF911F916E
:100AC0000F91FF90DF90CF9008958091AB03882322
:100AD000B1F01092BD044AEA53E06CEA73E08CEB8B
:100AE00093E00E943D041092BF041092BE046091F6
:100AF000AA038CEA93E00E94F7041092AB030895D6
:100B00006F927F928F929F92AF92BF92CF92DF921D
:100B1000EF92FF920F931F93CF93DF93EC01B62ECA
:100B20007A010091A5031091A6034801A12C81141C
:100B3000910489F1FE0101900020E9F73197AF019E
:100B40004C1B5D0BD4011296ED91FC9113976081C3
:100B50007181CE010E94AA0E892B11F4A394640125
:100B6000F40180809180E3CFFE0101900020E9F73D
:100B70003197AF014C1B5D0BD8011296ED91FC91A2
:100B8000139760817181CE010E94AA0E892B39F0E2
:100B9000D8010D911C910115110531F73CC0B1E050
:100BA000BA15B0F78090C0049090C10496E5692E04
:100BB00092E0792EF30181913F01882329F0D4013D
:100BC000ED91FC910995F6CF8090C0049090C104FE
:100BD000D8011296ED91FC91139760807180F3011A
:100BE00081913F01882329F0D401ED91FC91099571
:100BF000F6CF8090C0049090C10489E5682E82E011
:100C0000782EF30181913F01882311F2D401ED91F7
:100C1000FC910995F6CFAA2009F457C0B1E0AB12B8
:100C200028C06B2D70E0AB0142505109D6011296DD
:100C3000ED91FC91139760817181CE010E94B80EF5
:100C4000C090C004D090C104F70100811181F80167
:100C500081918F01882329F0D601ED91FC910995AE
:100C6000F6CF09900020E9F72197D701CD93DC93C7
:100C70002CC0E090C004F090C1040DE512E0F80132
:100C800081918F01882329F0D701ED91FC9109957D
:100C9000F6CFE090C004F090C1040AE312E0F8013E
:100CA00081918F01882329F0D701ED91FC9109955D
:100CB000F6CF0091C0041091C1048991882329F0D6
:100CC000D801ED91FC910995F8CFDF91CF911F915B
:100CD0000F91FF90EF90DF90CF90BF90AF909F90DB
:100CE0008F907F906F9008950F931F93CF93DF9312
:100CF000C82F8091A403833271F4C33661F481E07C
:100D00008093BD048CEB93E0909365018093640124
:100D10006BE572E022C08091AB03813051F4E09129
:100D2000BE04F091BF04309709F44CC08C2F099594
:100D300049C0E0916401F0916501CD3011F0CA30F5
:100D400089F410828CEB93E09093650180936401A9
:100D500081E08093AB036DE572E08EE993E00E9441
:100D6000A30E43C0C83011F0CF37D9F483E0EC3B79
:100D7000F807A1F098F03197F0936501E0936401D2
:100D80000091C0041091C104C0E6D2E0899188238B
:100D9000E1F1D801ED91FC910995F8CF63E672E09D
:100DA000DCCFB3E0E63FFB0718F064E672E0D5CF96
:100DB000C93059F4108244E651E06CE38CEB93E0C7
:100DC0000E94800510929E0310C0C032D8F3C083E9
:100DD00080916401909165010196909365018093E3
:100DE0006401C0939E0310929F03C093A4030091DB
:100DF000C0041091C104CEE9D3E08991882329F081
:100E0000D801ED91FC910995F8CFDF91CF911F9119
:100E10000F9108959093FD038093FC037093FB035F
:100E20006093FA039093F9038093F8030895209157
:100E3000F8033091F903820F931F6091FC037091C6
:100E4000FD034091FA035091FB03460F571F84178F
:100E5000950730F49093F9038093F803C90108953E
:100E600080E090E00895BC0189E09DE30E94160CAB
:100E70009B01CB016FEF70E00E94160C61157105AC
:100E800019F06093FE0303C081E08093FE032F3FBF
:100E9000310510F08FEF04C02115310521F481E0F8
:100EA0008093B30008952093B30008950E94330700
:100EB000E0EBF0E0808182608083E0E7F0E0808119
:100EC00082608083E1EBF0E0808187608083089519
:100ED0008091FF038111FCCF8091FE038093FF037B
:100EE00008951F920F920FB60F9211248F93809145
:100EF000FF03882329F08091FF0381508093FF0333
:100F00008F910F900FBE0F901F90189540936F0414
:100F100070936E0460936D0490936C0480936B04E3
:100F2000E2ECF4E024EC37E0318320831382128278
:100F30001582148240916F04DC01EC9121E030E0D5
:100F4000D90102C0AA0FBB1F4A95E2F7AD014E2B93
:100F5000FC01408390916F04DB018C9101C0220F52
:100F60009A95EAF7282B2C9384B5826084BDEEE62F
:100F7000F0E080818260808380ED87BD089580915C
:100F800066048130E1F30895CF93C82F0E94BF0714
:100F900081E08093660410926A0410926904809143
:100FA000690490916A0490936A0480936904209183
:100FB000690430916A048C2F90E0880F991F822B6E
:100FC000932B90936A0480936904809169049091B3
:100FD0006A04926090936A048093690481E090E0CF
:100FE000909368048093670416BC85B5826085BDC4
:100FF000CF910895809100048111FCCF08950F9343
:101000001F93CF93DF931F92CDB7DEB78C01698317
:101010000E94FA0781E0809300046981462F6536BB
:1010200008F044E64093010450E0B80182E094E007
:101030000E94860E83E094E090936701809366019E
:10104000809102040F90DF91CF911F910F910C942A
:10105000C4071F920F920FB60F9211242F933F9344
:101060004F935F936F937F938F939F93AF93BF93B0
:10107000EF93FF938091690490916A042091670433
:101080003091680482239323E0916B04F0916C0407
:1010900030916F042081892B41F081E090E001C004
:1010A000880F3A95EAF7822B0AC081E090E002C0EF
:1010B000880F991F3A95E2F7809590958223808357
:1010C0008091670490916804880F991F9093680439
:1010D00080936704809167049091680492FF1DC01B
:1010E00085B58D7F85BD10926604E0916601F09113
:1010F00067018091010490E08E5F9B4FE817F9072C
:1011000051F0CF0101969093670180936601808131
:101110000E94C40702C010920004FF91EF91BF919A
:10112000AF919F918F917F916F915F914F913F917F
:101130002F910F900FBE0F901F901895F999FECF29
:101140008AE090E00C94140FF999FECFFC018081A5
:1011500091810E94680E682F8AE090E00E94260F1D
:1011600080E00895F999FECFFC01808191810E9471
:10117000680E019624E6289FB001299F700D112466
:1011800048E350E08FE794E00E941C0F80E0089550
:10119000F999FECFFC01808191810E94680E019631
:1011A00024E6289FB001299F700D112448E350E0E8
:1011B0008FE794E00E94040F80E00895F999FECF34
:1011C0000E949E0890E0019624E6289FB001299F86
:1011D000700D112448E350E08FE794E00C94040F65
:1011E000EFE7F4E021E02083218784EF91E096830C
:1011F00085839087878322879283818332E0368735
:10120000278B948B838B968B858B208F908B8787F6
:1012100033E0348F15A292A381A394A383A326A3C2
:10122000968F858F34E032A723AB90AB87A792AB24
:1012300081AB14AA94A783A780E00895EF92FF9250
:101240000F931F93CF93DF93CDB7DEB72A970FB6D7
:10125000F894DEBF0FBECDBFE090C004F090C10493
:101260000FED11E0F80181918F01882329F0D7015A
:10127000ED91FC910995F6CF4AE0BE016F5F7F4F7B
:1012800080918B0490918C040E94C70EE090C00462
:10129000F090C1048C01F80181918F01882329F01D
:1012A000D701ED91FC910995F6CFE090C004F09044
:1012B000C10404EE11E0F80181918F01882329F027
:1012C000D701ED91FC910995F6CF4AE0BE016F5F21
:1012D0007F4F8091990490919A040E94C70EE090EC
:1012E000C004F090C1048C01F80181918F01882322
:1012F00029F0D701ED91FC910995F6CFE090C0045B
:10130000F090C1040DEE11E0F80181918F01882366
:1013100029F0D701ED91FC910995F6CF4AE0BE0185
:101320006F5F7F4F8091A7049091A8040E94C70E21
:10133000E090C004F090C1048C01F80181918F010C
:10134000882329F0D701ED91FC910995F6CFE09023
:10135000C004F090C10406EF11E0F80181918F0103
:10136000882329F0D701ED91FC910995F6CF4AE049
:10137000BE016F5F7F4F8091B5049091B6040E94CB
:10138000C70EE090C004F090C1048C01F801819177
:101390008F01882329F0D701ED91FC910995F6CFB3
:1013A000E090C004F090C1040DE512E0F8018191D5
:1013B0008F01882329F0D701ED91FC910995F6CF93
:1013C0000E944F0181E02A960FB6F894DEBF0FBE4F
:1013D000CDBFDF91CF911F910F91FF90EF900895B6
:1013E000EFE7F4E081E08387818F87A385AB80E01E
:1013F0000895EFE7F4E01386118E17A215AA80E096
:101400000895FC01808191810E94680E843050F41F
:101410009EE0899FF0011124E158FB4F918581E006
:101420008927818780E008950F931F93CF938C01C4
:10143000FC01808191810E94680EC82FF801828191
:1014400093810E94680EC43058F49FEF980F943037
:1014500038F49EE0C99FF0011124E158FB4F8083CE
:1014600080E0CF911F910F9108950F931F93CF9319
:10147000DF938C01623071F00091C0041091C104BF
:10148000CAE6D2E089918823E1F0D801ED91FC9180
:101490000995F8CFFC01808191810E94680EC82FC8
:1014A000843078F4D80112968D919C9113970E9404
:1014B000680EBEE0CB9FF0011124E158FB4F9283F0
:1014C000818380E0DF91CF911F910F9108950F9359
:1014D0001F93CF93DF93C62F613071F00091C0044A
:1014E0001091C104C6E8D2E089918823A9F0D801FF
:1014F000ED91FC910995F8CFFC01808191810E94CA
:10150000680E843048F49EE0899FF0011124E15870
:10151000FB4F6285C627C28780E0DF91CF911F9184
:101520000F9108958F929F92AF92BF92CF92DF92C8
:10153000EF92FF920F931F93CF93DF93CDB7DEB758
:101540002A970FB6F894DEBF0FBECDBF0AE814E0AD
:101550007FE7C72E74E0D72EE12CF12C8090C004D9
:101560009090C1046AE9A62E62E0B62EF501819141
:101570005F01882329F0D401ED91FC910995F6CF04
:101580004AE0BE016F5F7F4FC7010E94C70E809087
:10159000C0049090C1045C01F50181915F01882332
:1015A00029F0D401ED91FC910995F6CF8090C0040B
:1015B0009090C10450EAA52E52E0B52EF50181911C
:1015C0005F01882329F0D401ED91FC910995F6CFB4
:1015D000D6018C914AE0BE016F5F7F4F90E00E9480
:1015E000C70E8090C0049090C1045C01F501819108
:1015F0005F01882329F0D401ED91FC910995F6CF84
:101600008090C0049090C10448EAA42E42E0B42E19
:10161000F50181915F01882329F0D401ED91FC91BE
:101620000995F6CF4AE0BE016F5F7F4FD601119654
:101630008D919C9112970E94C70E8090C00490904B
:10164000C1045C01F50181915F01882329F0D40177
:10165000ED91FC910995F6CF8090C0049090C10463
:1016600032EBA32E32E0B32EF50181915F01882386
:1016700029F0D401ED91FC910995F6CFF80132974C
:1016800080814AE0BE016F5F7F4F90E00E94C70EED
:101690008090C0049090C1045C01F50181915F01CC
:1016A000882329F0D401ED91FC910995F6CF809023
:1016B000C0049090C1042DEBA22E22E0B22EF501C1
:1016C00081915F01882329F0D401ED91FC91099566
:1016D000F6CFF801319780814AE0BE016F5F7F4FFE
:1016E00090E00E94C70E8090C0049090C1045C01FD
:1016F000F50181915F01882329F0D401ED91FC91DE
:101700000995F6CF8090C0049090C1049AECA92E60
:1017100092E0B92EF50181915F01882329F0D4016F
:10172000ED91FC910995F6CFD8018C914AE0BE016C
:101730006F5F7F4F90E00E94C70E8090C004909032
:10174000C1045C01F50181915F01882329F0D40176
:10175000ED91FC910995F6CF8090C0049090C10462
:1017600086E5A82E82E0B82EF50181915F018823DD
:1017700029F0D401ED91FC910995F6CFFFEFEF1A16
:10178000FF0A025F1F4F8EE0C80ED11CA4E0EA16CC
:10179000F10409F0E3CE80E02A960FB6F894DEBF9C
:1017A0000FBECDBFDF91CF911F910F91FF90EF90B2
:1017B000DF90CF90BF90AF909F908F900895109240
:1017C00070048FEF8093710410927204EFE7F4E0DD
:1017D00080E090E024853585DC01A059BB4F13964D
:1017E0002C93139714963C931497232715962C93B8
:1017F0003E9603968C30910569F76FE080E794E0A0
:101800000C94FF0768EC70E086ED92E00E940A07F6
:101810000E945B02789487EB94E00E94EC040E94A3
:1018200053000E9465050E944F01FBCFAA1BBB1B02
:1018300051E107C0AA1FBB1FA617B70710F0A61BD0
:10184000B70B881F991F5A95A9F780959095BC01F1
:10185000CD0108955058BB27AA270E94420C0C9432
:10186000BC0D0E94AE0D38F00E94B50D20F039F489
:101870009F3F19F426F40C94AB0D0EF4E095E7FBB2
:101880000C94A50DE92F0E94CD0D58F3BA176207ED
:1018900073078407950720F079F4A6F50C94EF0DF3
:1018A0000EF4E0950B2EBA2FA02D0B01B90190017B
:1018B0000C01CA01A0011124FF27591B99F0593FBF
:1018C00050F4503E68F11A16F040A22F232F342F07
:1018D0004427585FF3CF469537952795A795F04055
:1018E0005395C9F77EF41F16BA0B620B730B840B6A
:1018F000BAF09150A1F0FF0FBB1F661F771F881F22
:10190000C2F70EC0BA0F621F731F841F48F4879579
:1019100077956795B795F7959E3F08F0B0CF93956B
:10192000880F08F09927EE0F9795879508950E94E4
:10193000810D08F481E008950E94B00C0C94BC0D58
:101940000E94B50D58F00E94AE0D40F029F45F3FA3
:1019500029F00C94A50D51110C94F00D0C94AB0DC5
:101960000E94CD0D68F39923B1F3552391F3951B94
:10197000550BBB27AA2762177307840738F09F5FB0
:101980005F4F220F331F441FAA1FA9F335D00E2E1D
:101990003AF0E0E832D091505040E695001CCAF78A
:1019A0002BD0FE2F29D0660F771F881FBB1F26174D
:1019B00037074807AB07B0E809F0BB0B802DBF0124
:1019C000FF2793585F4F3AF09E3F510578F00C94F3
:1019D000A50D0C94F00D5F3FE4F3983ED4F386958B
:1019E00077956795B795F7959F5FC9F7880F911D14
:1019F0009695879597F90895E1E0660F771F881F00
:101A0000BB1F621773078407BA0720F0621B730BB2
:101A1000840BBA0BEE1F88F7E09508950E94150D10
:101A20006894B1110C94F00D08950E94D50D88F0C2
:101A30009F5798F0B92F9927B751B0F0E1F0660F92
:101A4000771F881F991F1AF0BA95C9F714C0B130D3
:101A500091F00E94EF0DB1E008950C94EF0D672F07
:101A6000782F8827B85F39F0B93FCCF38695779502
:101A70006795B395D9F73EF49095809570956195EB
:101A80007F4F8F4F9F4F0895E89409C097FB3EF416
:101A900090958095709561957F4F8F4F9F4F9923BB
:101AA000A9F0F92F96E9BB279395F6958795779539
:101AB0006795B795F111F8CFFAF4BB0F11F460FFF9
:101AC0001BC06F5F7F4F8F4F9F4F16C0882311F051
:101AD00096E911C0772321F09EE8872F762F05C065
:101AE000662371F096E8862F70E060E02AF09A9500
:101AF000660F771F881FDAF7880F9695879597F9F5
:101B00000895990F0008550FAA0BE0E8FEEF16168E
:101B10001706E807F907C0F012161306E407F507E1
:101B200098F0621B730B840B950B39F40A2661F055
:101B3000232B242B252B21F408950A2609F4A140F8
:101B4000A6958FEF811D811D089597F99F6780E805
:101B500070E060E008959FEF80EC089500240A94FF
:101B60001616170618060906089500240A94121678
:101B70001306140605060895092E0394000C11F4AB
:101B8000882352F0BB0F40F4BF2B11F460FF04C058
:101B90006F5F7F4F8F4F9F4F089557FD9058440FB1
:101BA000551F59F05F3F71F04795880F97FB991FBC
:101BB00061F09F3F79F08795089512161306140679
:101BC000551FF2CF4695F1DF08C016161706180606
:101BD000991FF1CF86957105610508940895E894E1
:101BE000BB2766277727CB0197F908950E94810DBF
:101BF00008F48FEF08950E940E0E0C94BC0D0E9405
:101C0000AE0D38F00E94B50D20F0952311F00C9424
:101C1000A50D0C94AB0D11240C94F00D0E94CD0D6C
:101C200070F3959FC1F3950F50E0551F629FF0012F
:101C3000729FBB27F00DB11D639FAA27F00DB11D48
:101C4000AA1F649F6627B00DA11D661F829F2227D1
:101C5000B00DA11D621F739FB00DA11D621F839F58
:101C6000A00D611D221F749F3327A00D611D231F2E
:101C7000849F600D211D822F762F6A2F11249F577C
:101C800050409AF0F1F088234AF0EE0FFF1FBB1F7F
:101C9000661F771F881F91505040A9F79E3F51053E
:101CA00080F00C94A50D0C94F00D5F3FE4F3983E8A
:101CB000D4F3869577956795B795F795E7959F5FE8
:101CC000C1F7FE2B880F911D9695879597F908957A
:101CD000FC0188279927E89421912032E9F32930E3
:101CE00010F02E30C8F32B3241F02D3239F46894C5
:101CF00004C00E94D20E820F911D219120532A30E0
:101D0000C0F31EF4909581959F4F0895FB01DC016F
:101D100002C001900D9241505040D8F70895FB0148
:101D2000DC010D900020E9F7119701900D92002041
:101D3000E1F70895FB01DC018D91019080190110FC
:101D4000D9F3990B0895FB01DC0101900D9200205D
:101D5000E1F70895FB01DC014150504030F08D91D6
:101D60000190801919F40020B9F7881B990B089588
:101D7000FB01DC014150504048F001900D920020E1
:101D8000C9F701C01D9241505040E0F70895BB27AC
:101D90004A3031F4992322F4BDE2909581959F4F0A
:101DA0000C94DB0E7AE0979F902D879F802D910DEC
:101DB00011240895BB27FB015527AA27880F991FD7
:101DC000AA1FA41710F0A41B83955051B9F7A05D6A
:101DD000AA3308F0A95DA193009779F7B111B193E7
:101DE0001192CB010C94F40EDC01FC01672F719170
:101DF0007723E1F7329704C07C916D9370836291F1
:101E0000AE17BF07C8F30895DC01CB01FC01F999B7
:101E1000FECF06C0F2BDE1BDF89A319600B40D9236
:101E200041505040B8F70895F999FECF92BD81BD59
:101E3000F89A992780B50895DC01CB0103C02D9154
:101E40000E94270F41505040D0F70895262FF9994E
:101E5000FECF1FBA92BD81BD20BD0FB6F894FA9A8D
:0C1E6000F99A0FBE01960895F894FFCF88
:101E6C002020200000000000000000000000000006
:101E7C000000000000000000000000000000000056
:101E8C000000000000000000000000000000000046
:101E9C000000000000000000000000000000000036
:101EAC000000000000000000000000000000000026
:101EBC000000000000000000000000000000000016
:101ECC0000000000BC0302047072696E7400756E31
:101EDC006C6F636B5F737469636B7300696E7665AB
:101EEC0072745F737469636B006C6F61645F7072A2
:101EFC006F6600736176655F70726F6600736574F0
:101F0C005F64656661756C745F70726F66006C6F90
:101F1C0061645F64656661756C7473007365745F8E
:101F2C0070696E007365745F7363616C6500746FC8
:101F3C0067656C5F6D69645F6E756C6C00700063D7
:101F4C00303A20002020200963313A200020202044
:101F5C000963323A20002020200963333A20001B09
:101F6C005B324A1B5B48002D6800616463204E7233
:101F7C00207C202D69207C202D6D20780A0D002DD1
:101F8C0069002D6D00202000735F6D5F650A0D00E8
:101F9C00636C6561720061646300415652232000DA
:101FAC003A20636F6D6D616E64206E6F7420666F86
:101FBC00756E640A0D000D0A0009005E630A0D00BF
:101FCC0008200800626F660A0D004552524F5220DD
:101FDC0075736520737469636B2069207363616C1E
:101FEC0065206A0A0D004552524F522075736520C8
:101FFC00737469636B20690A0D000A0D633A200043
:10200C000A0D70696E3A20000A0D7363616C653AB3
:10201C0020000A0D696E766572743A20000A0D6D07
:10202C006964206E756C6C3A20000A0D6C6F636BE2
:06203C0065643A2000007B
:00000001FF
