:100000000C9434000C9451000C9451000C94510049
:100010000C9451000C9451000C9451000C94060760
:100020000C9451000C9451000C9451000C9451000C
:100030000C9451000C9451000C9451000C945100FC
:100040000C9451000C9451000C94E3010C94510059
:100050000C9451000C9451000C9451000C945100DC
:100060000C9451000C94510011241FBECFEFD8E026
:10007000DEBFCDBF12E0A0E0B1E0E4E2FBE102C0F0
:1000800005900D92A835B107D9F723E0A8E5B2E0B5
:1000900001C01D92A53CB207E1F70E94310A0C9401
:1000A000900D0C94000040E050E062E071E08BE9BC
:1000B00097E00E94E00340E050E06AE071E08DE6E6
:1000C00098E00E94E00340E050E068E071E086E7DD
:1000D00098E00E94E00340E050E066E171E08EE7C6
:1000E00098E00E94E00340E050E063E271E085E4C4
:1000F00097E00E94E00340E050E06DE271E08FE2A3
:1001000097E00E94E00340E050E067E371E081E2A5
:1001100097E00E94E00340E050E068E471E08DE683
:1001200097E00E94E00340E050E066E571E081E97D
:1001300098E00E94E00340E050E06EE571E082EB61
:1001400098E00E94E00340E050E068E671E084EE51
:1001500098E00E94E00360E873E080E090E00E9495
:100160005B07ECE7F0E0808180648083EAE7F0E001
:1001700080818768808384E690E00C94D1062F927A
:100180003F924F925F926F927F928F929F92AF9227
:10019000BF92CF92DF92EF92FF920F931F93CF9374
:1001A000DF9300D000D0CDB7DEB790E8292E93E0E2
:1001B000392EF10190819830A0F480917C00807FED
:1001C000892B80937C0080917A00806480937A00F0
:1001D00080917A0086FDFCCF809178009091790023
:1001E00002C08FEF9FEF94838383238521110EC07C
:1001F000278130858217930710F4908787832581A4
:1002000036812817390710F4968385833E9683E05C
:10021000E83BF80779F6E12CF12CF1016381748158
:1002200080E090E00E94B40B4B015C01F10105817C
:100230001681B80180E090E00E94B40B3B016C0194
:100240009B01AC01B401C5010E94660C181614F4A0
:1002500043015601F101C780D084B60180E090E0EF
:100260000E94B40B2B013C019B01AC01B401C50100
:100270000E94070B87FF02C0420153019201A301B4
:10028000B401C5010E949A0A4B015C01B8016C19C6
:100290007D0980E090E00E94B40B9B01AC01C50198
:1002A000B4010E940C0B9B01AC01C70180589C4F0C
:1002B0006C01FC018185F10101811281B801882363
:1002C000B9F080E090E029833A834B835C830E94FD
:1002D000B40B4B015C0129813A814B815C810E9406
:1002E0006B0C9B01AC01C501B4010E949A0A0EC0BF
:1002F00080E090E029833A834B835C830E94B40BB7
:1003000029813A814B815C810E946B0C0E947E0B9B
:10031000F10175876487F6018285882349F0169577
:100320000795F10184859585801B910B95878487BE
:10033000FEE0EF0EF11C8EE0280E311C98E3E9166A
:10034000F10409F06ACF0F900F900F900F90DF919A
:10035000CF911F910F91FF90EF90DF90CF90BF90C2
:10036000AF909F908F907F906F905F904F903F9055
:100370002F900C94E3069091C00095FFFCCF8093E2
:10038000C60008958091C00087FFFCCF8091C60011
:1003900008951092C50080E18093C40086E08093A8
:1003A000C200E1ECF0E0808188698083E8EBF3E053
:1003B0008BEB91E09183808382EC91E09383828345
:1003C0001582148208951F920F920FB60F92112476
:1003D0002F933F934F935F936F937F938F939F934D
:1003E000AF93BF93EF93FF93E091BC03F091BD03F4
:1003F000309719F08091C6000995FF91EF91BF9158
:10040000AF919F918F917F916F915F914F913F91AC
:100410002F910F900FBE0F901F9018950F931F9361
:10042000CF93DF930091C1031091C203CAE6D1E0DC
:100430008991882329F0D801ED91FC910995F8CF95
:10044000DF91CF911F910F9108956F927F929F92AC
:10045000AF92BF92CF92DF92EF92FF920F931F93D2
:10046000CF93DF93CDB7DEB72A970FB6F894DEBFF0
:100470000FBECDBF8C01962EC62ED12C5C013C0147
:10048000E12CF12CEC14FD0414F542E050E062E79D
:1004900071E0D3018D919D913D010E94060D892B44
:1004A00021F0BFEFEB1AFB0AEDCFE7FC10C0E090A4
:1004B000C103F090C20305E711E0F80181918F01BB
:1004C000882339F1D701ED91FC910995F6CF3801D8
:1004D000E12CF12CEC14FD04F4F442E050E06AE865
:1004E00071E0D3018D919D913D010E94060D892BF4
:1004F00021F0BFEFEB1AFB0AEDCFE7FC0CC08091B7
:100500007C00806480937C0080917A00876880936F
:100510007A0080E00CC1E12CF12CEC14FD040CF00D
:1005200099C0C7010296C816D9060CF493C042E0E0
:1005300050E06DE871E0F501819191915F010E94B9
:10054000060D892B21F0FFEFEF1AFF0AE6CFE7FC3B
:1005500081C0A090C103B090C20334E2C32E32E048
:10056000D32EF60181916F01882329F0D501ED91F9
:10057000FC910995F6CFFE2D82E0F802000D111DC9
:1005800011240E5F1F4FC090C103D090C203D80149
:10059000ED90FC90F70181917F01882329F0D6012D
:1005A000ED91FC910995F6CFC090C103D090C203A4
:1005B00020E9E22E21E0F22EF70181917F018823CC
:1005C00029F0D601ED91FC910995F6CFD8018D91D6
:1005D0009C910E94D80C8830A0F490917C00907F70
:1005E000892B80937C0080917A00806480937A00CC
:1005F00080917A0086FDFCCF8091780090917900FF
:1006000002C08FEF9FEF4AE0BE016F5F7F4F0E94F5
:10061000230DE090C103F090C2038C01F801819199
:100620008F01882329F0D701ED91FC910995F6CF30
:10063000E090C103F090C20308EC11E0F801819151
:100640008F01882329F0D701ED91FC910995F6CF10
:1006500081E06DC091105DCF00E010E04AE0BE0186
:100660006F5F7F4FC8010E94230DC090C103D090DF
:10067000C2037C01F70181917F01882329F0D60113
:10068000ED91FC910995F6CFC090C103D090C203C3
:1006900090E9E92E91E0F92EF70181917F018823FD
:1006A00029F0D601ED91FC910995F6CF80917C005F
:1006B000807F802B80937C0080917A00806480937F
:1006C0007A0080917A0086FDFCCF8091780090912D
:1006D00079004AE0BE016F5F7F4F0E94230DC090FA
:1006E000C103D090C2037C01F70181917F0188236F
:1006F00029F0D601ED91FC910995F6CFC090C10388
:10070000D090C20388ECE82E81E0F82EF7018191A9
:100710007F01882329F0D601ED91FC910995F6CF50
:100720000F5F1F4F0830110509F098CFF2CE2A96BF
:100730000FB6F894DEBF0FBECDBFDF91CF911F91F2
:100740000F91FF90EF90DF90CF90BF90AF909F9070
:100750007F906F900895CF93DF93DA011C92EC01A4
:100760002881222351F1203259F02D3049F02A30CE
:1007700039F0FB0181939193BF012C912F5F2C9352
:10078000FC0181918823C9F08032D9F7CF0101970C
:10079000EC01188280818D30A1F38A3091F38F7D36
:1007A00081F38C918F5F8C93883010F01C9205C080
:1007B000EB01E993F993BE01E4CFDF91CF91089566
:1007C000AF92BF92CF92DF92EF92FF920F931F935F
:1007D000CF93DF936C015B017A0186E090E00E9489
:1007E0008506EC0107E213E0D8018D919C910097FA
:1007F00011F08C01F9CF84E090E00E948506F801A9
:1008000091838083009739F40091C1031091C20352
:10081000C3E9D1E013C0DC011396DC93CE931297A9
:10082000209791F3B982A882DB82CA82FD82EC8292
:1008300080912B038F5F80932B0308C089918823BD
:1008400029F0D801ED91FC910995F8CFDF91CF9176
:100850001F910F91FF90EF90DF90CF90BF90AF90DE
:1008600008950F931F93CF93DF9310922B0340E0D3
:1008700050E06BE971E08EE092E00E94E00340E01E
:1008800050E061EA71E085E292E00E94E0030091AD
:10089000C1031091C203C5EAD1E08991882329F0F0
:1008A000D801ED91FC910995F8CFDF91CF911F917F
:1008B0000F9108959093C2038093C10322EE35E017
:1008C000FC01358324830C943104CF92DF92FF9294
:1008D0000F931F93CF93DF938C01F62E611107C006
:1008E0000091C1031091C203C5EAD1E030C0C091AC
:1008F0002703D0912803D8018C9111969C912097C1
:1009000071F1CA80DB80D6016D917C910E94F60C5A
:10091000892BC9F4F601848195819093C00380935B
:10092000BF03FA940E5F1F4FEA81FB810280F381BF
:10093000E02D6F2DC8010995882391F28091BE03A7
:10094000813091F7CDCF0990D881C02DD4CF899136
:10095000882309F1D801ED91FC910995F8CF009118
:10096000C1031091C203EC018991882329F0D801B9
:10097000ED91FC910995F8CF0091C1031091C2034C
:10098000CBEAD1E08991882309F4AACFD801ED916F
:10099000FC910995F7CFDF91CF911F910F91FF90B7
:1009A000DF90CF90089580912D038823B1F01092AD
:1009B000BE034CE253E06EE273E08EE393E00E94EC
:1009C000AB031092C0031092BF0360912C038EE220
:1009D00093E00E94650410922D0308956F927F9218
:1009E0008F929F92AF92BF92CF92DF92EF92FF923F
:1009F0000F931F93CF93DF93EC01B62E7A010091F2
:100A00002703109128034801A12C8114910489F136
:100A1000FE0101900020E9F73197AF014C1B5D0BFF
:100A2000D4011296ED91FC91139760817181CE01F2
:100A30000E94060D892B11F4A3946401F4018080B7
:100A40009180E3CFFE0101900020E9F73197AF01DB
:100A50004C1B5D0BD8011296ED91FC9113976081B0
:100A60007181CE010E94060D892B39F0D8010D91BC
:100A70001C910115110531F73CC0B1E0BA15B0F772
:100A80008090C1039090C20391EC692E91E0792E81
:100A9000F30181913F01882329F0D401ED91FC916C
:100AA0000995F6CF8090C1039090C203D8011296A9
:100AB000ED91FC91139760807180F30181913F016A
:100AC000882329F0D401ED91FC910995F6CF80900F
:100AD000C1039090C20384EC682E81E0782EF3016C
:100AE00081913F01882311F2D401ED91FC91099588
:100AF000F6CFAA2009F457C0B1E0AB1228C06B2D85
:100B000070E0AB0142505109D6011296ED91FC9173
:100B1000139760817181CE010E94140DC090C103B2
:100B2000D090C203F70100811181F80181918F01FA
:100B3000882329F0D601ED91FC910995F6CF099013
:100B40000020E9F72197D701CD93DC932CC0E090EA
:100B5000C103F090C20308EC11E0F80181918F010C
:100B6000882329F0D701ED91FC910995F6CFE0900B
:100B7000C103F090C20305EA11E0F80181918F01F1
:100B8000882329F0D701ED91FC910995F6CF0091CA
:100B9000C1031091C2038991882329F0D801ED91F6
:100BA000FC910995F8CFDF91CF911F910F91FF90A4
:100BB000EF90DF90CF90BF90AF909F908F907F90FD
:100BC0006F9008950F931F93CF93DF93C82F809159
:100BD0002603833271F4C33661F481E08093BE034F
:100BE0008EE393E0909301018093000166EC71E045
:100BF00022C080912D03813051F4E091BF03F09128
:100C0000C003309709F44CC08C2F099549C0E0917E
:100C10000001F0910101CD3011F0CA3089F4108249
:100C20008EE393E0909301018093000181E0809333
:100C30002D0368EC71E080E293E00E94FF0C43C05A
:100C4000C83011F0CF37D9F483E0EE33F807A1F0C4
:100C500098F03197F0930101E09300010091C103F6
:100C60001091C203CBECD1E089918823E1F1D80146
:100C7000ED91FC910995F8CF6EEC71E0DCCFB3E01B
:100C8000E837FB0718F06FEC71E0D5CFC93059F4A5
:100C9000108240E051E06CE38EE393E00E94EE04AA
:100CA0001092200310C0C032D8F3C083809100019D
:100CB0009091010101969093010180930001C093EE
:100CC000200310922103C09326030091C1031091C9
:100CD000C203C0E2D3E08991882329F0D801ED91C5
:100CE000FC910995F8CFDF91CF911F910F91089555
:100CF00090937F0380937E0370937D0360937C03C6
:100D000090937B0380937A03089520917A03309126
:100D10007B03820F931F60917E0370917F0340914C
:100D20007C0350917D03460F571F8417950730F4BD
:100D300090937B0380937A03C901089580E090E04B
:100D400008950F931F939C0140E050E069E07DE31C
:100D500080E090E00E94590A89019A01C8016FEF72
:100D600070E00E94450A6115710519F06093C40393
:100D700003C081E08093C4030F3F110521053105B5
:100D800014F08FEF06C0011511052105310521F47E
:100D900081E08093B30002C00093B3001F910F91D4
:100DA00008950E94A106E0EBF0E0808182608083DC
:100DB000E0E7F0E0808182608083E1EBF0E0808119
:100DC0008760808308950F931F93CF93DF93809163
:100DD000C30381110EC00091C1031091C203C5ED80
:100DE000D1E08991882329F0D801ED91FC910995F2
:100DF000F8CF8091C3038111FCCF8091C40380930D
:100E0000C303DF91CF911F910F9108951F920F920D
:100E10000FB60F9211248F938091C303882329F07A
:100E20008091C30381508093C3038F910F900FBEB5
:100E30000F901F901895F999FECF8AE090E00C94DE
:100E4000700DF999FECFFC01808191810E94D80C30
:100E5000682F8AE090E00E94820D80E00895F99961
:100E6000FECFFC01808191810E94D80C019624E67E
:100E7000289FB001299F700D112448E350E080E8BD
:100E800093E00E94780D80E00895F999FECFFC016F
:100E9000808191810E94D80C019624E6289FB001A0
:100EA000299F700D112448E350E080E893E00E94F0
:100EB000600D80E00895F999FECF0E941B0790E035
:100EC000019624E6289FB001299F700D112448E364
:100ED00050E080E893E00C94600DE0E8F3E021E05E
:100EE0002083218784EF91E0968385839087878391
:100EF00022879283818332E03687278B948B838B82
:100F0000968B858B208F908B878733E0348F15A24B
:100F100092A381A394A383A326A3968F858F34E005
:100F200032A723AB90AB87A792AB81AB14AA94A74F
:100F300083A780E00895EF92FF920F931F93CF93C2
:100F4000DF93CDB7DEB72A970FB6F894DEBF0FBE9A
:100F5000CDBFE090C103F090C20300EE11E0F801B4
:100F600081918F01882329F0D701ED91FC9109959A
:100F7000F6CF4AE0BE016F5F7F4F80918C03909166
:100F80008D030E94230DE090C103F090C2038C01F9
:100F9000F80181918F01882329F0D701ED91FC910F
:100FA0000995F6CFE090C103F090C20305EE11E081
:100FB000F80181918F01882329F0D701ED91FC91EF
:100FC0000995F6CF4AE0BE016F5F7F4F80919A038B
:100FD00090919B030E94230DE090C103F090C20307
:100FE0008C01F80181918F01882329F0D701ED91BF
:100FF000FC910995F6CFE090C103F090C2030EEE8C
:1010000011E0F80181918F01882329F0D701ED913A
:10101000FC910995F6CF4AE0BE016F5F7F4F80914A
:10102000A8039091A9030E94230DE090C103F090C2
:10103000C2038C01F80181918F01882329F0D70127
:10104000ED91FC910995F6CFE090C103F090C203B9
:1010500007EF11E0F80181918F01882329F0D70172
:10106000ED91FC910995F6CF4AE0BE016F5F7F4F8D
:101070008091B6039091B7030E94230DE090C103C5
:10108000F090C2038C01F80181918F01882329F02F
:10109000D701ED91FC910995F6CFE090C103F09056
:1010A000C20308EC11E0F80181918F01882329F037
:1010B000D701ED91FC910995F6CF0E94BF0081E028
:1010C0002A960FB6F894DEBF0FBECDBFDF91CF9149
:1010D0001F910F91FF90EF900895E0E8F3E081E019
:1010E0008387818F87A385AB80E00895E0E8F3E0F4
:1010F0001386118E17A215AA80E00895FC01808145
:1011000091810E94D80C843050F49EE0899FF001B8
:101110001124E058FC4F918581E08927818780E088
:1011200008950F931F93CF938C01FC0180819181CF
:101130000E94D80CC82FF801828193810E94D80C9C
:10114000C43058F49FEF980F943038F49EE0C99F54
:10115000F0011124E058FC4F808380E0CF911F9173
:101160000F9108950F931F93CF93DF938C016230FB
:1011700071F00091C1031091C203C0E0D2E08991E7
:101180008823E1F0D801ED91FC910995F8CFFC019D
:10119000808191810E94D80CC82F843078F4D801C6
:1011A00012968D919C9113970E94D80CBEE0CB9F14
:1011B000F0011124E058FC4F9283818380E0DF919D
:1011C000CF911F910F9108958F929F92AF92BF92EE
:1011D000CF92DF92EF92FF920F931F93CF93DF9303
:1011E000CDB7DEB72A970FB6F894DEBF0FBECDBFDE
:1011F0000BE813E070E8C72E73E0D72EE12CF12C3A
:101200008090C1039090C2036CE1A62E62E0B62EDE
:10121000F50181915F01882329F0D401ED91FC91C2
:101220000995F6CF4AE0BE016F5F7F4FC7010E946C
:10123000230D8090C1039090C2035C01F501819160
:101240005F01882329F0D401ED91FC910995F6CF37
:101250008090C1039090C20352E2A52E52E0B52EB9
:10126000F50181915F01882329F0D401ED91FC9172
:101270000995F6CFD6018C914AE0BE016F5F7F4F92
:1012800090E00E94230D8090C1039090C2035C0106
:10129000F50181915F01882329F0D401ED91FC9142
:1012A0000995F6CF8090C1039090C2034AE2A42E24
:1012B00042E0B42EF50181915F01882329F0D40129
:1012C000ED91FC910995F6CF4AE0BE016F5F7F4F2B
:1012D000D60111968D919C9112970E94230D8090BA
:1012E000C1039090C2035C01F50181915F018823E5
:1012F00029F0D401ED91FC910995F6CF8090C103BE
:101300009090C20334E3A32E32E0B32EF501819115
:101310005F01882329F0D401ED91FC910995F6CF66
:10132000F801329780814AE0BE016F5F7F4F90E005
:101330000E94230D8090C1039090C2035C01F501CF
:1013400081915F01882329F0D401ED91FC910995E9
:10135000F6CF8090C1039090C2032FE3A22E22E02B
:10136000B22EF50181915F01882329F0D401ED911E
:10137000FC910995F6CFF801319780814AE0BE01D2
:101380006F5F7F4F90E00E94230D8090C10390908B
:10139000C2035C01F50181915F01882329F0D4012A
:1013A000ED91FC910995F6CF8090C1039090C20316
:1013B0009CE4A92E92E0B92EF50181915F0188236A
:1013C00029F0D401ED91FC910995F6CFD8018C91CB
:1013D0004AE0BE016F5F7F4F90E00E94230D809036
:1013E000C1039090C2035C01F50181915F018823E4
:1013F00029F0D401ED91FC910995F6CF8090C103BD
:101400009090C20381ECA82E81E0B82EF501819165
:101410005F01882329F0D401ED91FC910995F6CF65
:10142000FFEFEF1AFF0A025F1F4F8EE0C80ED11CBC
:10143000A4E0EA16F10409F0E3CE80E02A960FB6A4
:10144000F894DEBF0FBECDBFDF91CF911F910F91FA
:10145000FF90EF90DF90CF90BF90AF909F908F90D4
:10146000089568EC70E088E592E00E9478060E949A
:10147000C901789488EB93E00E945A040E945300BB
:101480000E94D3040E94BF00FBCFAA1BBB1B51E1EB
:1014900007C0AA1FBB1FA617B70710F0A61BB70BE4
:1014A000881F991F5A95A9F780959095BC01CD0189
:1014B0000895052E97FB1EF400940E94700A57FDB4
:1014C00007D00E94780A07FC03D04EF40C94700AEF
:1014D00050954095309521953F4F4F4F5F4F089560
:1014E00090958095709561957F4F8F4F9F4F089590
:1014F000A1E21A2EAA1BBB1BFD010DC0AA1FBB1F18
:10150000EE1FFF1FA217B307E407F50720F0A21B89
:10151000B30BE40BF50B661F771F881F991F1A94F6
:1015200069F760957095809590959B01AC01BD0120
:10153000CF0108955058BB27AA270E94B20A0C94E5
:101540002C0C0E941E0C38F00E94250C20F039F45F
:101550009F3F19F426F40C941B0C0EF4E095E7FB66
:101560000C94150CE92F0E943D0C58F3BA17620732
:1015700073078407950720F079F4A6F50C945F0CA7
:101580000EF4E0950B2EBA2FA02D0B01B90190019E
:101590000C01CA01A0011124FF27591B99F0593FE2
:1015A00050F4503E68F11A16F040A22F232F342F2A
:1015B0004427585FF3CF469537952795A795F04078
:1015C0005395C9F77EF41F16BA0B620B730B840B8D
:1015D000BAF09150A1F0FF0FBB1F661F771F881F45
:1015E000C2F70EC0BA0F621F731F841F48F487959D
:1015F00077956795B795F7959E3F08F0B0CF93958F
:10160000880F08F09927EE0F9795879508950E9407
:10161000F10B08F481E008950E94200B0C942C0C2F
:101620000E94250C58F00E941E0C40F029F45F3FE8
:1016300029F00C94150C51110C94600C0C941B0C9B
:101640000E943D0C68F39923B1F3552391F3951B48
:10165000550BBB27AA2762177307840738F09F5FD3
:101660005F4F220F331F441FAA1FA9F335D00E2E40
:101670003AF0E0E832D091505040E695001CCAF7AD
:101680002BD0FE2F29D0660F771F881FBB1F261770
:1016900037074807AB07B0E809F0BB0B802DBF0147
:1016A000FF2793585F4F3AF09E3F510578F00C9416
:1016B000150C0C94600C5F3FE4F3983ED4F38695D0
:1016C00077956795B795F7959F5FC9F7880F911D37
:1016D0009695879597F90895E1E0660F771F881F23
:1016E000BB1F621773078407BA0720F0621B730BD6
:1016F000840BBA0BEE1F88F7E09508950E94850BC6
:101700006894B1110C94600C08950E94450C88F007
:101710009F5798F0B92F9927B751B0F0E1F0660FB5
:10172000771F881F991F1AF0BA95C9F714C0B130F6
:1017300091F00E945F0CB1E008950C945F0C672F4C
:10174000782F8827B85F39F0B93FCCF38695779525
:101750006795B395D9F73EF490958095709561950E
:101760007F4F8F4F9F4F0895E89409C097FB3EF439
:1017700090958095709561957F4F8F4F9F4F9923DE
:10178000A9F0F92F96E9BB279395F695879577955C
:101790006795B795F111F8CFFAF4BB0F11F460FF1C
:1017A0001BC06F5F7F4F8F4F9F4F16C0882311F074
:1017B00096E911C0772321F09EE8872F762F05C088
:1017C000662371F096E8862F70E060E02AF09A9523
:1017D000660F771F881FDAF7880F9695879597F918
:1017E0000895990F0008550FAA0BE0E8FEEF1616B2
:1017F0001706E807F907C0F012161306E407F50705
:1018000098F0621B730B840B950B39F40A2661F078
:10181000232B242B252B21F408950A2609F4A1401B
:10182000A6958FEF811D811D089597F99F6780E828
:1018300070E060E008959FEF80EC089500240A9422
:101840001616170618060906089500240A9412169B
:101850001306140605060895092E0394000C11F4CE
:10186000882352F0BB0F40F4BF2B11F460FF04C07B
:101870006F5F7F4F8F4F9F4F089557FD9058440FD4
:10188000551F59F05F3F71F04795880F97FB991FDF
:1018900061F09F3F79F0879508951216130614069C
:1018A000551FF2CF4695F1DF08C016161706180629
:1018B000991FF1CF86957105610508940895E89404
:1018C000BB2766277727CB0197F908950E94F10B74
:1018D00008F48FEF08950E947E0C0C942C0C0E944B
:1018E0001E0C38F00E94250C20F0952311F00C946A
:1018F000150C0C941B0C11240C94600C0E943D0CD4
:1019000070F3959FC1F3950F50E0551F629FF00152
:10191000729FBB27F00DB11D639FAA27F00DB11D6B
:10192000AA1F649F6627B00DA11D661F829F2227F4
:10193000B00DA11D621F739FB00DA11D621F839F7B
:10194000A00D611D221F749F3327A00D611D231F51
:10195000849F600D211D822F762F6A2F11249F579F
:1019600050409AF0F1F088234AF0EE0FFF1FBB1FA2
:10197000661F771F881F91505040A9F79E3F510561
:1019800080F00C94150C0C94600C5F3FE4F3983ECF
:10199000D4F3869577956795B795F795E7959F5F0B
:1019A000C1F7FE2B880F911D9695879597F908959D
:1019B000FC0188279927E89421912032E9F3293006
:1019C00010F02E30C8F32B3241F02D3239F46894E8
:1019D00004C00E942E0D820F911D219120532A30A8
:1019E000C0F31EF4909581959F4F0895FB01DC0193
:1019F0008D91019080190110D9F3990B0895FB0185
:101A0000DC0101900D920020E1F70895FB01DC015B
:101A10004150504030F08D910190801919F4002010
:101A2000B9F7881B990B0895FB01DC014150504028
:101A300048F001900D920020C9F701C01D9241505D
:101A40005040E0F70895BB274A3031F4992322F43F
:101A5000BDE2909581959F4F0C94370D7AE0979F4A
:101A6000902D879F802D910D11240895BB27FB0198
:101A70005527AA27880F991FAA1FA41710F0A41B87
:101A800083955051B9F7A05DAA3308F0A95DA193E1
:101A9000009779F7B111B1931192CB010C94500DCD
:101AA000DC01FC01672F71917723E1F7329704C0C5
:101AB0007C916D9370836291AE17BF07C8F3089550
:101AC000DC01CB01FC01F999FECF06C0F2BDE1BDFE
:101AD000F89A319600B40D9241505040B8F70895ED
:101AE000F999FECF92BD81BDF89A992780B50895E6
:101AF000DC01CB0103C02D910E94830D4150504069
:101B0000D0F70895262FF999FECF1FBA92BD81BD57
:101B100020BD0FB6F894FA9AF99A0FBE019608956F
:041B2000F894FFCF67
:101B24003E037072696E7400756E6C6F636B5F73E5
:101B34007469636B7300696E766572745F7374693C
:101B4400636B006C6F61645F70726F6600736176C3
:101B5400655F70726F66007365745F646566617556
:101B64006C745F70726F66006C6F61645F6465664D
:101B740061756C7473007365745F70696E0073656E
:101B8400745F7363616C650070001B5B324A1B5B9E
:101B940048002D6800616463204E72207C202D690A
:101BA400207C202D6D20780A0D002D69002D6D00FC
:101BB400202000735F6D5F650A0D00636C656172C0
:101BC40000616463004156522320003A20636F6D24
:101BD4006D616E64206E6F7420666F756E640A0D9D
:101BE400000D0A0009005E630A0D00082008006267
:101BF4006F660A0D006C6F6F705F6D61780A0D007F
:101C040063303A20002020200963313A200020204C
:101C1400200963323A20002020200963333A20004F
:101C24004552524F522075736520737469636B205B
:101C340069207363616C65206A0A0D000A0D633ABA
:101C440020000A0D70696E3A20000A0D7363616CFE
:101C5400653A20000A0D696E766572743A20000AAE
:101C64000D6D6964206E756C6C3A20000A0D6C6F02
:081C7400636B65643A20000077
:00000001FF
