:100000000C9434000C9451000C9451000C94510049
:100010000C9451000C9451000C9451000C9451001C
:100020000C9451000C9451000C9451000C9451000C
:100030000C9451000C9451000C9451000C945100FC
:100040000C9451000C9451000C94A4000C94510099
:100050000C9451000C9451000C9451000C945100DC
:100060000C9451000C94510011241FBECFEFD8E026
:10007000DEBFCDBF11E0A0E0B1E0E0E0FCE002C0F7
:1000800005900D92AC37B107D9F722E0ACE7B1E0AB
:1000900001C01D92A132B207E1F70E9462050C94E3
:1000A000FE050C940000ECE7F0E080818064808322
:1000B000EAE7F0E08081876880830895E0E0F1E07E
:1000C00090813296983098F480917C00807F892BC3
:1000D00080937C0080917A00806480937A00809184
:1000E0007A0086FDFCCF809178009091790081E0C4
:1000F000E830F80729F708959091C00095FFFCCFEC
:100100008093C60008958091C00087FFFCCF809146
:10011000C60008951092C50087E68093C40086E06B
:100120008093C200E1ECF0E0808188698083E6E1A1
:10013000F2E08CE790E09183808383E890E0938302
:1001400082831582148208951F920F920FB60F9228
:1001500011242F933F934F935F936F937F938F93CC
:100160009F93AF93BF93EF93FF93E0911A02F091A7
:100170001B02309719F08091C6000995FF91EF910D
:10018000BF91AF919F918F917F916F915F914F91AF
:100190003F912F910F900FBE0F901F9018950F93C6
:1001A0001F93CF93DF9300911F0210912002CAE0AA
:1001B000D1E08991882329F0D801ED91FC9109952E
:1001C000F8CFDF91CF911F910F9108956F927F9299
:1001D0009F92AF92BF92CF92DF92EF92FF920F93D6
:1001E0001F93CF93DF93CDB7DEB72A970FB6F8945E
:1001F000DEBF0FBECDBF8C01962EC62ED12C5C016A
:100200003C01E12CF12CEC14FD0414F542E050E02B
:1002100062E171E0D3018D919D913D010E94A405A1
:10022000892B21F0BFEFEB1AFB0AEDCFE7FC10C0E2
:10023000E0901F02F090200205E111E0F8018191A9
:100240008F01882339F1D701ED91FC910995F6CF03
:100250003801E12CF12CEC14FD04F4F442E050E000
:100260006AE271E0D3018D919D913D010E94A40548
:10027000892B21F0BFEFEB1AFB0AEDCFE7FC0CC096
:1002800080917C00806480937C0080917A008768F4
:1002900080937A0080E00CC1E12CF12CEC14FD0479
:1002A0000CF099C0C7010296C816D9060CF493C089
:1002B00042E050E06DE271E0F501819191915F01C2
:1002C0000E94A405892B21F0FFEFEF1AFF0AE6CF69
:1002D000E7FC81C0A0901F02B090200230E3C32E43
:1002E00031E0D32EF60181916F01882329F0D501E9
:1002F000ED91FC910995F6CFFE2D82E0F802000DFC
:10030000111D11240E5F1F4FC0901F02D0902002BC
:10031000D801ED90FC90F70181917F01882329F0AD
:10032000D601ED91FC910995F6CFC0901F02D090B7
:10033000200226E3E22E21E0F22EF70181917F01D7
:10034000882329F0D601ED91FC910995F6CFD801CB
:100350008D919C910E9476058830A0F490917C004C
:10036000907F892B80937C0080917A0080648093B9
:100370007A0080917A0086FDFCCF80917800909180
:10038000790002C08FEF9FEF4AE0BE016F5F7F4FA1
:100390000E94C105E0901F02F09020028C01F8013C
:1003A00081918F01882329F0D701ED91FC91099566
:1003B000F6CFE0901F02F09020020EE611E0F80167
:1003C00081918F01882329F0D701ED91FC91099546
:1003D000F6CF81E06DC091105DCF00E010E04AE003
:1003E000BE016F5F7F4FC8010E94C105C0901F0210
:1003F000D09020027C01F70181917F01882329F0B0
:10040000D601ED91FC910995F6CFC0901F02D090D6
:10041000200296E3E92E91E0F92EF70181917F0108
:10042000882329F0D601ED91FC910995F6CF8091B2
:100430007C00807F802B80937C0080917A00806498
:1004400080937A0080917A0086FDFCCF80917800BD
:10045000909179004AE0BE016F5F7F4F0E94C10515
:10046000C0901F02D09020027C01F70181917F0192
:10047000882329F0D601ED91FC910995F6CFC09023
:100480001F02D09020028EE6E82E81E0F82EF701C0
:1004900081917F01882329F0D601ED91FC91099586
:1004A000F6CF0F5F1F4F0830110509F098CFF2CE3D
:1004B0002A960FB6F894DEBF0FBECDBFDF91CF9165
:1004C0001F910F91FF90EF90DF90CF90BF90AF9072
:1004D0009F907F906F900895CF93DF93DA011C92E5
:1004E000EC012881222351F1203259F02D3049F0BE
:1004F0002A3039F0FB0181939193BF012C912F5F3A
:100500002C93FC0181918823C9F08032D9F7CF0167
:100510000197EC01188280818D30A1F38A3091F32C
:100520008F7D81F38C918F5F8C93883010F01C92BB
:1005300005C0EB01E993F993BE01E4CFDF91CF91C0
:100540000895AF92BF92CF92DF92EF92FF920F93F6
:100550001F93CF93DF936C015B017A0186E090E0FB
:100560000E944605EC010DEB11E0D8018D919C91A4
:10057000009711F08C01F9CF84E090E00E944605CD
:10058000F80191838083009739F400911F02109144
:100590002002C9E3D1E013C0DC011396DC93CE93B3
:1005A0001297209791F3B982A882DB82CA82FD82DA
:1005B000EC828091C1018F5F8093C10108C0899155
:1005C000882329F0D801ED91FC910995F8CFDF91AE
:1005D000CF911F910F91FF90EF90DF90CF90BF9040
:1005E000AF9008950F931F93CF93DF931092C101A3
:1005F00040E050E061E471E08FEC90E00E94A102E5
:1006000040E050E067E471E086EE90E00E94A102D5
:1006100000911F0210912002CBE4D1E08991882340
:1006200029F0D801ED91FC910995F8CFDF91CF9198
:100630001F910F9108959093200280931F0223EA47
:1006400034E0FC01358324830C94F202CF92DF92D4
:10065000FF920F931F93CF93DF938C01F62E6111BE
:1006600007C000911F0210912002CBE4D1E030C0FE
:10067000C091BD01D091BE01D8018C9111969C9181
:10068000209771F1CA80DB80D6016D917C910E9428
:100690009405892BC9F4F6018481958190931E02FB
:1006A00080931D02FA940E5F1F4FEA81FB81028046
:1006B000F381E02D6F2DC8010995882391F2809177
:1006C0001C02813091F7CDCF0990D881C02DD4CFB5
:1006D0008991882309F1D801ED91FC910995F8CF12
:1006E00000911F0210912002EC018991882329F0CA
:1006F000D801ED91FC910995F8CF00911F0210915E
:100700002002C1E5D1E08991882309F4AACFD8015C
:10071000ED91FC910995F7CFDF91CF911F910F914A
:10072000FF90DF90CF9008958091C3018823B1F0AE
:1007300010921C0242EC51E064EC71E084ED91E017
:100740000E946C0210921E0210921D026091C20162
:1007500084EC91E00E9426031092C30108956F92E9
:100760007F928F929F92AF92BF92CF92DF92EF9241
:10077000FF920F931F93CF93DF93EC01B62E7A0174
:100780000091BD011091BE014801A12C811491047A
:1007900089F1FE0101900020E9F73197AF014C1B70
:1007A0005D0BD4011296ED91FC91139760817181DC
:1007B000CE010E94A405892B11F4A3946401F401D5
:1007C00080809180E3CFFE0101900020E9F731970E
:1007D000AF014C1B5D0BD8011296ED91FC91139764
:1007E00060817181CE010E94A405892B39F0D80166
:1007F0000D911C910115110531F73CC0B1E0BA15FE
:10080000B0F780901F029090200297E6692E91E049
:10081000792EF30181913F01882329F0D401ED91D4
:10082000FC910995F6CF80901F0290902002D8018C
:100830001296ED91FC91139760807180F301819184
:100840003F01882329F0D401ED91FC910995F6CF61
:1008500080901F02909020028AE6682E81E0782E18
:10086000F30181913F01882311F2D401ED91FC91B4
:100870000995F6CFAA2009F457C0B1E0AB1228C001
:100880006B2D70E0AB0142505109D6011296ED91EB
:10089000FC91139760817181CE010E94B205C090D6
:1008A0001F02D0902002F70100811181F80181918F
:1008B0008F01882329F0D601ED91FC910995F6CF9F
:1008C00009900020E9F72197D701CD93DC932CC044
:1008D000E0901F02F09020020EE611E0F8018191F5
:1008E0008F01882329F0D701ED91FC910995F6CF6E
:1008F000E0901F02F09020020BE411E0F8018191DA
:100900008F01882329F0D701ED91FC910995F6CF4D
:1009100000911F02109120028991882329F0D801AB
:10092000ED91FC910995F8CFDF91CF911F910F9137
:10093000FF90EF90DF90CF90BF90AF909F908F90FF
:100940007F906F9008950F931F93CF93DF93C82FDD
:100950008091BC01833271F4C33661F481E08093ED
:100960001C0284ED91E090930901809308016CE6EC
:1009700071E022C08091C301813051F4E0911D02E9
:10098000F0911E02309709F44CC08C2F099549C094
:10099000E0910801F0910901CD3011F0CA3089F4DD
:1009A000108284ED91E0909309018093080181E029
:1009B0008093C3016EE671E086EB91E00E949D0595
:1009C00043C0C83011F0CF37D9F481E0E43DF807D7
:1009D000A1F098F03197F0930901E093080100919C
:1009E0001F0210912002C1E7D1E089918823E1F133
:1009F000D801ED91FC910995F8CF64E771E0DCCF67
:100A0000B2E0EE30FB0718F065E771E0D5CFC930F2
:100A100059F4108248E051E06CE384ED91E00E94CB
:100A2000AF031092B60110C0C032D8F3C0838091DA
:100A300008019091090101969093090180930801A2
:100A4000C093B6011092B701C093BC0100911F0280
:100A500010912002C6EBD1E08991882329F0D801BA
:100A6000ED91FC910995F8CFDF91CF911F910F91F6
:100A7000089590931502809314027093130260936B
:100A80001202909311028093100208952091100297
:100A900030911102820F931F609114027091150220
:100AA0004091120250911302460F571F8417950769
:100AB00030F49093110280931002C901089580E0F0
:100AC00090E0089562E370E084E891E00E943905C7
:100AD0000E948A00789486E192E00E941B030E94A3
:100AE00053000E9494030E945E00FBCFFC01882704
:100AF0009927E89421912032E9F3293010F02E3023
:100B0000C8F32B3241F02D3239F4689404C00E94AE
:100B1000CC05820F911D219120532A30C0F31EF481
:100B2000909581959F4F0895FB01DC018D91019077
:100B300080190110D9F3990B0895FB01DC01019094
:100B40000D920020E1F70895FB01DC014150504077
:100B500030F08D910190801919F40020B9F7881BAD
:100B6000990B0895FB01DC014150504048F0019081
:100B70000D920020C9F701C01D9241505040E0F78E
:100B80000895BB274A3031F4992322F4BDE29095B1
:100B900081959F4F0C94D5057AE0979F902D879F64
:100BA000802D910D11240895BB27FB015527AA27FD
:100BB000880F991FAA1FA41710F0A41B83955051EA
:100BC000B9F7A05DAA3308F0A95DA193009779F762
:100BD000B111B1931192CB010C94EE05DC01FC0133
:100BE000672F71917723E1F7329704C07C916D9361
:100BF00070836291AE17BF07C8F30895F894FFCFD2
:100C00000000010002000300D4011B5B324A1B5BA1
:100C100048002D6800616463204E72207C202D699D
:100C2000207C202D6D20780A0D002D69002D6D008F
:100C300070696E3A2000202000735F6D5F650A0DB9
:100C400000636C6561720061646300415652232049
:100C5000003A20636F6D6D616E64206E6F74206664
:100C60006F756E640A0D000D0A0009005E630A0DBF
:0C0C70000008200800626F660A0D0000FA
:00000001FF
