:100000000C9434000C9451000C9451000C94510049
:100010000C9451000C9451000C9451000C9451001C
:100020000C9451000C9451000C9451000C9451000C
:100030000C9451000C9451000C9451000C945100FC
:100040000C9451000C9451000C9480020C945100BB
:100050000C9451000C9451000C9451000C945100DC
:100060000C9451000C94510011241FBECFEFD8E026
:10007000DEBFCDBF12E0A0E0B1E0EAEEF1E102C0E8
:1000800005900D92A230B107D9F722E0A2E0B2E0CC
:1000900001C01D92AD39B207E1F70E94AE050C9484
:1000A000F3080C9400001092C50080E18093C40016
:1000B00086E08093C200E1ECF0E080818869808373
:1000C00008959091C00095FFFCCF8093C6000895DD
:1000D000CF93C82F8A3019F48DE00E9468008C2FCE
:1000E0000E94610080E090E0CF9108958091C0006F
:1000F00087FFFCCF8091C60008951F93CF93DF93B5
:10010000EC0110E0812F90E0FE0101900020E9F762
:100110003197EC1BFD0B8E179F0740F4FE01E80F93
:10012000F91F80810E9461001F5FECCFDF91CF91AA
:100130001F91089580E091E090939A028093990234
:1001400008950C948D01CF93DF93FC01DA011C928A
:100150008081882351F1803259F08D3049F08A3006
:1001600039F0EB01E993F993BE018C918F5F8C9389
:10017000CF01EC012991CE012223B9F0203299F46C
:10018000108221812D3079F02A3069F02F7D59F0CD
:100190002C912F5F2C93283010F01C9206C0EB019D
:1001A00089939993BE013196E4CFDF91CF91089561
:1001B00080910202882381F045E252E065E172E01D
:1001C00086E292E00E94A3006091250285E192E020
:1001D0000E94A301109202020895E0910E01F09195
:1001E0000F018D3031F08A3021F090910202913070
:1001F00069F4108286E292E090930F0180930E01E1
:1002000081E08093020265E971E010C0883011F04E
:100210008F37A1F482E0E632F80769F060F0319799
:10022000F0930F01E0930E016CE171E083E092E046
:100230000E94130618C06FE171E0F8CF92E0E0363B
:10024000F90718F060E271E0F1CF803218F41092F3
:10025000030209C08193F0930F01E0930E01809394
:1002600003021092040283E092E0089586E291E096
:100270009F938F930E9430060F900F9008951F93C5
:10028000CF93DF938EE291E09F938F930E9430068D
:100290000F900F9010E0CAE3D1E08091620218172E
:1002A000A0F484E0189FF0011124ED59FD4F8181E5
:1002B0008F9380818F93DF93CF930E9430061F5FCF
:1002C0000F900F900F900F90E8CFDF91CF911F917B
:1002D0000895209162022B3048F08FE391E09F93C4
:1002E0008F930E9430060F900F90089534E0239F63
:1002F000F0011124ED59FD4F718360839383828354
:100300002F5F20936202089583E591E09F938F937E
:100310000E9430060F900F9008951092620269E5D6
:1003200071E086E391E00E9469016BEF71E08FE379
:1003300091E00E9469016FE571E086E392E00E941E
:1003400069010C9484019F92AF92BF92CF92DF9289
:10035000EF92FF920F931F93CF93DF93EC01A62EA2
:100360006623D9F19090620293E6E92E92E0F92E8D
:1003700000E010E0B02E0915F0F46801F70160818B
:100380007181888199810E940A060F5F1F4FF4E0F6
:10039000EF0EF11C892B71F7F601EE0FFF1FEE0F28
:1003A000FF1FED59FD4F6FEF6A0D0280F381E02DC5
:1003B000CE010296099580916202B8120EC0898121
:1003C0008F9388818F9384E691E09F938F930E940F
:1003D00030060F900F900F900F90DF91CF911F91EB
:1003E0000F91FF90EF90DF90CF90BF90AF909F90D4
:1003F0000C948401AF92BF92CF92DF92EF92FF9262
:100400000F931F93CF93DF937B018A0159016C01F6
:10041000C0E0D0E0CE15DF05D4F4CE018A0D9B1DDF
:10042000E816F906A4F0F80101900020E9F7AF0101
:1004300041505109401B510BB801F6018191919136
:100440006F010E941A06892B29F02196E3CF8FEFC6
:100450009FEF01C0CE01DF91CF911F910F91FF90CF
:10046000EF90DF90CF90BF90AF9008950F931F93C0
:10047000CF93DF93EC01062F10E021E030E04CE752
:1004800051E0B8010E94FA0187FD08C082E891E0BE
:100490009F938F930E9430060F900F9022E030E0E0
:1004A00048E951E0B801CE010E94FA0187FD05C07C
:1004B0008A819B810E94EC0585B922E030E04BE9FE
:1004C00051E0B801CE010E94FA0187FD05C08A8182
:1004D0009B810E94EC0588B922E030E04EE951E0B2
:1004E000B801CE010E94FA0187FD05C08A819B8177
:1004F0000E94EC058BB9DF91CF911F910F91089568
:100500001F920F920FB60F9211242F933F934F9388
:100510005F936F937F938F939F93AF93BF93EF936B
:10052000FF938091C600E0911001F09111010995AF
:100530000E947D00FF91EF91BF91AF919F918F91AC
:100540007F916F915F914F913F912F910F900FBECF
:100550000F901F9018950F931F93CF93DF93182F31
:10056000EB0180ED0E943605812F0E94890581ED07
:100570000E947F050E949A05082F10E0102F002787
:10058000198308830E949A05082B198308830E9407
:100590009A05082F10E0102F00271B830A830E9462
:1005A0009A05082B1B830A830E949A05082F10E0E6
:1005B000102F00271D830C830E94A405082B1D8388
:1005C0000C83DF91CF911F910F910C948105BC0199
:1005D0008BE30C94AB02BC0183E40C94AB02CF938D
:1005E000DF934150A0F0242F30E0220F331FDC01B5
:1005F000A20FB31FEB01C20FD31FED91FC91119716
:1006000028813981E20FF31FED93FC93EACFDF914C
:10061000CF910895CF93DF934150A0F0242F30E085
:10062000220F331FDC01A20FB31FEB01C20FD31F38
:10063000ED91FC91119728813981E21BF30BED9329
:10064000FC93EACFDF91CF910895CF93DF93EC0134
:100650009B01415068F0FE01E40FF11DE40FF11D14
:1006600080819181B9010E94C40571836083F1CFBB
:10067000DF91CF910895415080F0FC01E40FF11D0E
:10068000E40FF11D20813181062E02C0359527959A
:100690000A94E2F731832083EECF0895009741F06A
:1006A000EFE9FFE03197F1F700C000000197F6CFC6
:1006B00008951F93CF93DF93EC01162F40E06BE674
:1006C00080ED0E94FB0440E06CE680ED0E94FB049C
:1006D00040EE6BE180ED0E94FB0440EE6CE180EDAA
:1006E0000E94FB04C83E83E0D80749F0C03D87E084
:1006F000D80739F0C43FD14031F448E005C040E1AB
:1007000003C048E101C040E06BE180ED0E94FB04C2
:10071000183031F0103131F0143031F448E005C0B8
:1007200040E103C048E101C040E06BE180ED0E9480
:10073000FB0480E197E2DF91CF911F910C944E036F
:10074000AF92BF92CF92DF92EF92FF920F931F93DF
:10075000CF93DF9300D000D000D0CDB7DEB77C01BF
:100760008B01C42ED12CFC01108211821282FB015C
:10077000108211821282A12CB12CCA14DB04F1F078
:1007800082E390E00E944E03CE0101960E94EB02AC
:1007900043E0BE016F5F7F4FC7010E94EF02CE01B1
:1007A00001960E94E70243E0BE016F5F7F4FC801E0
:1007B0000E94EF02FFEFAF1ABF0ADFCF43E0B6019E
:1007C000C7010E94250343E0B601C8010E9425032A
:1007D00026960FB6F894DEBF0FBECDBFDF91CF9146
:1007E0001F910F91FF90EF90DF90CF90BF90AF904F
:1007F0000895FF920F931F93CF93DF93EC018B012A
:10080000F42E0E94E70243E0B801CE010E940A03E1
:1008100043E06F2DCE01DF91CF911F910F91FF909B
:100820000C943B03FF920F931F93CF93DF93EC0144
:100830008B01F42E0E94EB0243E0B801CE010E942E
:100840000A0343E06F2DCE01DF91CF911F910F91ED
:10085000FF900C943B0344E06BE872E089E092E087
:100860000E94120446E061E972E08FE092E00E948B
:10087000F903E3E1F2E081818F9380818F93E1E1DD
:10088000F2E081818F9380818F93EFE0F2E08181AC
:100890008F9380818F9381EA91E09F938F930E9441
:1008A00030068DB79EB708960FB6F8949EBF0FBE60
:1008B0008DBF0895AF92BF92DF92EF92FF920F9398
:1008C0001F93CF93DF931F92CDB7DEB75C01D62E77
:1008D000E62EF12C21E030E04CE751E0B7010E9418
:1008E000FA0187FD10C08AEB91E09F938F930E94DD
:1008F00030068BED91E09F938F930E9430060F900E
:100900000F900F900F9021E030E044EF51E0B701DD
:10091000C5010E94FA0187FD26C093E0D91217C0D5
:100920008501E2E08E02000D111D11240C5F1F4FA6
:10093000F801808191810E94EC05682FF8013297BF
:100940008081918169830E94EC05698103C060E028
:1009500080E090E00E9459034AE061E972E08BE890
:1009600092E00E94A00321E030E04AEF51E0B7019D
:10097000C5010E94FA0187FD33C0F2E0FD1520F5A4
:10098000082F112707FD10950F5F1F4F000F111F34
:10099000F501E00FF11F808191810E94EC057C013F
:1009A0000E5F1F4F0A0D1B1DE114F104C9F00E94D8
:1009B0002B04F801808191810E94EC050E944E0376
:1009C000F1E0EF1AF108F0CF0F90DF91CF911F9176
:1009D0000F91FF90EF90DF90BF90AF900C942B049D
:1009E0000F90DF91CF911F910F91FF90EF90DF90CB
:1009F000BF90AF900895CF93DF9300D0CDB7DEB70F
:100A00004A8369830E9436056981862F0E94890581
:100A10004A81842F0E9489050F900F90DF91CF911A
:100A20000C9481051F93CF93DF931F92CDB7DEB750
:100A3000182F69830E9436056981862F0E948905D7
:100A400081E0810F0E947F050E94A40589830E9496
:100A50008105898190E00F90DF91CF911F910895DA
:100A60001092B9008CE08093B800089594EA9093B6
:100A7000BC009091BC0097FFFCCF9091B900987F8B
:100A8000983021F0903111F081E008958093BB00FF
:100A900084E88093BC008091BC0087FFFCCF8091EC
:100AA000B900887F883111F0803471F780E00895B3
:100AB00024EA34E844E92093BC009091BC0097FFFD
:100AC000FCCF9091B900987F983011F0903199F750
:100AD0008093BB003093BC009091BC0097FFFCCF8B
:100AE0009091B900987F903211F0983539F4409385
:100AF000BC009091BC0094FDFCCFDDCF08950C9418
:100B0000360584E98093BC008091BC0084FDFCCF55
:100B100008958093BB0084E88093BC008091BC0062
:100B200087FFFCCF9091B900987F81E0983209F45B
:100B300080E0089584EC8093BC008091BC0087FF26
:100B4000FCCF8091BB00089584E88093BC00809125
:100B5000BC0087FFFCCF8091BB0008950E9453002A
:100B6000789482E191E00E947D000E949A000E94A8
:100B7000A1000E94300568E171E08AE594E00E94DE
:100B800069010E94D800FDCF97FB072E16F4009450
:100B900007D077FD09D00E94D80507FC05D03EF4A8
:100BA000909581959F4F0895709561957F4F089519
:100BB000AA1BBB1B51E107C0AA1FBB1FA617B70783
:100BC00010F0A61BB70B881F991F5A95A9F780959F
:100BD0009095BC01CD010895FC0188279927E894E0
:100BE00021912032E9F3293010F02E30C8F32B3256
:100BF00041F02D3239F4689404C00E942806820F17
:100C0000911D219120532A30C0F31EF490958195B7
:100C10009F4F0895FB01DC018D9101908019011017
:100C2000D9F3990B0895FB01DC0101900D9200208E
:100C3000E1F70895FB01DC014150504030F08D9107
:100C40000190801919F40020B9F7881B990B0895B9
:100C50007AE0979F902D879F802D910D1124089504
:100C6000A0E0B0E0E6E3F6E00C94CC08FE01359697
:100C700061917191AF018091990290919A020E94C5
:100C80004406E2E00C94E808ACE0B0E0EAE4F6E008
:100C90000C94BC087C016B018A01FC01178216824E
:100CA000838181FFBDC1CE0101964C01F701938183
:100CB000F60193FD859193FF81916F01882309F4DB
:100CC000ABC1853239F493FD859193FF81916F011A
:100CD000853229F4B70190E00E942C08E7CF512C0F
:100CE000312C20E02032A0F48B3269F030F48032D5
:100CF00059F0833269F420612CC08D3239F0803391
:100D000039F4216026C02260246023C0286021C0FD
:100D100027FD27C030ED380F3A3078F426FF06C0A3
:100D2000FAE05F9E300D1124532E13C08AE0389EE6
:100D3000300D1124332E20620CC08E3221F426FD9A
:100D40006BC1206406C08C3611F4206802C088365E
:100D500041F4F60193FD859193FF81916F0181111B
:100D6000C1CF982F9F7D9554933028F40C5F1F4F6F
:100D7000FFE3F9830DC0833631F0833771F083359B
:100D800009F05BC022C0F801808189830E5F1F4F8C
:100D900044244394512C540115C03801F2E06F0EE5
:100DA000711CF801A080B18026FF03C0652D70E0A2
:100DB00002C06FEF7FEFC5012C870E9421082C0134
:100DC00083012C852F77222E17C03801F2E06F0E99
:100DD000711CF801A080B18026FF03C0652D70E072
:100DE00002C06FEF7FEFC5012C870E9416082C010F
:100DF0002C852068222E830123FC1BC0832D90E0CC
:100E000048165906B0F4B70180E290E00E942C0821
:100E10003A94F4CFF50127FC859127FE81915F017B
:100E2000B70190E00E942C0831103A94F1E04F1A7B
:100E300051084114510471F7E5C0843611F0893628
:100E400039F5F80127FF07C06081718182819381A4
:100E50000C5F1F4F08C060817181882777FD8095E6
:100E6000982F0E5F1F4F2F76B22E97FF09C09095D7
:100E70008095709561957F4F8F4F9F4F2068B22E60
:100E80002AE030E0A4010E945E08A82EA81844C001
:100E9000853729F42F7EB22E2AE030E025C0F22FCC
:100EA000F97FBF2E8F36C1F018F4883579F0B4C0C1
:100EB000803719F0883721F0AFC02F2F2061B22E74
:100EC000B4FE0DC08B2D8460B82E09C024FF0AC06B
:100ED0009F2F9660B92E06C028E030E005C020E1C3
:100EE00030E002C020E132E0F801B7FE07C06081C7
:100EF0007181828193810C5F1F4F06C06081718177
:100F000080E090E00E5F1F4FA4010E945E08A82EB3
:100F1000A818FB2DFF77BF2EB6FE0BC02B2D2E7F02
:100F2000A51450F4B4FE0AC0B2FC08C02B2D2E7ECE
:100F300005C07A2C2B2D03C07A2C01C0752C24FF00
:100F40000DC0FE01EA0DF11D8081803311F4297E70
:100F500009C022FF06C07394739404C0822F867860
:100F600009F0739423FD13C020FF06C05A2C73149C
:100F700018F4530C5718732C731468F4B70180E2FB
:100F800090E02C870E942C0873942C85F5CF731465
:100F900010F4371801C0312C24FF12C0B70180E3D0
:100FA00090E02C870E942C082C8522FF17C021FF7F
:100FB00003C088E590E002C088E790E0B7010CC06C
:100FC000822F867859F021FD02C080E201C08BE2B9
:100FD00027FD8DE2B70190E00E942C08A51438F49B
:100FE000B70180E390E00E942C085A94F7CFAA94AE
:100FF000F401EA0DF11D8081B70190E00E942C08F8
:10100000A110F5CF332009F451CEB70180E290E072
:101010000E942C083A94F6CFF7018681978102C08E
:101020008FEF9FEF2C96E2E10C94D808FC0105901D
:10103000615070400110D8F7809590958E0F9F1FDA
:101040000895FC016150704001900110D8F780951F
:1010500090958E0F9F1F08950F931F93CF93DF934B
:10106000182F092FEB018B8181FD03C08FEF9FEFBC
:1010700020C082FF10C04E815F812C813D814217CC
:1010800053077CF4E881F9819F012F5F3F4F39833B
:101090002883108306C0E885F985812F0995892B5F
:1010A00029F72E813F812F5F3F4F3F832E83812F72
:1010B000902FDF91CF911F910F910895FA01AA27E8
:1010C000283051F1203181F1E8946F936E7F6E5F8B
:1010D0007F4F8F4F9F4FAF4FB1E03ED0B4E03CD039
:1010E000670F781F891F9A1FA11D680F791F8A1F1C
:1010F000911DA11D6A0F711D811D911DA11D20D083
:1011000009F468943F912AE0269F11243019305D3C
:101110003193DEF6CF010895462F4770405D41932D
:10112000B3E00FD0C9F7F6CF462F4F70405D4A337A
:1011300018F0495D31FD4052419302D0A9F7EACF42
:10114000B4E0A6959795879577956795BA95C9F771
:1011500000976105710508959B01AC010A2E069464
:101160005795479537952795BA95C9F7620F731F1D
:10117000841F951FA01D08952F923F924F925F925A
:101180006F927F928F929F92AF92BF92CF92DF9297
:10119000EF92FF920F931F93CF93DF93CDB7DEB7FC
:1011A000CA1BDB0B0FB6F894DEBF0FBECDBF099490
:1011B0002A88398848885F846E847D848C849B84E7
:1011C000AA84B984C884DF80EE80FD800C811B81F5
:1011D000AA81B981CE0FD11D0FB6F894DEBF0FBE24
:0A11E000CDBFED010895F894FFCF94
:1011EA000000000200000000680000000000260263
:1011FA00ED004D50550A0D006D707500082008006D
:10120A00626F660A0D001B5B324A1B5B4800636F04
:10121A006D616E646F733A0A0D0025730A0D0054EE
:10122A004F4F4C4C495354204F464552464C4F570A
:10123A000A0D00415652232000636C6561720070EA
:10124A006F72740025733A20636F6D6D616E64204E
:10125A006E6F7420666F756E640A0D002D68656C7A
:10126A007000706F7274202D622F632F64202276B3
:10127A00616C7565220A0D002D62002D63002D64D4
:10128A0000414343454C3A583D25642C20593D259D
:10129A00642C205A3D25640A0D006D7075202D6955
:1012AA006E6974206779726F5363616C652061633C
:1012BA0063656C5363616C650A0D006D7075202D52
:1012CA007072696E742028616E7A207274696D6515
:1012DA00290A0D002D696E6974002D7072696E7489
:0212EA00000002
:00000001FF
