:100000000C9434000C94AB000C94DA000C94510066
:100010000C9451000C9451000C9451000C9451001C
:100020000C9451000C9451000C9451000C949900C4
:100030000C9451000C9451000C9451000C945100FC
:100040000C9451000C9451000C9451000C945100EC
:100050000C9451000C9451000C9451000C945100DC
:100060000C9451000C94510011241FBECFEFD8E026
:10007000DEBFCDBF11E0A0E0B1E0EAE3F3E002C0F3
:1000800005900D92AE30B107D9F721E0AEE0B1E0B6
:1000900001C01D92AA31B207E1F70E947B010C94C6
:1000A0009B010C94000080E090E490938900809381
:1000B0008800E1E8F0E0808188608083AFE6B0E00E
:1000C0008C9182608C938081856080830895E9E6BD
:1000D000F0E080818A608083E99AE89A08958FEF42
:1000E00084B91BB80E9457010E9453000E94670008
:1000F0001AB81BB8089581E00E94620167E070E0C1
:100100000E948701709313016093120190910F0177
:1001100080910E01981751F080911001909111017A
:100120008617970718F02D9A2C9A08952D982C98D9
:1001300008951F920F920FB60F92112410920F0183
:1001400010920E0110921101109210010F900FBE2B
:100150000F901F9018951F920F920FB60F921124B7
:100160002F938F939F93E898E0982FEF83EC99E07B
:10017000215080409040E1F700C00000E09909C0A4
:10018000809110019091110101969093110180933B
:10019000100181E080930F0110928500109284007D
:1001A000E098E89A9F918F912F910F900FBE0F903A
:1001B0001F9018951F920F920FB60F9211242F9334
:1001C0008F939F93E998E1982FEF83EC99E021506A
:1001D00080409040E1F700C00000E19909C08091A3
:1001E00010019091110101969093110180931001DB
:1001F00081E080930E011092850010928400E198B6
:10020000E99A9F918F912F910F900FBE0F901F90A1
:1002100018951092C50087E68093C40086E080930D
:10022000C200E1ECF0E080818869808308959091BC
:10023000C00095FFFCCF8093C6000895CF93C82FD0
:100240008A3019F48DE00E941E018C2F0E94170144
:1002500080E090E0CF9108958091C00087FFFCCFAF
:100260008091C60008951F93CF93DF93EC0110E0B7
:10027000212F30E0FE0101900020E9F73197EC1BBF
:10028000FD0B2E173F0740F4FE01E20FF31F8081A4
:100290000E9417011F5FECCFDF91CF911F9108954E
:1002A00080E091E090931701809316010895ECE7A8
:1002B000F0E0808180648083EAE7F0E080818768F5
:1002C000808308958F30A0F490917C00907F892BDB
:1002D00080937C0080917A00806480937A00809182
:1002E0007A0086FDFCCF8091780090917900089586
:1002F0008FEF9FEF08958FE19EE40197F1F700C023
:1003000000000E946F0078940E947B00FDCFAA1B22
:10031000BB1B51E107C0AA1FBB1FA617B70710F0F0
:10032000A61BB70B881F991F5A95A9F78095909522
:0A033000BC01CD010895F894FFCF41
:0E033A0000000002000000001E010000000094
:00000001FF
