:100000000C9434000C9451000C9451000C94510049
:100010000C9451000C9451000C9451000C9451001C
:100020000C9451000C9451000C9451000C9451000C
:100030000C9451000C9451000C9451000C945100FC
:100040000C9451000C9451000C9455030C945100E5
:100050000C9451000C9451000C9451000C945100DC
:100060000C9451000C94510011241FBECFEFD8E026
:10007000DEBFCDBF11E0A0E0B1E0EAE6FDE002C0E6
:1000800005900D92AE3DB107D9F722E0AEEDB1E09B
:1000900001C01D92A937B207E1F70E9480030C94BA
:1000A000B3060C9400000E94F400789484E291E07E
:1000B0000E941E010E94420140E050E062E371E0B4
:1000C00080EA90E00E9421020C9489000C9479014E
:1000D0009091DE01882341F09F5F9093DE01943080
:1000E0005CF01092DE0108C091509093DE0197FF02
:1000F00003C083E08093DE018AB1E091DE01FF2737
:10010000E7FDF095E050FF4F807F9081892B8AB901
:1001100008958AB180638AB908958AB18AB9089529
:100120008AB1807F8AB908950895009741F0EFE978
:10013000FFE03197F1F700C000000197F6CF089576
:10014000FF920F931F93CF93DF93EC01062F10E0E4
:1001500021E030E046E351E0B8010E94D00287FD83
:1001600007C064E171E089E391E00E94DB0335C0E0
:1001700021E030E04CE451E0B801CE010E94D00211
:10018000F82EF094FF1CFF24FF1C22E030E04FE427
:1001900051E0B801CE010E94D00287FD0BC092E071
:1001A0008902C00DD11D11248A819B810E94850383
:1001B000EC0102C0CAE0D0E0209779F08F2D0E94B8
:1001C000680084E690E00E94950064E171E082E5B9
:1001D00091E00E94DB032197EFCF80E0DF91CF9188
:1001E0001F910F91FF9008951092C50087E68093AC
:1001F000C40086E08093C200E1ECF0E08081886971
:10020000808308959091C00095FFFCCF8093C60035
:100210000895CF93C82F8A3019F48DE00E94090108
:100220008C2F0E94020180E090E0CF910895809190
:10023000C00087FFFCCF8091C60008951F93CF9325
:10024000DF93EC0110E0812F90E0FE01019000208F
:10025000E9F73197EC1BFD0B8E179F0740F4FE0169
:10026000E80FF91F80810E9402011F5FECCFDF9130
:10027000CF911F91089584E091E09093760280934E
:10028000750208950C944102CF93DF93FC01DA01CB
:100290001C928081882351F1803259F08D3049F0D1
:1002A0008A3039F0EB01E993F993BE018C918F5FAD
:1002B0008C93CF01EC012991CE012223B9F0203299
:1002C00099F4108221812D3079F02A3069F02F7D48
:1002D00059F02C912F5F2C93283010F01C9206C0FF
:1002E000EB0189939993BE013196E4CFDF91CF91D1
:1002F00008958091E6018823A1F045EE51E067EE74
:1003000071E087EF91E00E94440110927102109217
:1003100070026091E50187EE91E00E945D0210920B
:10032000E60108959091E601913041F4E091700268
:10033000F09171023097C1F1099536C0E091120138
:10034000F09113018D3011F08A3069F4108287EF3B
:1003500091E0909313018093120181E08093E60174
:1003600069E471E010C0883011F08F37A1F481E0AA
:10037000E73FF80769F060F03197F0931301E093DD
:10038000120169E571E08FED91E00E94AC0318C0A5
:100390006CE571E0F8CF92E0E133F90718F06DE514
:1003A00071E0F1CF803218F41092DF0109C081931F
:1003B000F0931301E09312018093DF011092E001AA
:1003C0008FED91E0089564E171E083E691E00E9491
:1003D000DB0380E00895EF92FF920F931F93CF937A
:1003E000DF9364E171E08BE691E00E94DB03F12C86
:1003F00086E0E82EC7E7D1E004E111E080916F02CA
:10040000F816B8F4EF9CF0011124ED5CFD4F8181EA
:100410008F9380818F93DF93CF931F930F930E94CD
:10042000C903F3940F900F900F900F900F900F90BF
:10043000E5CF80E0DF91CF911F910F91FF90EF907A
:10044000089520916F022B3030F064E171E08CE769
:1004500091E00C94DB0336E0239FF0011124ED5C66
:10046000FD4F7183608393838283558344832F5F21
:1004700020936F02089564E171E080E991E00C94AB
:10048000DB0310926F0240E050E066E971E083EE1A
:1004900091E00E94210240E050E06CE971E08BEEB7
:1004A00091E00E94210240E050E062EA71E08CE0BD
:1004B00093E00E9421020C943B029F92AF92BF9264
:1004C000CF92DF92EF92FF920F931F93CF93DF9320
:1004D000EC01A62E662309F456C090906F0293E3B8
:1004E000E92E92E0F92E00E010E0B02E091568F533
:1004F0006801D7016D917C91888199810E94A30345
:100500000F5F1F4FB6E0EB0EF11C892B71F786E0F1
:100510008C9DF0018D9DF00D1124ED5CFD4F8481CB
:10052000958190937102809370028F010E5F1F4F2F
:10053000AA947E01E2E0EE0EF11CD801ED91FC914F
:100540006A2DC7010995811119C080916F02B812F7
:100550001AC089818F9388818F9387EA91E09F9356
:100560008F9384E191E09F938F930E94C9030F9032
:100570000F900F900F900F900F9005C08091720216
:100580008111DBCFE2CFDF91CF911F910F91FF90CF
:10059000EF90DF90CF90BF90AF909F900C943B0274
:1005A000AF92BF92CF92DF92EF92FF920F931F9381
:1005B000CF93DF937B018A0159016C01C0E0D0E049
:1005C000CE15DF05D4F4CE018A0D9B1DE816F90681
:1005D000A4F0F80101900020E9F7AF014150510962
:1005E000401B510BB801F601819191916F010E945E
:1005F000B303892B29F02196E3CF8FEF9FEF01C042
:10060000CE01DF91CF911F910F91FF90EF90DF907E
:10061000CF90BF90AF9008950F931F93CF93DF9328
:10062000EC01062F10E021E030E046E351E0B80194
:100630000E94D00287FD06C064E171E08FEB91E07B
:100640000E94DB0322E030E045ED51E0B801CE012D
:100650000E94D00287FD05C08A819B810E9485038C
:1006600085B922E030E048ED51E0B801CE010E94AA
:10067000D00287FD05C08A819B810E94850388B9CD
:1006800022E030E04BED51E0B801CE010E94D002F3
:1006900087FD05C08A819B810E9485038BB980E01C
:1006A000DF91CF911F910F9108951F920F920FB676
:1006B0000F9211242F933F934F935F936F937F93E8
:1006C0008F939F93AF93BF93EF93FF938091C60057
:1006D000E0912201F091230109950E941E01FF91F2
:1006E000EF91BF91AF919F918F917F916F915F91AA
:1006F0004F913F912F910F900FBE0F901F90189523
:100700000E9453000E947901FDCFFC0188279927A0
:10071000E89421912032E9F3293010F02E30C8F30B
:100720002B3241F02D3239F4689404C00E94C10389
:10073000820F911D219120532A30C0F31EF4909511
:1007400081959F4F0895FB01DC018D9101908019E7
:100750000110D9F3990B0895FB01DC0101900D9272
:100760000020E1F70895FB01DC014150504030F0DA
:100770008D910190801919F40020B9F7881B990B0D
:1007800008957AE0979F902D879F802D910D1124D9
:100790000895A0E0B0E0EFECF3E00C948C06AE011D
:1007A000475F5F4F6F8178858D819E810E94040431
:1007B000E2E00C94A806EF92FF920F931F93CF9361
:1007C000DF938B01DB0113962C9121FF16C0EC0106
:1007D000E12CF12C8991882371F0D8011896ED91C4
:1007E000FC911997B8010995892BA1F3EE24EA949D
:1007F000FF24FA94EFCFC70102C08FEF9FEFCDB770
:10080000DEB7E6E00C94A406ACE0B0E0EAE0F4E089
:100810000C947C067C016B018A01FC011782168214
:10082000838181FFBDC1CE0101964C01F701938107
:10083000F60193FD859193FF81916F01882309F45F
:10084000ABC1853239F493FD859193FF81916F019E
:10085000853229F4B70190E00E94EC05E7CF512CD6
:10086000312C20E02032A0F48B3269F030F4803259
:1008700059F0833269F420612CC08D3239F0803315
:1008800039F4216026C02260246023C0286021C082
:1008900027FD27C030ED380F3A3078F426FF06C028
:1008A000FAE05F9E300D1124532E13C08AE0389E6B
:1008B000300D1124332E20620CC08E3221F426FD1F
:1008C0006BC1206406C08C3611F4206802C08836E3
:1008D00041F4F60193FD859193FF81916F018111A0
:1008E000C1CF982F9F7D9554933028F40C5F1F4FF4
:1008F000FFE3F9830DC0833631F0833771F0833520
:1009000009F05BC022C0F801808189830E5F1F4F10
:1009100044244394512C540115C03801F2E06F0E69
:10092000711CF801A080B18026FF03C0652D70E026
:1009300002C06FEF7FEFC5012C870E94E1052C01FB
:1009400083012C852F77222E17C03801F2E06F0E1D
:10095000711CF801A080B18026FF03C0652D70E0F6
:1009600002C06FEF7FEFC5012C870E94D6052C01D6
:100970002C852068222E830123FC1BC0832D90E050
:1009800048165906B0F4B70180E290E00E94EC05E9
:100990003A94F4CFF50127FC859127FE81915F0100
:1009A000B70190E00E94EC0531103A94F1E04F1A43
:1009B00051084114510471F7E5C0843611F08936AD
:1009C00039F5F80127FF07C0608171818281938129
:1009D0000C5F1F4F08C060817181882777FD80956B
:1009E000982F0E5F1F4F2F76B22E97FF09C090955C
:1009F0008095709561957F4F8F4F9F4F2068B22EE5
:100A00002AE030E0A4010E941E06A82EA81844C0C7
:100A1000853729F42F7EB22E2AE030E025C0F22F50
:100A2000F97FBF2E8F36C1F018F4883579F0B4C045
:100A3000803719F0883721F0AFC02F2F2061B22EF8
:100A4000B4FE0DC08B2D8460B82E09C024FF0AC0EF
:100A50009F2F9660B92E06C028E030E005C020E147
:100A600030E002C020E132E0F801B7FE07C060814B
:100A70007181828193810C5F1F4F06C060817181FB
:100A800080E090E00E5F1F4FA4010E941E06A82E7A
:100A9000A818FB2DFF77BF2EB6FE0BC02B2D2E7F87
:100AA000A51450F4B4FE0AC0B2FC08C02B2D2E7E53
:100AB00005C07A2C2B2D03C07A2C01C0752C24FF85
:100AC0000DC0FE01EA0DF11D8081803311F4297EF5
:100AD00009C022FF06C07394739404C0822F8678E5
:100AE00009F0739423FD13C020FF06C05A2C731421
:100AF00018F4530C5718732C731468F4B70180E280
:100B000090E02C870E94EC0573942C85F5CF73142C
:100B100010F4371801C0312C24FF12C0B70180E354
:100B200090E02C870E94EC052C8522FF17C021FF46
:100B300003C088E590E002C088E790E0B7010CC0F0
:100B4000822F867859F021FD02C080E201C08BE23D
:100B500027FD8DE2B70190E00E94EC05A51438F462
:100B6000B70180E390E00E94EC055A94F7CFAA9475
:100B7000F401EA0DF11D8081B70190E00E94EC05BF
:100B8000A110F5CF332009F451CEB70180E290E0F7
:100B90000E94EC053A94F6CFF7018681978102C056
:100BA0008FEF9FEF2C96E2E10C949806FC010590E4
:100BB000615070400110D8F7809590958E0F9F1F5F
:100BC0000895FC016150704001900110D8F78095A4
:100BD00090958E0F9F1F08950F931F93CF93DF93D0
:100BE000182F092FEB018B8181FD03C08FEF9FEF41
:100BF00020C082FF10C04E815F812C813D81421751
:100C000053077CF4E881F9819F012F5F3F4F3983BF
:100C10002883108306C0E885F985812F0995892BE3
:100C200029F72E813F812F5F3F4F3F832E83812FF6
:100C3000902FDF91CF911F910F910895FA01AA276C
:100C4000283051F1203181F1E8946F936E7F6E5F0F
:100C50007F4F8F4F9F4FAF4FB1E03ED0B4E03CD0BD
:100C6000670F781F891F9A1FA11D680F791F8A1FA0
:100C7000911DA11D6A0F711D811D911DA11D20D007
:100C800009F468943F912AE0269F11243019305DC1
:100C90003193DEF6CF010895462F4770405D4193B2
:100CA000B3E00FD0C9F7F6CF462F4F70405D4A33FF
:100CB00018F0495D31FD4052419302D0A9F7EACFC7
:100CC000B4E0A6959795879577956795BA95C9F7F6
:100CD00000976105710508959B01AC010A2E0694E9
:100CE0005795479537952795BA95C9F7620F731FA2
:100CF000841F951FA01D08952F923F924F925F92DF
:100D00006F927F928F929F92AF92BF92CF92DF921B
:100D1000EF92FF920F931F93CF93DF93CDB7DEB780
:100D2000CA1BDB0B0FB6F894DEBF0FBECDBF099414
:100D30002A88398848885F846E847D848C849B846B
:100D4000AA84B984C884DF80EE80FD800C811B8179
:100D5000AA81B981CE0FD11D0FB6F894DEBF0FBEA8
:0A0D6000CDBFED010895F894FFCF18
:100D6A000A0905060000000200000000090100004F
:100D7A000000F70100000002000000000901000065
:100D8A0000009201676572616C6420746573740A6D
:100D9A000D0073746D002D6800736D74202D722F11
:100DAA006C202D7320616E7A200A0D002D6C002DA7
:100DBA007300737465700A0D0008200800626F667C
:100DCA000A0D001B5B324A1B5B4800636F6D616E44
:100DDA00646F733A0A0D0025730A0D00544F4F4C85
:100DEA004C495354204F464552464C4F570A0D0022
:100DFA00415652232000636C656172007072696EFD
:100E0A007400706F72740025733A20636F6D6D61A0
:100E1A006E64206E6F7420666F756E640A0D0070C2
:100E2A006F7274202D622F632F64202276616C7595
:0E0E3A0065220A0D002D62002D63002D64005C
:00000001FF
